{
  "contractName": "Box",
  "abi": [
    {
      "anonymous": false,
      "inputs": [
        {
          "indexed": false,
          "internalType": "uint256",
          "name": "newValue",
          "type": "uint256"
        }
      ],
      "name": "ValueChanged",
      "type": "event"
    },
    {
      "inputs": [
        {
          "internalType": "uint256",
          "name": "_x",
          "type": "uint256"
        }
      ],
      "name": "initialize",
      "outputs": [],
      "stateMutability": "nonpayable",
      "type": "function"
    },
    {
      "inputs": [
        {
          "internalType": "uint256",
          "name": "newValue",
          "type": "uint256"
        }
      ],
      "name": "store",
      "outputs": [],
      "stateMutability": "nonpayable",
      "type": "function"
    },
    {
      "inputs": [],
      "name": "retrieve",
      "outputs": [
        {
          "internalType": "uint256",
          "name": "",
          "type": "uint256"
        }
      ],
      "stateMutability": "view",
      "type": "function",
      "constant": true
    }
  ],
  "bytecode": "0x608060405234801561001057600080fd5b5061032a806100206000396000f3fe608060405234801561001057600080fd5b50600436106100415760003560e01c80632e64cec1146100465780636057361d14610064578063fe4b84df14610080575b600080fd5b61004e61009c565b60405161005b9190610258565b60405180910390f35b61007e600480360381019061007991906101dd565b6100a6565b005b61009a600480360381019061009591906101dd565b6100e7565b005b6000600154905090565b806001819055507f93fe6d397c74fdf1402a8b72e47b68512f0510d7b98a4bc4cbdf6ac7108b3c59816040516100dc9190610258565b60405180910390a150565b600060019054906101000a900460ff168061010d575060008054906101000a900460ff16155b61014c576040517f08c379a000000000000000000000000000000000000000000000000000000000815260040161014390610238565b60405180910390fd5b60008060019054906101000a900460ff16159050801561019c576001600060016101000a81548160ff02191690831515021790555060016000806101000a81548160ff0219169083151502179055505b8160018190555080156101c45760008060016101000a81548160ff0219169083151502179055505b5050565b6000813590506101d7816102dd565b92915050565b6000602082840312156101ef57600080fd5b60006101fd848285016101c8565b91505092915050565b6000610213602e83610273565b915061021e8261028e565b604082019050919050565b61023281610284565b82525050565b6000602082019050818103600083015261025181610206565b9050919050565b600060208201905061026d6000830184610229565b92915050565b600082825260208201905092915050565b6000819050919050565b7f496e697469616c697a61626c653a20636f6e747261637420697320616c72656160008201527f647920696e697469616c697a6564000000000000000000000000000000000000602082015250565b6102e681610284565b81146102f157600080fd5b5056fea26469706673582212207bf671714573584234e53933e5cdb5423083b774ac782d1a96e214fd6c74d65a64736f6c63430008030033",
  "immutableReferences": {},
  "source": "// SPDX-License-Identifier: MIT\npragma solidity 0.8.3;\n\nimport \"@openzeppelin/contracts-upgradeable/proxy/utils/Initializable.sol\";\n\ncontract Box is Initializable {\n    uint256 private value;\n\n    // upgradeable\n    function initialize(uint256 _x) public initializer {\n        value = _x;\n    }\n\n    // Emitted when the stored value changes\n    event ValueChanged(uint256 newValue);\n\n    // Stores a new value in the contract\n    function store(uint256 newValue) public {\n        value = newValue;\n        emit ValueChanged(newValue);\n    }\n\n    // Reads the last stored value\n    function retrieve() public view returns (uint256) {\n        return value;\n    }\n}",
  "sourcePath": "/Volumes/Data/Projects/_self/cryts/ethereum-smartcontracts/truffle/smartcontracts/contracts/Box.sol",
  "compiler": {
    "name": "solc",
    "version": "0.8.3+commit.8d00100c.Emscripten.clang"
  },
  "schemaVersion": "3.3.4",
  "updatedAt": "2021-03-31T06:11:36.603Z",
  "networkType": "ethereum",
  "devdoc": {
    "kind": "dev",
    "methods": {},
    "version": 1
  },
  "userdoc": {
    "kind": "user",
    "methods": {},
    "version": 1
  }
}