{
  "contractName": "CryptoLott",
  "abi": [
    {
      "inputs": [],
      "stateMutability": "nonpayable",
      "type": "constructor"
    },
    {
      "anonymous": false,
      "inputs": [
        {
          "indexed": false,
          "internalType": "uint256",
          "name": "_minPrice",
          "type": "uint256"
        },
        {
          "indexed": false,
          "internalType": "uint64",
          "name": "_playerInSession",
          "type": "uint64"
        },
        {
          "indexed": false,
          "internalType": "uint8",
          "name": "_charityRate",
          "type": "uint8"
        },
        {
          "indexed": false,
          "internalType": "uint8",
          "name": "_winnerRate",
          "type": "uint8"
        },
        {
          "indexed": false,
          "internalType": "uint64",
          "name": "_luckyNumberRange",
          "type": "uint64"
        }
      ],
      "name": "GameSessionBeginEvent",
      "type": "event"
    },
    {
      "anonymous": false,
      "inputs": [
        {
          "indexed": true,
          "internalType": "address[]",
          "name": "_winnerAddressList",
          "type": "address[]"
        },
        {
          "indexed": false,
          "internalType": "uint64",
          "name": "_luckyNumber",
          "type": "uint64"
        },
        {
          "indexed": false,
          "internalType": "uint256",
          "name": "_totalReward",
          "type": "uint256"
        }
      ],
      "name": "GameSessionEndEvent",
      "type": "event"
    },
    {
      "anonymous": false,
      "inputs": [
        {
          "indexed": true,
          "internalType": "address",
          "name": "_from",
          "type": "address"
        },
        {
          "indexed": true,
          "internalType": "address",
          "name": "_to",
          "type": "address"
        }
      ],
      "name": "OwnershipTransferred",
      "type": "event"
    },
    {
      "anonymous": false,
      "inputs": [
        {
          "indexed": true,
          "internalType": "address",
          "name": "_playerAddress",
          "type": "address"
        }
      ],
      "name": "PlayerRegisterEvent",
      "type": "event"
    },
    {
      "inputs": [],
      "name": "acceptOwnership",
      "outputs": [],
      "stateMutability": "nonpayable",
      "type": "function"
    },
    {
      "inputs": [],
      "name": "endRound",
      "outputs": [
        {
          "internalType": "uint256",
          "name": "",
          "type": "uint256"
        }
      ],
      "stateMutability": "view",
      "type": "function",
      "constant": true
    },
    {
      "inputs": [],
      "name": "newOwner",
      "outputs": [
        {
          "internalType": "address",
          "name": "",
          "type": "address"
        }
      ],
      "stateMutability": "view",
      "type": "function",
      "constant": true
    },
    {
      "inputs": [],
      "name": "owner",
      "outputs": [
        {
          "internalType": "address",
          "name": "",
          "type": "address"
        }
      ],
      "stateMutability": "view",
      "type": "function",
      "constant": true
    },
    {
      "inputs": [],
      "name": "startRound",
      "outputs": [
        {
          "internalType": "uint256",
          "name": "",
          "type": "uint256"
        }
      ],
      "stateMutability": "view",
      "type": "function",
      "constant": true
    },
    {
      "inputs": [
        {
          "internalType": "address",
          "name": "_newOwner",
          "type": "address"
        }
      ],
      "name": "transferOwnership",
      "outputs": [],
      "stateMutability": "nonpayable",
      "type": "function"
    },
    {
      "inputs": [
        {
          "internalType": "bool",
          "name": "status",
          "type": "bool"
        }
      ],
      "name": "enableContract",
      "outputs": [],
      "stateMutability": "nonpayable",
      "type": "function"
    },
    {
      "inputs": [
        {
          "internalType": "address payable",
          "name": "_charityAddress",
          "type": "address"
        }
      ],
      "name": "upCharityAddress",
      "outputs": [],
      "stateMutability": "nonpayable",
      "type": "function"
    },
    {
      "inputs": [
        {
          "internalType": "uint256",
          "name": "_minPrice",
          "type": "uint256"
        },
        {
          "internalType": "uint64",
          "name": "_maxPlayerRandom",
          "type": "uint64"
        },
        {
          "internalType": "uint64",
          "name": "_maxLuckyNumberRandom",
          "type": "uint64"
        },
        {
          "internalType": "uint8",
          "name": "_charityRate",
          "type": "uint8"
        },
        {
          "internalType": "uint8",
          "name": "_winnerRate",
          "type": "uint8"
        }
      ],
      "name": "config",
      "outputs": [],
      "stateMutability": "nonpayable",
      "type": "function"
    },
    {
      "inputs": [
        {
          "internalType": "string",
          "name": "name",
          "type": "string"
        },
        {
          "internalType": "uint64[]",
          "name": "numbers",
          "type": "uint64[]"
        }
      ],
      "name": "playerRegister",
      "outputs": [],
      "stateMutability": "payable",
      "type": "function",
      "payable": true
    },
    {
      "inputs": [],
      "name": "getMinPrice",
      "outputs": [
        {
          "internalType": "uint256",
          "name": "",
          "type": "uint256"
        }
      ],
      "stateMutability": "view",
      "type": "function",
      "constant": true
    },
    {
      "inputs": [],
      "name": "getCountPlayer",
      "outputs": [
        {
          "internalType": "uint64",
          "name": "",
          "type": "uint64"
        }
      ],
      "stateMutability": "view",
      "type": "function",
      "constant": true
    },
    {
      "inputs": [],
      "name": "getMaxPlayer",
      "outputs": [
        {
          "internalType": "uint64",
          "name": "",
          "type": "uint64"
        }
      ],
      "stateMutability": "view",
      "type": "function",
      "constant": true
    },
    {
      "inputs": [],
      "name": "getMaxLuckyRandomNumber",
      "outputs": [
        {
          "internalType": "uint64",
          "name": "",
          "type": "uint64"
        }
      ],
      "stateMutability": "view",
      "type": "function",
      "constant": true
    },
    {
      "inputs": [],
      "name": "getLastTotalFund",
      "outputs": [
        {
          "internalType": "uint256",
          "name": "",
          "type": "uint256"
        }
      ],
      "stateMutability": "view",
      "type": "function",
      "constant": true
    },
    {
      "inputs": [],
      "name": "getLastLuckyNumber",
      "outputs": [
        {
          "internalType": "uint64",
          "name": "",
          "type": "uint64"
        }
      ],
      "stateMutability": "view",
      "type": "function",
      "constant": true
    },
    {
      "inputs": [],
      "name": "getCurrentFund",
      "outputs": [
        {
          "internalType": "uint256",
          "name": "",
          "type": "uint256"
        }
      ],
      "stateMutability": "view",
      "type": "function",
      "constant": true
    },
    {
      "inputs": [],
      "name": "getCharityAddress",
      "outputs": [
        {
          "internalType": "address",
          "name": "",
          "type": "address"
        }
      ],
      "stateMutability": "view",
      "type": "function",
      "constant": true
    },
    {
      "inputs": [],
      "name": "getOwnerAddress",
      "outputs": [
        {
          "internalType": "address",
          "name": "",
          "type": "address"
        }
      ],
      "stateMutability": "view",
      "type": "function",
      "constant": true
    },
    {
      "inputs": [
        {
          "internalType": "address",
          "name": "playerAddress",
          "type": "address"
        }
      ],
      "name": "getPlayerInfo",
      "outputs": [
        {
          "internalType": "string",
          "name": "playerName",
          "type": "string"
        },
        {
          "internalType": "uint64[]",
          "name": "playerNumbers",
          "type": "uint64[]"
        }
      ],
      "stateMutability": "view",
      "type": "function",
      "constant": true
    }
  ],
  "bytecode": "0x60806040523480156200001157600080fd5b50336000806101000a81548173ffffffffffffffffffffffffffffffffffffffff021916908373ffffffffffffffffffffffffffffffffffffffff1602179055506001600a60036101000a81548160ff0219169083151502179055506001600a60026101000a81548160ff02191690831515021790555060008054906101000a900473ffffffffffffffffffffffffffffffffffffffff16600760006101000a81548173ffffffffffffffffffffffffffffffffffffffff021916908373ffffffffffffffffffffffffffffffffffffffff160217905550662386f26fc100006008819055506002600960006101000a81548167ffffffffffffffff021916908367ffffffffffffffff1602179055506005600960086101000a81548167ffffffffffffffff021916908367ffffffffffffffff16021790555060ff600960106101000a81548167ffffffffffffffff021916908367ffffffffffffffff1602179055506000600960186101000a81548167ffffffffffffffff021916908367ffffffffffffffff160217905550600f600a60006101000a81548160ff021916908360ff160217905550603c600a60016101000a81548160ff021916908360ff160217905550620001e7620001ed60201b60201c565b62000a63565b60011515600a60029054906101000a900460ff1615151462000246576040517f08c379a00000000000000000000000000000000000000000000000000000000081526004016200023d9062000794565b60405180910390fd5b600a60039054906101000a900460ff1615620002805760006005819055506000600a60036101000a81548160ff0219169083151502179055505b42600b819055506002600062000297919062000621565b620002a7620003b060201b60201c565b600460006101000a81548167ffffffffffffffff021916908367ffffffffffffffff1602179055506000600160146101000a81548160ff021916908360018111156200031c577f4e487b7100000000000000000000000000000000000000000000000000000000600052602160045260246000fd5b02179055507ffdf2bc4b463433ab95187f69622b0d3e4305cbcf27c35e8dfb9175adaef97a6d600854600460009054906101000a900467ffffffffffffffff16600a60009054906101000a900460ff16600a60019054906101000a900460ff16600960109054906101000a900467ffffffffffffffff16604051620003a6959493929190620007b6565b60405180910390a1565b6000600960089054906101000a900467ffffffffffffffff166001600960009054906101000a900467ffffffffffffffff16620003ee919062000881565b620003fe6200041b60201b60201c565b6200040a919062000975565b62000416919062000881565b905090565b6000806200043c444262000430919062000824565b6200059c60201b60201c565b8051906020012060001c905060005b600280549050811015620005945760005b6002828154811062000497577f4e487b7100000000000000000000000000000000000000000000000000000000600052603260045260246000fd5b9060005260206000209060030201600201805490508110156200057d5760028281548110620004ef577f4e487b7100000000000000000000000000000000000000000000000000000000600052603260045260246000fd5b9060005260206000209060030201600201818154811062000539577f4e487b7100000000000000000000000000000000000000000000000000000000600052603260045260246000fd5b90600052602060002090600491828204019190066008029054906101000a900467ffffffffffffffff16831892508080620005749062000927565b9150506200045c565b5080806200058b9062000927565b9150506200044b565b508091505090565b6060602067ffffffffffffffff811115620005e0577f4e487b7100000000000000000000000000000000000000000000000000000000600052604160045260246000fd5b6040519080825280601f01601f191660200182016040528015620006135781602001600182028036833780820191505090505b509050816020820152919050565b508054600082556003029060005260206000209081019062000644919062000647565b50565b5b80821115620006a757600080820160006101000a81549073ffffffffffffffffffffffffffffffffffffffff02191690556001820160006200068b9190620006ab565b6002820160006200069d9190620006f1565b5060030162000648565b5090565b508054620006b990620008f1565b6000825580601f10620006cd5750620006ee565b601f016020900490600052602060002090810190620006ed91906200071b565b5b50565b5080546000825560030160049004906000526020600020908101906200071891906200071b565b50565b5b80821115620007365760008160009055506001016200071c565b5090565b60006200074960158362000813565b9150620007568262000a3a565b602082019050919050565b6200076c81620008c6565b82525050565b6200077d81620008d0565b82525050565b6200078e81620008e4565b82525050565b60006020820190508181036000830152620007af816200073a565b9050919050565b600060a082019050620007cd600083018862000761565b620007dc602083018762000772565b620007eb604083018662000783565b620007fa606083018562000783565b62000809608083018462000772565b9695505050505050565b600082825260208201905092915050565b60006200083182620008c6565b91506200083e83620008c6565b9250827fffffffffffffffffffffffffffffffffffffffffffffffffffffffffffffffff03821115620008765762000875620009ad565b5b828201905092915050565b60006200088e82620008d0565b91506200089b83620008d0565b92508267ffffffffffffffff03821115620008bb57620008ba620009ad565b5b828201905092915050565b6000819050919050565b600067ffffffffffffffff82169050919050565b600060ff82169050919050565b600060028204905060018216806200090a57607f821691505b6020821081141562000921576200092062000a0b565b5b50919050565b60006200093482620008c6565b91507fffffffffffffffffffffffffffffffffffffffffffffffffffffffffffffffff8214156200096a5762000969620009ad565b5b600182019050919050565b60006200098282620008d0565b91506200098f83620008d0565b925082620009a257620009a1620009dc565b5b828206905092915050565b7f4e487b7100000000000000000000000000000000000000000000000000000000600052601160045260246000fd5b7f4e487b7100000000000000000000000000000000000000000000000000000000600052601260045260246000fd5b7f4e487b7100000000000000000000000000000000000000000000000000000000600052602260045260246000fd5b7f436f6e7472616374207761732064697361626c65640000000000000000000000600082015250565b6133798062000a736000396000f3fe60806040526004361061011f5760003560e01c806379ba5097116100a0578063d4ee1d9011610064578063d4ee1d90146103a2578063e31a8116146103cd578063e89de8be146103f8578063f2d6733414610414578063f2fde38b1461043f5761011f565b806379ba5097146102e15780638da5cb5b146102f8578063a7a5538f14610323578063b5c77ec91461034e578063cb2face9146103775761011f565b806355e3f086116100e757806355e3f086146101fb578063593284011461022657806367119e0614610264578063749aa2d91461028d57806375292dc8146102b85761011f565b80630c4f65bd14610124578063196f65d31461014f5780631ad063931461017a57806327de8794146101a557806345e0084a146101d0575b600080fd5b34801561013057600080fd5b50610139610468565b60405161014691906129bb565b60405180910390f35b34801561015b57600080fd5b50610164610491565b6040516101719190612b7b565b60405180910390f35b34801561018657600080fd5b5061018f6104af565b60405161019c91906129bb565b60405180910390f35b3480156101b157600080fd5b506101ba6104d9565b6040516101c79190612b0d565b60405180910390f35b3480156101dc57600080fd5b506101e56104e3565b6040516101f29190612b7b565b60405180910390f35b34801561020757600080fd5b50610210610501565b60405161021d9190612b0d565b60405180910390f35b34801561023257600080fd5b5061024d60048036038101906102489190612570565b610507565b60405161025b9291906129d6565b60405180910390f35b34801561027057600080fd5b5061028b60048036038101906102869190612599565b6107b7565b005b34801561029957600080fd5b506102a2610853565b6040516102af9190612b0d565b60405180910390f35b3480156102c457600080fd5b506102df60048036038101906102da9190612657565b610859565b005b3480156102ed57600080fd5b506102f6610ad5565b005b34801561030457600080fd5b5061030d610c71565b60405161031a91906129bb565b60405180910390f35b34801561032f57600080fd5b50610338610c95565b6040516103459190612b7b565b60405180910390f35b34801561035a57600080fd5b50610375600480360381019061037091906125c2565b610ca2565b005b34801561038357600080fd5b5061038c610df2565b6040516103999190612b7b565b60405180910390f35b3480156103ae57600080fd5b506103b7610e10565b6040516103c491906129bb565b60405180910390f35b3480156103d957600080fd5b506103e2610e36565b6040516103ef9190612b0d565b60405180910390f35b610412600480360381019061040d91906125eb565b610e40565b005b34801561042057600080fd5b506104296113a1565b6040516104369190612b0d565b60405180910390f35b34801561044b57600080fd5b5061046660048036038101906104619190612570565b6113ab565b005b60008060009054906101000a900473ffffffffffffffffffffffffffffffffffffffff16905090565b6000600460009054906101000a900467ffffffffffffffff16905090565b6000600760009054906101000a900473ffffffffffffffffffffffffffffffffffffffff16905090565b6000600654905090565b6000600960109054906101000a900467ffffffffffffffff16905090565b600b5481565b606080610512612153565b60005b6002805490508110156107a2578473ffffffffffffffffffffffffffffffffffffffff1660028281548110610573577f4e487b7100000000000000000000000000000000000000000000000000000000600052603260045260246000fd5b906000526020600020906003020160000160009054906101000a900473ffffffffffffffffffffffffffffffffffffffff1673ffffffffffffffffffffffffffffffffffffffff16141561078f57600281815481106105fb577f4e487b7100000000000000000000000000000000000000000000000000000000600052603260045260246000fd5b90600052602060002090600302016040518060600160405290816000820160009054906101000a900473ffffffffffffffffffffffffffffffffffffffff1673ffffffffffffffffffffffffffffffffffffffff1673ffffffffffffffffffffffffffffffffffffffff16815260200160018201805461067a90612f33565b80601f01602080910402602001604051908101604052809291908181526020018280546106a690612f33565b80156106f35780601f106106c8576101008083540402835291602001916106f3565b820191906000526020600020905b8154815290600101906020018083116106d657829003601f168201915b505050505081526020016002820180548060200260200160405190810160405280929190818152602001828054801561077f57602002820191906000526020600020906000905b82829054906101000a900467ffffffffffffffff1667ffffffffffffffff168152602001906008019060208260070104928301926001038202915080841161073a5790505b50505050508152505091506107a2565b808061079a90612fb0565b915050610515565b50806020015181604001519250925050915091565b60008054906101000a900473ffffffffffffffffffffffffffffffffffffffff1673ffffffffffffffffffffffffffffffffffffffff163373ffffffffffffffffffffffffffffffffffffffff161461080f57600080fd5b80600760006101000a81548173ffffffffffffffffffffffffffffffffffffffff021916908373ffffffffffffffffffffffffffffffffffffffff16021790555050565b600c5481565b60008054906101000a900473ffffffffffffffffffffffffffffffffffffffff1673ffffffffffffffffffffffffffffffffffffffff163373ffffffffffffffffffffffffffffffffffffffff16146108b157600080fd5b60001515600a60029054906101000a900460ff16151514610907576040517f08c379a00000000000000000000000000000000000000000000000000000000081526004016108fe90612acd565b60405180910390fd5b6611c37937e08000851015610951576040517f08c379a000000000000000000000000000000000000000000000000000000000815260040161094890612a8d565b60405180910390fd5b60018467ffffffffffffffff161161099e576040517f08c379a000000000000000000000000000000000000000000000000000000000815260040161099590612a2d565b60405180910390fd5b60098367ffffffffffffffff16116109eb576040517f08c379a00000000000000000000000000000000000000000000000000000000081526004016109e290612a4d565b60405180910390fd5b8460088190555083600960006101000a81548167ffffffffffffffff021916908367ffffffffffffffff1602179055506005600960086101000a81548167ffffffffffffffff021916908367ffffffffffffffff16021790555082600960106101000a81548167ffffffffffffffff021916908367ffffffffffffffff1602179055506000600960186101000a81548167ffffffffffffffff021916908367ffffffffffffffff16021790555081600a60006101000a81548160ff021916908360ff16021790555080600a60016101000a81548160ff021916908360ff1602179055505050505050565b600160009054906101000a900473ffffffffffffffffffffffffffffffffffffffff1673ffffffffffffffffffffffffffffffffffffffff163373ffffffffffffffffffffffffffffffffffffffff1614610b2f57600080fd5b600160009054906101000a900473ffffffffffffffffffffffffffffffffffffffff1673ffffffffffffffffffffffffffffffffffffffff1660008054906101000a900473ffffffffffffffffffffffffffffffffffffffff1673ffffffffffffffffffffffffffffffffffffffff167f8be0079c531659141344cd1fd0a4f28419497f9722a3daafe3b4186f6b6457e060405160405180910390a3600160009054906101000a900473ffffffffffffffffffffffffffffffffffffffff166000806101000a81548173ffffffffffffffffffffffffffffffffffffffff021916908373ffffffffffffffffffffffffffffffffffffffff1602179055506000600160006101000a81548173ffffffffffffffffffffffffffffffffffffffff021916908373ffffffffffffffffffffffffffffffffffffffff160217905550565b60008054906101000a900473ffffffffffffffffffffffffffffffffffffffff1681565b6000600280549050905090565b60008054906101000a900473ffffffffffffffffffffffffffffffffffffffff1673ffffffffffffffffffffffffffffffffffffffff163373ffffffffffffffffffffffffffffffffffffffff1614610cfa57600080fd5b80600a60026101000a81548160ff02191690831515021790555060001515811515148015610da7575060006001811115610d5d577f4e487b7100000000000000000000000000000000000000000000000000000000600052602160045260246000fd5b600160149054906101000a900460ff166001811115610da5577f4e487b7100000000000000000000000000000000000000000000000000000000600052602160045260246000fd5b145b8015610db557506000600554115b8015610dc657506000600280549050115b15610dd857610dd3611447565b610def565b600115158115151415610dee57610ded611cf8565b5b5b50565b6000600460089054906101000a900467ffffffffffffffff16905090565b600160009054906101000a900473ffffffffffffffffffffffffffffffffffffffff1681565b6000600854905090565b60011515600a60029054906101000a900460ff16151514610e96576040517f08c379a0000000000000000000000000000000000000000000000000000000008152600401610e8d90612a6d565b60405180910390fd5b60006001811115610ed0577f4e487b7100000000000000000000000000000000000000000000000000000000600052602160045260246000fd5b600160149054906101000a900460ff166001811115610f18577f4e487b7100000000000000000000000000000000000000000000000000000000600052602160045260246000fd5b14610f58576040517f08c379a0000000000000000000000000000000000000000000000000000000008152600401610f4f90612a0d565b60405180910390fd5b6000815111610f9c576040517f08c379a0000000000000000000000000000000000000000000000000000000008152600401610f9390612aed565b60405180910390fd5b8051600854610fab9190612d9e565b341015610fed576040517f08c379a0000000000000000000000000000000000000000000000000000000008152600401610fe490612aad565b60405180910390fd5b60005b600280549050811015611204573373ffffffffffffffffffffffffffffffffffffffff166002828154811061104e577f4e487b7100000000000000000000000000000000000000000000000000000000600052603260045260246000fd5b906000526020600020906003020160000160009054906101000a900473ffffffffffffffffffffffffffffffffffffffff1673ffffffffffffffffffffffffffffffffffffffff1614156110a157600080fd5b60005b600282815481106110de577f4e487b7100000000000000000000000000000000000000000000000000000000600052603260045260246000fd5b9060005260206000209060030201600201805490508110156111f057600960109054906101000a900467ffffffffffffffff1667ffffffffffffffff1660028381548110611155577f4e487b7100000000000000000000000000000000000000000000000000000000600052603260045260246000fd5b9060005260206000209060030201600201828154811061119e577f4e487b7100000000000000000000000000000000000000000000000000000000600052603260045260246000fd5b90600052602060002090600491828204019190066008029054906101000a900467ffffffffffffffff1667ffffffffffffffff1611156111dd57600080fd5b80806111e890612fb0565b9150506110a4565b5080806111fc90612fb0565b915050610ff0565b5034600560008282546112179190612cd9565b92505081905550600060405180606001604052803373ffffffffffffffffffffffffffffffffffffffff168152602001848152602001838152509050600281908060018154018082558091505060019003906000526020600020906003020160009091909190915060008201518160000160006101000a81548173ffffffffffffffffffffffffffffffffffffffff021916908373ffffffffffffffffffffffffffffffffffffffff16021790555060208201518160010190805190602001906112e292919061218a565b5060408201518160020190805190602001906112ff929190612210565b505050806000015173ffffffffffffffffffffffffffffffffffffffff167f14ef9390b146c40dce0e3b8c9e5c9286fe8a07b054f852e06fe9e2efc28f7e3d60405160405180910390a2600460009054906101000a900467ffffffffffffffff1667ffffffffffffffff166002805490501061139c5761137d611447565b600a60029054906101000a900460ff161561139b5761139a611cf8565b5b5b505050565b6000600554905090565b60008054906101000a900473ffffffffffffffffffffffffffffffffffffffff1673ffffffffffffffffffffffffffffffffffffffff163373ffffffffffffffffffffffffffffffffffffffff161461140357600080fd5b80600160006101000a81548173ffffffffffffffffffffffffffffffffffffffff021916908373ffffffffffffffffffffffffffffffffffffffff16021790555050565b60018060146101000a81548160ff02191690836001811115611492577f4e487b7100000000000000000000000000000000000000000000000000000000600052602160045260246000fd5b02179055506005546006819055506114a8611eaa565b600460086101000a81548167ffffffffffffffff021916908367ffffffffffffffff160217905550600360006114de91906122cc565b60005b60028054905081101561171b5760005b6002828154811061152b577f4e487b7100000000000000000000000000000000000000000000000000000000600052603260045260246000fd5b90600052602060002090600302016002018054905081101561170757600460089054906101000a900467ffffffffffffffff1667ffffffffffffffff16600283815481106115a2577f4e487b7100000000000000000000000000000000000000000000000000000000600052603260045260246000fd5b906000526020600020906003020160020182815481106115eb577f4e487b7100000000000000000000000000000000000000000000000000000000600052603260045260246000fd5b90600052602060002090600491828204019190066008029054906101000a900467ffffffffffffffff1667ffffffffffffffff1614156116f457600360028381548110611661577f4e487b7100000000000000000000000000000000000000000000000000000000600052603260045260246000fd5b906000526020600020906003020160000160009054906101000a900473ffffffffffffffffffffffffffffffffffffffff169080600181540180825580915050600190039060005260206000200160009091909190916101000a81548173ffffffffffffffffffffffffffffffffffffffff021916908373ffffffffffffffffffffffffffffffffffffffff1602179055505b80806116ff90612fb0565b9150506114f1565b50808061171390612fb0565b9150506114e1565b506000806000600380549050111561189a5760006003805490506064600a60019054906101000a900460ff1660ff166005546117579190612d9e565b6117619190612d6d565b61176b9190612d6d565b905060005b60038054905081101561187857600381815481106117b7577f4e487b7100000000000000000000000000000000000000000000000000000000600052603260045260246000fd5b9060005260206000200160009054906101000a900473ffffffffffffffffffffffffffffffffffffffff1673ffffffffffffffffffffffffffffffffffffffff1682604051611805906129a6565b60006040518083038185875af1925050503d8060008114611842576040519150601f19603f3d011682016040523d82523d6000602084013e611847565b606091505b5050809350508261185757600080fd5b81846118639190612cd9565b9350808061187090612fb0565b915050611770565b506001600a60036101000a81548160ff021916908315150217905550506118b8565b606460326005546118ab9190612d9e565b6118b59190612d6d565b91505b60006064600a60009054906101000a900460ff1660ff166005546118dc9190612d9e565b6118e69190612d6d565b9050600a60039054906101000a900460ff166119245760646005805461190c9190612d9e565b6119169190612d6d565b816119219190612cd9565b90505b600760009054906101000a900473ffffffffffffffffffffffffffffffffffffffff1673ffffffffffffffffffffffffffffffffffffffff168160405161196a906129a6565b60006040518083038185875af1925050503d80600081146119a7576040519150601f19603f3d011682016040523d82523d6000602084013e6119ac565b606091505b505080925050816119bc57600080fd5b60008054906101000a900473ffffffffffffffffffffffffffffffffffffffff1673ffffffffffffffffffffffffffffffffffffffff168184600554611a029190612df8565b611a0c9190612df8565b604051611a18906129a6565b60006040518083038185875af1925050503d8060008114611a55576040519150601f19603f3d011682016040523d82523d6000602084013e611a5a565b606091505b50508092505081611a6a57600080fd5b8260058190555042600c819055506202a300600b54600c54611a8c9190612df8565b1015611c135760001967ffffffffffffffff16600960089054906101000a900467ffffffffffffffff1667ffffffffffffffff161015611b14576009600881819054906101000a900467ffffffffffffffff1680929190611aec90612ff9565b91906101000a81548167ffffffffffffffff021916908367ffffffffffffffff160217905550505b60001967ffffffffffffffff16600960189054906101000a900467ffffffffffffffff1667ffffffffffffffff161015611b96576009601881819054906101000a900467ffffffffffffffff1680929190611b6e90612ff9565b91906101000a81548167ffffffffffffffff021916908367ffffffffffffffff160217905550505b6103e8600960009054906101000a900467ffffffffffffffff1667ffffffffffffffff161015611c0e576009600081819054906101000a900467ffffffffffffffff1680929190611be690612ff9565b91906101000a81548167ffffffffffffffff021916908367ffffffffffffffff160217905550505b611c8b565b6005600960089054906101000a900467ffffffffffffffff1667ffffffffffffffff161115611c8a576009600881819054906101000a900467ffffffffffffffff1680929190611c6290612f09565b91906101000a81548167ffffffffffffffff021916908367ffffffffffffffff160217905550505b5b6003604051611c9a919061298f565b60405180910390207fa06a0572fcae48117f79772b56e393d8a07cb47bffa09a171c665a2145537524600460089054906101000a900467ffffffffffffffff16600654604051611ceb929190612b96565b60405180910390a2505050565b60011515600a60029054906101000a900460ff16151514611d4e576040517f08c379a0000000000000000000000000000000000000000000000000000000008152600401611d4590612a6d565b60405180910390fd5b600a60039054906101000a900460ff1615611d875760006005819055506000600a60036101000a81548160ff0219169083151502179055505b42600b8190555060026000611d9c91906122ed565b611da4611f07565b600460006101000a81548167ffffffffffffffff021916908367ffffffffffffffff1602179055506000600160146101000a81548160ff02191690836001811115611e18577f4e487b7100000000000000000000000000000000000000000000000000000000600052602160045260246000fd5b02179055507ffdf2bc4b463433ab95187f69622b0d3e4305cbcf27c35e8dfb9175adaef97a6d600854600460009054906101000a900467ffffffffffffffff16600a60009054906101000a900460ff16600a60019054906101000a900460ff16600960109054906101000a900467ffffffffffffffff16604051611ea0959493929190612b28565b60405180910390a1565b6000600960189054906101000a900467ffffffffffffffff166001600960109054906101000a900467ffffffffffffffff16611ee69190612d2f565b611ef09190612d2f565b611ef8611f64565b611f02919061302a565b905090565b6000600960089054906101000a900467ffffffffffffffff166001600960009054906101000a900467ffffffffffffffff16611f439190612d2f565b611f4b611f64565b611f55919061302a565b611f5f9190612d2f565b905090565b600080611f7b4442611f769190612cd9565b6120d0565b8051906020012060001c905060005b6002805490508110156120c85760005b60028281548110611fd4577f4e487b7100000000000000000000000000000000000000000000000000000000600052603260045260246000fd5b9060005260206000209060030201600201805490508110156120b4576002828154811061202a577f4e487b7100000000000000000000000000000000000000000000000000000000600052603260045260246000fd5b90600052602060002090600302016002018181548110612073577f4e487b7100000000000000000000000000000000000000000000000000000000600052603260045260246000fd5b90600052602060002090600491828204019190066008029054906101000a900467ffffffffffffffff168318925080806120ac90612fb0565b915050611f9a565b5080806120c090612fb0565b915050611f8a565b508091505090565b6060602067ffffffffffffffff811115612113577f4e487b7100000000000000000000000000000000000000000000000000000000600052604160045260246000fd5b6040519080825280601f01601f1916602001820160405280156121455781602001600182028036833780820191505090505b509050816020820152919050565b6040518060600160405280600073ffffffffffffffffffffffffffffffffffffffff16815260200160608152602001606081525090565b82805461219690612f33565b90600052602060002090601f0160209004810192826121b857600085556121ff565b82601f106121d157805160ff19168380011785556121ff565b828001600101855582156121ff579182015b828111156121fe5782518255916020019190600101906121e3565b5b50905061220c9190612311565b5090565b828054828255906000526020600020906003016004900481019282156122bb5791602002820160005b8382111561228557835183826101000a81548167ffffffffffffffff021916908367ffffffffffffffff1602179055509260200192600801602081600701049283019260010302612239565b80156122b95782816101000a81549067ffffffffffffffff0219169055600801602081600701049283019260010302612285565b505b5090506122c89190612311565b5090565b50805460008255906000526020600020908101906122ea9190612311565b50565b508054600082556003029060005260206000209081019061230e919061232e565b50565b5b8082111561232a576000816000905550600101612312565b5090565b5b8082111561238857600080820160006101000a81549073ffffffffffffffffffffffffffffffffffffffff021916905560018201600061236f919061238c565b60028201600061237f91906123cc565b5060030161232f565b5090565b50805461239890612f33565b6000825580601f106123aa57506123c9565b601f0160209004906000526020600020908101906123c89190612311565b5b50565b5080546000825560030160049004906000526020600020908101906123f19190612311565b50565b600061240761240284612be4565b612bbf565b9050808382526020820190508285602086028201111561242657600080fd5b60005b85811015612456578161243c8882612546565b845260208401935060208301925050600181019050612429565b5050509392505050565b600061247361246e84612c10565b612bbf565b90508281526020810184848401111561248b57600080fd5b612496848285612ec7565b509392505050565b6000813590506124ad816132b9565b92915050565b6000813590506124c2816132d0565b92915050565b600082601f8301126124d957600080fd5b81356124e98482602086016123f4565b91505092915050565b600081359050612501816132e7565b92915050565b600082601f83011261251857600080fd5b8135612528848260208601612460565b91505092915050565b600081359050612540816132fe565b92915050565b60008135905061255581613315565b92915050565b60008135905061256a8161332c565b92915050565b60006020828403121561258257600080fd5b60006125908482850161249e565b91505092915050565b6000602082840312156125ab57600080fd5b60006125b9848285016124b3565b91505092915050565b6000602082840312156125d457600080fd5b60006125e2848285016124f2565b91505092915050565b600080604083850312156125fe57600080fd5b600083013567ffffffffffffffff81111561261857600080fd5b61262485828601612507565b925050602083013567ffffffffffffffff81111561264157600080fd5b61264d858286016124c8565b9150509250929050565b600080600080600060a0868803121561266f57600080fd5b600061267d88828901612531565b955050602061268e88828901612546565b945050604061269f88828901612546565b93505060606126b08882890161255b565b92505060806126c18882890161255b565b9150509295509295909350565b60006126da838361270d565b60208301905092915050565b60006126f28383612962565b60208301905092915050565b61270781612e4c565b82525050565b61271681612e4c565b82525050565b600061272782612c66565b6127318185612ca1565b935061273c83612c41565b8060005b838110156127745761275182613117565b61275b88826126ce565b975061276683612c87565b925050600181019050612740565b5085935050505092915050565b600061278c82612c71565b6127968185612cac565b93506127a183612c56565b8060005b838110156127d25781516127b988826126e6565b97506127c483612c94565b9250506001810190506127a5565b5085935050505092915050565b60006127ea82612c7c565b6127f48185612cc8565b9350612804818560208601612ed6565b61280d8161312a565b840191505092915050565b6000612825601783612cc8565b915061283082613148565b602082019050919050565b6000612848601483612cc8565b915061285382613171565b602082019050919050565b600061286b601a83612cc8565b91506128768261319a565b602082019050919050565b600061288e601583612cc8565b9150612899826131c3565b602082019050919050565b60006128b1601083612cc8565b91506128bc826131ec565b602082019050919050565b60006128d4601283612cc8565b91506128df82613215565b602082019050919050565b60006128f7602283612cc8565b91506129028261323e565b604082019050919050565b600061291a600083612cbd565b91506129258261328d565b600082019050919050565b600061293d601183612cc8565b915061294882613290565b602082019050919050565b61295c81612e9c565b82525050565b61296b81612ea6565b82525050565b61297a81612ea6565b82525050565b61298981612eba565b82525050565b600061299b828461271c565b915081905092915050565b60006129b18261290d565b9150819050919050565b60006020820190506129d060008301846126fe565b92915050565b600060408201905081810360008301526129f081856127df565b90508181036020830152612a048184612781565b90509392505050565b60006020820190508181036000830152612a2681612818565b9050919050565b60006020820190508181036000830152612a468161283b565b9050919050565b60006020820190508181036000830152612a668161285e565b9050919050565b60006020820190508181036000830152612a8681612881565b9050919050565b60006020820190508181036000830152612aa6816128a4565b9050919050565b60006020820190508181036000830152612ac6816128c7565b9050919050565b60006020820190508181036000830152612ae6816128ea565b9050919050565b60006020820190508181036000830152612b0681612930565b9050919050565b6000602082019050612b226000830184612953565b92915050565b600060a082019050612b3d6000830188612953565b612b4a6020830187612971565b612b576040830186612980565b612b646060830185612980565b612b716080830184612971565b9695505050505050565b6000602082019050612b906000830184612971565b92915050565b6000604082019050612bab6000830185612971565b612bb86020830184612953565b9392505050565b6000612bc9612bda565b9050612bd58282612f7f565b919050565b6000604051905090565b600067ffffffffffffffff821115612bff57612bfe6130e8565b5b602082029050602081019050919050565b600067ffffffffffffffff821115612c2b57612c2a6130e8565b5b612c348261312a565b9050602081019050919050565b60008190508160005260206000209050919050565b6000819050602082019050919050565b600081549050919050565b600081519050919050565b600081519050919050565b6000600182019050919050565b6000602082019050919050565b600081905092915050565b600082825260208201905092915050565b600081905092915050565b600082825260208201905092915050565b6000612ce482612e9c565b9150612cef83612e9c565b9250827fffffffffffffffffffffffffffffffffffffffffffffffffffffffffffffffff03821115612d2457612d2361305b565b5b828201905092915050565b6000612d3a82612ea6565b9150612d4583612ea6565b92508267ffffffffffffffff03821115612d6257612d6161305b565b5b828201905092915050565b6000612d7882612e9c565b9150612d8383612e9c565b925082612d9357612d9261308a565b5b828204905092915050565b6000612da982612e9c565b9150612db483612e9c565b9250817fffffffffffffffffffffffffffffffffffffffffffffffffffffffffffffffff0483118215151615612ded57612dec61305b565b5b828202905092915050565b6000612e0382612e9c565b9150612e0e83612e9c565b925082821015612e2157612e2061305b565b5b828203905092915050565b600073ffffffffffffffffffffffffffffffffffffffff82169050919050565b6000612e5782612e7c565b9050919050565b6000612e6982612e7c565b9050919050565b60008115159050919050565b600073ffffffffffffffffffffffffffffffffffffffff82169050919050565b6000819050919050565b600067ffffffffffffffff82169050919050565b600060ff82169050919050565b82818337600083830152505050565b60005b83811015612ef4578082015181840152602081019050612ed9565b83811115612f03576000848401525b50505050565b6000612f1482612ea6565b91506000821415612f2857612f2761305b565b5b600182039050919050565b60006002820490506001821680612f4b57607f821691505b60208210811415612f5f57612f5e6130b9565b5b50919050565b6000612f78612f738361313b565b612e2c565b9050919050565b612f888261312a565b810181811067ffffffffffffffff82111715612fa757612fa66130e8565b5b80604052505050565b6000612fbb82612e9c565b91507fffffffffffffffffffffffffffffffffffffffffffffffffffffffffffffffff821415612fee57612fed61305b565b5b600182019050919050565b600061300482612ea6565b915067ffffffffffffffff82141561301f5761301e61305b565b5b600182019050919050565b600061303582612ea6565b915061304083612ea6565b9250826130505761304f61308a565b5b828206905092915050565b7f4e487b7100000000000000000000000000000000000000000000000000000000600052601160045260246000fd5b7f4e487b7100000000000000000000000000000000000000000000000000000000600052601260045260246000fd5b7f4e487b7100000000000000000000000000000000000000000000000000000000600052602260045260246000fd5b7f4e487b7100000000000000000000000000000000000000000000000000000000600052604160045260246000fd5b60006131238254612f65565b9050919050565b6000601f19601f8301169050919050565b60008160001c9050919050565b7f47616d65207374617465206973206e6f742076616c6964000000000000000000600082015250565b7f6d6178506c6179657252616e646f6d203e3d2032000000000000000000000000600082015250565b7f6d61784c75636b794e756d62657252616e646f6d203e3d203130000000000000600082015250565b7f436f6e7472616374207761732064697361626c65640000000000000000000000600082015250565b7f6d696e5072696365203e20302e30303500000000000000000000000000000000600082015250565b7f56616c7565206973206e6f742076616c69640000000000000000000000000000600082015250565b7f4e65656420746f2064697361626c652074686520636f6e74726163742066697260008201527f7374000000000000000000000000000000000000000000000000000000000000602082015250565b50565b7f4174206c656173742031206e756d626572000000000000000000000000000000600082015250565b6132c281612e4c565b81146132cd57600080fd5b50565b6132d981612e5e565b81146132e457600080fd5b50565b6132f081612e70565b81146132fb57600080fd5b50565b61330781612e9c565b811461331257600080fd5b50565b61331e81612ea6565b811461332957600080fd5b50565b61333581612eba565b811461334057600080fd5b5056fea26469706673582212206e775f2eaa9b0b73b543105ff83f1e49fad43b4f6591a09c17e11dfb86e66a4964736f6c63430008030033",
  "immutableReferences": {},
  "source": "// SPDX-License-Identifier: MIT\npragma solidity 0.8.3;\n\n/**\nOwned contract\n */\ncontract Owned {\n    address public owner;\n    address public newOwner;\n\n    event OwnershipTransferred(address indexed _from, address indexed _to);\n\n    constructor () {\n        owner = msg.sender;\n    }\n\n    modifier onlyOwner {\n        require(msg.sender == owner);\n        _;\n    }\n\n    function transferOwnership(address _newOwner) public onlyOwner {\n        newOwner = _newOwner;\n    }\n\n    function acceptOwnership() public {\n        require(msg.sender == newOwner);\n        emit OwnershipTransferred(owner, newOwner);\n        owner = newOwner;\n        newOwner = address(0);\n    }\n}\n\ncontract CryptoLott is Owned {\n\n    struct Player {\n        address payable playerAddress;\n        string playerName;\n        uint64[] playerNumbers;\n    }\n\n    enum State {\n        Accepting,\n        Finished\n    }\n\n    uint64 private constant UINT64_MAX = ~uint64(0);\n\n    State private state;\n    Player[] private playerList;\n    address[] private winnerAddressList;\n    uint64 private playerInSession;\n    uint64 private lastLuckyNumber;\n    uint256 private totalFund;\n    uint256 private lastTotalFund;\n\n    address payable private charityAddress;\n    uint256 private minPrice;\n    uint64 private maxPlayerRandom;\n    uint64 private playerRandomPadding;\n    uint64 private maxLuckyNumberRandom;\n    uint64 private luckyNumberRandomPadding;\n    uint8 private charityRate;\n    uint8 private winnerRate;\n    bool private contractActive;\n    bool private hasWinner;\n\n    uint public startRound;\n    uint public endRound;\n\n    // @anomous: Event\n    event PlayerRegisterEvent(address indexed _playerAddress);\n    event GameSessionBeginEvent(uint256 _minPrice, uint64 _playerInSession, uint8 _charityRate, uint8 _winnerRate, uint64 _luckyNumberRange);\n    event GameSessionEndEvent(address[] indexed _winnerAddressList, uint64 _luckyNumber, uint256 _totalReward);\n\n    constructor () {\n        hasWinner = true;\n        contractActive = true;\n        charityAddress = payable(owner);\n        minPrice = 0.01 ether;\n        maxPlayerRandom = 2;\n        playerRandomPadding = 5;\n        maxLuckyNumberRandom = 255;\n        luckyNumberRandomPadding = 0;\n        charityRate = 15;\n        winnerRate = 60;\n        //-------------\n        gameInit();\n    }\n\n    function enableContract(bool status) public onlyOwner {\n        contractActive = status;\n        if (status == false && state == State.Accepting && totalFund > 0 && playerList.length > 0) {\n            finishGame();\n        } else if (status == true) {\n            gameInit();\n        }\n    }\n\n    function upCharityAddress(address payable _charityAddress) public onlyOwner {\n        charityAddress = _charityAddress;\n    }\n\n    function config(uint256 _minPrice, uint64 _maxPlayerRandom,\n        uint64 _maxLuckyNumberRandom, uint8 _charityRate, uint8 _winnerRate) public onlyOwner {\n        require(contractActive == false, \"Need to disable the contract first\");\n        require(_minPrice >= 0.005 ether, \"minPrice > 0.005\");\n        require(_maxPlayerRandom > 1, \"maxPlayerRandom >= 2\");\n        require(_maxLuckyNumberRandom > 9, \"maxLuckyNumberRandom >= 10\");\n        minPrice = _minPrice;\n        maxPlayerRandom = _maxPlayerRandom;\n        playerRandomPadding = 5;\n        maxLuckyNumberRandom = _maxLuckyNumberRandom;\n        luckyNumberRandomPadding = 0;\n        charityRate = _charityRate;\n        winnerRate = _winnerRate;\n    }\n\n    function gameInit() private {\n        require(contractActive == true, \"Contract was disabled\");\n        if (hasWinner) {\n            totalFund = 0;\n            hasWinner = false;\n        }\n        startRound = block.timestamp;\n        delete playerList;\n        playerInSession = randomMaxPlayer();\n        state = State.Accepting;\n        emit GameSessionBeginEvent(minPrice, playerInSession, charityRate, winnerRate, maxLuckyNumberRandom);\n    }\n\n    // Register player\n    function playerRegister(string memory name, uint64[] memory numbers) payable public {\n        require(contractActive == true, \"Contract was disabled\");\n        require(state == State.Accepting, \"Game state is not valid\");\n        require(numbers.length > 0, \"At least 1 number\");\n        require(msg.value >= minPrice * numbers.length, \"Value is not valid\");\n\n        for (uint i = 0; i < playerList.length; i++) {\n            require(playerList[i].playerAddress != msg.sender);\n            for (uint j = 0; j < playerList[i].playerNumbers.length; j++) {\n                require(playerList[i].playerNumbers[j] <= maxLuckyNumberRandom);\n            }\n        }\n\n        totalFund += msg.value;\n        Player memory player = Player(payable(msg.sender), name, numbers);\n        playerList.push(player);\n        emit PlayerRegisterEvent(player.playerAddress);\n\n        if (playerList.length >= playerInSession) {\n            finishGame();\n\n            if (contractActive) {\n                // Init new game session\n                gameInit();\n            }\n        }\n    }\n\n    function getMinPrice() public view returns (uint256) {\n        return uint256(minPrice);\n    }\n\n    function getCountPlayer() public view returns (uint64) {\n        return uint64(playerList.length);\n    }\n\n    function getMaxPlayer() public view returns (uint64) {\n        return uint64(playerInSession);\n    }\n\n    function getMaxLuckyRandomNumber() public view returns (uint64) {\n        return uint64(maxLuckyNumberRandom);\n    }\n\n    function getLastTotalFund() public view returns (uint256) {\n        return uint256(lastTotalFund);\n    }\n\n    function getLastLuckyNumber() public view returns (uint64) {\n        return uint64(lastLuckyNumber);\n    }\n\n    function getCurrentFund() public view returns (uint256) {\n        return uint256(totalFund);\n    }\n\n    function getCharityAddress() public view returns (address) {\n        return address(charityAddress);\n    }\n\n    function getOwnerAddress() public view returns (address) {\n        return address(owner);\n    }\n\n    function getPlayerInfo(address playerAddress) public view returns (string memory playerName, uint64[] memory playerNumbers) {\n        Player memory player;\n        for (uint i = 0; i < playerList.length; i++) {\n            if (playerList[i].playerAddress == playerAddress) {\n                player = playerList[i];\n                break;\n            }\n        }\n        return (player.playerName, player.playerNumbers);\n    }\n\n    function finishGame() private {\n        state = State.Finished;\n        // Finish session && find winner\n        lastTotalFund = totalFund;\n        lastLuckyNumber = randomLuckyNumber();\n\n        delete winnerAddressList;\n        // Determine winner\n        for (uint i = 0; i < playerList.length; i++) {\n            for (uint j = 0; j < playerList[i].playerNumbers.length; j++) {\n                if (playerList[i].playerNumbers[j] == lastLuckyNumber) {\n                    winnerAddressList.push(playerList[i].playerAddress);\n                }\n            }\n        }\n\n        // Distribute Funds\n        uint256 winnerFunds = 0;\n        bool success = false;\n\n        if (winnerAddressList.length > 0) {\n            uint256 winnerFund = totalFund * winnerRate / 100 / winnerAddressList.length;\n            for (uint i = 0; i < winnerAddressList.length; i++) {\n                (success,) = winnerAddressList[i].call{value : winnerFund}(\"\");\n                if (!success) {\n                    revert();\n                }\n                winnerFunds += winnerFund;\n            }\n            hasWinner = true;\n        } else {\n            winnerFunds = totalFund * 50 / 100;\n        }\n\n        uint256 charityFund = totalFund * charityRate / 100;\n        if (!hasWinner) {\n            charityFund += totalFund * 5 / 100;\n        }\n\n        (success,) = charityAddress.call{value : charityFund}(\"\");\n        if (!success) {\n            revert();\n        }\n        (success,) = owner.call{value : totalFund - winnerFunds - charityFund}(\"\");\n        if (!success) {\n            revert();\n        }\n        totalFund = winnerFunds;\n\n        endRound = block.timestamp;\n        if (endRound - startRound < 2 days) {\n            if (playerRandomPadding < UINT64_MAX) playerRandomPadding ++;\n            if (luckyNumberRandomPadding < UINT64_MAX) luckyNumberRandomPadding ++;\n            if (maxPlayerRandom < 1000) maxPlayerRandom ++;\n        } else if (playerRandomPadding > 5) {\n            playerRandomPadding --;\n        }\n\n        emit GameSessionEndEvent(winnerAddressList, lastLuckyNumber, lastTotalFund);\n    }\n\n    function toBytes(uint256 x) internal pure returns (bytes memory b) {\n        b = new bytes(32);\n        assembly {mstore(add(b, 32), x)}\n    }\n\n    function random() private view returns (uint64) {\n        uint64 randomNumber = uint64(uint256(keccak256(toBytes(block.timestamp + block.difficulty))));\n        for (uint i = 0; i < playerList.length; i++) {\n            for (uint j = 0; j < playerList[i].playerNumbers.length; j++) {\n                randomNumber ^= playerList[i].playerNumbers[j];\n            }\n        }\n        return randomNumber;\n    }\n\n    function randomLuckyNumber() private view returns (uint64) {\n        return random() % (maxLuckyNumberRandom + 1 + luckyNumberRandomPadding);\n    }\n\n    function randomMaxPlayer() private view returns (uint64) {\n        return (random() % (maxPlayerRandom + 1)) + playerRandomPadding;\n    }\n}\n",
  "sourcePath": "/Volumes/Data/Projects/_self/cryts/ethereum-smartcontracts/truffle/smartcontracts/contracts/CryptoLott.sol",
  "compiler": {
    "name": "solc",
    "version": "0.8.3+commit.8d00100c.Emscripten.clang"
  },
  "schemaVersion": "3.3.4",
  "updatedAt": "2021-03-31T06:11:34.477Z",
  "networkType": "ethereum",
  "devdoc": {
    "kind": "dev",
    "methods": {},
    "version": 1
  },
  "userdoc": {
    "kind": "user",
    "methods": {},
    "version": 1
  }
}