{
  "contractName": "ERC20Token",
  "abi": [
    {
      "inputs": [
        {
          "internalType": "string",
          "name": "_name",
          "type": "string"
        },
        {
          "internalType": "string",
          "name": "_symbol",
          "type": "string"
        },
        {
          "internalType": "uint8",
          "name": "_decimals",
          "type": "uint8"
        },
        {
          "internalType": "uint256",
          "name": "_initialSupply",
          "type": "uint256"
        }
      ],
      "stateMutability": "nonpayable",
      "type": "constructor"
    },
    {
      "anonymous": false,
      "inputs": [
        {
          "indexed": true,
          "internalType": "address",
          "name": "_owner",
          "type": "address"
        },
        {
          "indexed": true,
          "internalType": "address",
          "name": "_spender",
          "type": "address"
        },
        {
          "indexed": false,
          "internalType": "uint256",
          "name": "_value",
          "type": "uint256"
        }
      ],
      "name": "Approval",
      "type": "event"
    },
    {
      "anonymous": false,
      "inputs": [
        {
          "indexed": true,
          "internalType": "address",
          "name": "from",
          "type": "address"
        },
        {
          "indexed": false,
          "internalType": "uint256",
          "name": "value",
          "type": "uint256"
        }
      ],
      "name": "Burn",
      "type": "event"
    },
    {
      "anonymous": false,
      "inputs": [
        {
          "indexed": true,
          "internalType": "address",
          "name": "_from",
          "type": "address"
        },
        {
          "indexed": true,
          "internalType": "address",
          "name": "_to",
          "type": "address"
        }
      ],
      "name": "OwnershipTransferred",
      "type": "event"
    },
    {
      "anonymous": false,
      "inputs": [
        {
          "indexed": true,
          "internalType": "address",
          "name": "_from",
          "type": "address"
        },
        {
          "indexed": true,
          "internalType": "address",
          "name": "_to",
          "type": "address"
        },
        {
          "indexed": false,
          "internalType": "uint256",
          "name": "_value",
          "type": "uint256"
        }
      ],
      "name": "Transfer",
      "type": "event"
    },
    {
      "inputs": [],
      "name": "acceptOwnership",
      "outputs": [],
      "stateMutability": "nonpayable",
      "type": "function"
    },
    {
      "inputs": [
        {
          "internalType": "address",
          "name": "",
          "type": "address"
        },
        {
          "internalType": "address",
          "name": "",
          "type": "address"
        }
      ],
      "name": "allowed",
      "outputs": [
        {
          "internalType": "uint256",
          "name": "",
          "type": "uint256"
        }
      ],
      "stateMutability": "view",
      "type": "function"
    },
    {
      "inputs": [
        {
          "internalType": "address",
          "name": "",
          "type": "address"
        }
      ],
      "name": "balances",
      "outputs": [
        {
          "internalType": "uint256",
          "name": "",
          "type": "uint256"
        }
      ],
      "stateMutability": "view",
      "type": "function"
    },
    {
      "inputs": [],
      "name": "decimals",
      "outputs": [
        {
          "internalType": "uint8",
          "name": "",
          "type": "uint8"
        }
      ],
      "stateMutability": "view",
      "type": "function"
    },
    {
      "inputs": [],
      "name": "name",
      "outputs": [
        {
          "internalType": "string",
          "name": "",
          "type": "string"
        }
      ],
      "stateMutability": "view",
      "type": "function"
    },
    {
      "inputs": [],
      "name": "newOwner",
      "outputs": [
        {
          "internalType": "address",
          "name": "",
          "type": "address"
        }
      ],
      "stateMutability": "view",
      "type": "function"
    },
    {
      "inputs": [],
      "name": "owner",
      "outputs": [
        {
          "internalType": "address",
          "name": "",
          "type": "address"
        }
      ],
      "stateMutability": "view",
      "type": "function"
    },
    {
      "inputs": [],
      "name": "symbol",
      "outputs": [
        {
          "internalType": "string",
          "name": "",
          "type": "string"
        }
      ],
      "stateMutability": "view",
      "type": "function"
    },
    {
      "inputs": [],
      "name": "totalSupply",
      "outputs": [
        {
          "internalType": "uint256",
          "name": "",
          "type": "uint256"
        }
      ],
      "stateMutability": "view",
      "type": "function"
    },
    {
      "inputs": [
        {
          "internalType": "address",
          "name": "_newOwner",
          "type": "address"
        }
      ],
      "name": "transferOwnership",
      "outputs": [],
      "stateMutability": "nonpayable",
      "type": "function"
    },
    {
      "inputs": [
        {
          "internalType": "address",
          "name": "_owner",
          "type": "address"
        }
      ],
      "name": "balanceOf",
      "outputs": [
        {
          "internalType": "uint256",
          "name": "balance",
          "type": "uint256"
        }
      ],
      "stateMutability": "view",
      "type": "function"
    },
    {
      "inputs": [
        {
          "internalType": "address",
          "name": "_to",
          "type": "address"
        },
        {
          "internalType": "uint256",
          "name": "_value",
          "type": "uint256"
        }
      ],
      "name": "transfer",
      "outputs": [
        {
          "internalType": "bool",
          "name": "success",
          "type": "bool"
        }
      ],
      "stateMutability": "nonpayable",
      "type": "function"
    },
    {
      "inputs": [
        {
          "internalType": "address",
          "name": "_from",
          "type": "address"
        },
        {
          "internalType": "address",
          "name": "_to",
          "type": "address"
        },
        {
          "internalType": "uint256",
          "name": "_value",
          "type": "uint256"
        }
      ],
      "name": "transferFrom",
      "outputs": [
        {
          "internalType": "bool",
          "name": "success",
          "type": "bool"
        }
      ],
      "stateMutability": "nonpayable",
      "type": "function"
    },
    {
      "inputs": [
        {
          "internalType": "address",
          "name": "_spender",
          "type": "address"
        },
        {
          "internalType": "uint256",
          "name": "_value",
          "type": "uint256"
        }
      ],
      "name": "approve",
      "outputs": [
        {
          "internalType": "bool",
          "name": "success",
          "type": "bool"
        }
      ],
      "stateMutability": "nonpayable",
      "type": "function"
    },
    {
      "inputs": [
        {
          "internalType": "address",
          "name": "_owner",
          "type": "address"
        },
        {
          "internalType": "address",
          "name": "_spender",
          "type": "address"
        }
      ],
      "name": "allowance",
      "outputs": [
        {
          "internalType": "uint256",
          "name": "remaining",
          "type": "uint256"
        }
      ],
      "stateMutability": "view",
      "type": "function"
    },
    {
      "inputs": [
        {
          "internalType": "address",
          "name": "tokenAddress",
          "type": "address"
        },
        {
          "internalType": "uint256",
          "name": "tokens",
          "type": "uint256"
        }
      ],
      "name": "transferAnyERC20Token",
      "outputs": [
        {
          "internalType": "bool",
          "name": "success",
          "type": "bool"
        }
      ],
      "stateMutability": "nonpayable",
      "type": "function"
    },
    {
      "inputs": [
        {
          "internalType": "address",
          "name": "_spender",
          "type": "address"
        },
        {
          "internalType": "uint256",
          "name": "_value",
          "type": "uint256"
        },
        {
          "internalType": "bytes",
          "name": "_extraData",
          "type": "bytes"
        }
      ],
      "name": "approveAndCall",
      "outputs": [
        {
          "internalType": "bool",
          "name": "success",
          "type": "bool"
        }
      ],
      "stateMutability": "nonpayable",
      "type": "function"
    },
    {
      "inputs": [
        {
          "internalType": "uint256",
          "name": "_value",
          "type": "uint256"
        }
      ],
      "name": "burn",
      "outputs": [
        {
          "internalType": "bool",
          "name": "success",
          "type": "bool"
        }
      ],
      "stateMutability": "nonpayable",
      "type": "function"
    },
    {
      "inputs": [
        {
          "internalType": "address",
          "name": "_from",
          "type": "address"
        },
        {
          "internalType": "uint256",
          "name": "_value",
          "type": "uint256"
        }
      ],
      "name": "burnFrom",
      "outputs": [
        {
          "internalType": "bool",
          "name": "success",
          "type": "bool"
        }
      ],
      "stateMutability": "nonpayable",
      "type": "function"
    }
  ],
  "bytecode": "0x60806040523480156200001157600080fd5b50604051620021e0380380620021e0833981810160405281019062000037919062000299565b33600460006101000a81548173ffffffffffffffffffffffffffffffffffffffff021916908373ffffffffffffffffffffffffffffffffffffffff16021790555083600090805190602001906200009092919062000149565b508260019080519060200190620000a992919062000149565b5081600260006101000a81548160ff021916908360ff160217905550600260009054906101000a900460ff1660ff16600a620000e69190620003f1565b81620000f391906200052e565b600381905550600354600660003373ffffffffffffffffffffffffffffffffffffffff1673ffffffffffffffffffffffffffffffffffffffff168152602001908152602001600020819055505050505062000727565b8280546200015790620005dc565b90600052602060002090601f0160209004810192826200017b5760008555620001c7565b82601f106200019657805160ff1916838001178555620001c7565b82800160010185558215620001c7579182015b82811115620001c6578251825591602001919060010190620001a9565b5b509050620001d69190620001da565b5090565b5b80821115620001f5576000816000905550600101620001db565b5090565b6000620002106200020a8462000360565b62000337565b9050828152602081018484840111156200022957600080fd5b62000236848285620005a6565b509392505050565b600082601f8301126200025057600080fd5b815162000262848260208601620001f9565b91505092915050565b6000815190506200027c81620006f3565b92915050565b60008151905062000293816200070d565b92915050565b60008060008060808587031215620002b057600080fd5b600085015167ffffffffffffffff811115620002cb57600080fd5b620002d9878288016200023e565b945050602085015167ffffffffffffffff811115620002f757600080fd5b62000305878288016200023e565b9350506040620003188782880162000282565b92505060606200032b878288016200026b565b91505092959194509250565b60006200034362000356565b905062000351828262000612565b919050565b6000604051905090565b600067ffffffffffffffff8211156200037e576200037d620006a6565b5b6200038982620006d5565b9050602081019050919050565b6000808291508390505b6001851115620003e857808604811115620003c057620003bf62000648565b5b6001851615620003d05780820291505b8081029050620003e085620006e6565b9450620003a0565b94509492505050565b6000620003fe826200058f565b91506200040b836200058f565b92506200043a7fffffffffffffffffffffffffffffffffffffffffffffffffffffffffffffffff848462000442565b905092915050565b60008262000454576001905062000527565b8162000464576000905062000527565b81600181146200047d57600281146200048857620004be565b600191505062000527565b60ff8411156200049d576200049c62000648565b5b8360020a915084821115620004b757620004b662000648565b5b5062000527565b5060208310610133831016604e8410600b8410161715620004f85782820a905083811115620004f257620004f162000648565b5b62000527565b62000507848484600162000396565b9250905081840481111562000521576200052062000648565b5b81810290505b9392505050565b60006200053b826200058f565b915062000548836200058f565b9250817fffffffffffffffffffffffffffffffffffffffffffffffffffffffffffffffff048311821515161562000584576200058362000648565b5b828202905092915050565b6000819050919050565b600060ff82169050919050565b60005b83811015620005c6578082015181840152602081019050620005a9565b83811115620005d6576000848401525b50505050565b60006002820490506001821680620005f557607f821691505b602082108114156200060c576200060b62000677565b5b50919050565b6200061d82620006d5565b810181811067ffffffffffffffff821117156200063f576200063e620006a6565b5b80604052505050565b7f4e487b7100000000000000000000000000000000000000000000000000000000600052601160045260246000fd5b7f4e487b7100000000000000000000000000000000000000000000000000000000600052602260045260246000fd5b7f4e487b7100000000000000000000000000000000000000000000000000000000600052604160045260246000fd5b6000601f19601f8301169050919050565b60008160011c9050919050565b620006fe816200058f565b81146200070a57600080fd5b50565b620007188162000599565b81146200072457600080fd5b50565b611aa980620007376000396000f3fe608060405234801561001057600080fd5b50600436106101215760003560e01c806379ba5097116100ad578063cae9ca5111610071578063cae9ca5114610346578063d4ee1d9014610376578063dc39d06d14610394578063dd62ed3e146103c4578063f2fde38b146103f457610121565b806379ba5097146102a057806379cc6790146102aa5780638da5cb5b146102da57806395d89b41146102f8578063a9059cbb1461031657610121565b806327e235e3116100f457806327e235e3146101c2578063313ce567146101f257806342966c68146102105780635c6581651461024057806370a082311461027057610121565b806306fdde0314610126578063095ea7b31461014457806318160ddd1461017457806323b872dd14610192575b600080fd5b61012e610410565b60405161013b9190611726565b60405180910390f35b61015e600480360381019061015991906114d8565b61049e565b60405161016b919061170b565b60405180910390f35b61017c610590565b6040516101899190611748565b60405180910390f35b6101ac60048036038101906101a79190611489565b610596565b6040516101b9919061170b565b60405180910390f35b6101dc60048036038101906101d79190611424565b6106ca565b6040516101e99190611748565b60405180910390f35b6101fa6106e2565b6040516102079190611763565b60405180910390f35b61022a600480360381019061022591906115a4565b6106f5565b604051610237919061170b565b60405180910390f35b61025a6004803603810190610255919061144d565b610809565b6040516102679190611748565b60405180910390f35b61028a60048036038101906102859190611424565b61082e565b6040516102979190611748565b60405180910390f35b6102a8610877565b005b6102c460048036038101906102bf91906114d8565b610a16565b6040516102d1919061170b565b60405180910390f35b6102e2610c47565b6040516102ef919061167b565b60405180910390f35b610300610c6d565b60405161030d9190611726565b60405180910390f35b610330600480360381019061032b91906114d8565b610cfb565b60405161033d919061170b565b60405180910390f35b610360600480360381019061035b9190611514565b610d12565b60405161036d919061170b565b60405180910390f35b61037e610da0565b60405161038b919061167b565b60405180910390f35b6103ae60048036038101906103a991906114d8565b610dc6565b6040516103bb919061170b565b60405180910390f35b6103de60048036038101906103d9919061144d565b610ed9565b6040516103eb9190611748565b60405180910390f35b61040e60048036038101906104099190611424565b610f60565b005b6000805461041d9061192d565b80601f01602080910402602001604051908101604052809291908181526020018280546104499061192d565b80156104965780601f1061046b57610100808354040283529160200191610496565b820191906000526020600020905b81548152906001019060200180831161047957829003601f168201915b505050505081565b600081600760003373ffffffffffffffffffffffffffffffffffffffff1673ffffffffffffffffffffffffffffffffffffffff16815260200190815260200160002060008573ffffffffffffffffffffffffffffffffffffffff1673ffffffffffffffffffffffffffffffffffffffff168152602001908152602001600020819055508273ffffffffffffffffffffffffffffffffffffffff163373ffffffffffffffffffffffffffffffffffffffff167f8c5be1e5ebec7d5bd14f71427d1e84f3dd0314c0f7b2291e5b200ac8c7c3b9258460405161057e9190611748565b60405180910390a36001905092915050565b60035481565b6000600760008573ffffffffffffffffffffffffffffffffffffffff1673ffffffffffffffffffffffffffffffffffffffff16815260200190815260200160002060003373ffffffffffffffffffffffffffffffffffffffff1673ffffffffffffffffffffffffffffffffffffffff1681526020019081526020016000205482111561062157600080fd5b81600760008673ffffffffffffffffffffffffffffffffffffffff1673ffffffffffffffffffffffffffffffffffffffff16815260200190815260200160002060003373ffffffffffffffffffffffffffffffffffffffff1673ffffffffffffffffffffffffffffffffffffffff16815260200190815260200160002060008282546106ad9190611862565b925050819055506106bf848484610ffe565b600190509392505050565b60066020528060005260406000206000915090505481565b600260009054906101000a900460ff1681565b600081600660003373ffffffffffffffffffffffffffffffffffffffff1673ffffffffffffffffffffffffffffffffffffffff16815260200190815260200160002054101561074357600080fd5b81600660003373ffffffffffffffffffffffffffffffffffffffff1673ffffffffffffffffffffffffffffffffffffffff16815260200190815260200160002060008282546107929190611862565b9250508190555081600360008282546107ab9190611862565b925050819055503373ffffffffffffffffffffffffffffffffffffffff167fcc16f5dbb4873280815c1ee09dbd06736cffcc184412cf7a71a0fdb75d397ca5836040516107f89190611748565b60405180910390a260019050919050565b6007602052816000526040600020602052806000526040600020600091509150505481565b6000600660008373ffffffffffffffffffffffffffffffffffffffff1673ffffffffffffffffffffffffffffffffffffffff168152602001908152602001600020549050919050565b600560009054906101000a900473ffffffffffffffffffffffffffffffffffffffff1673ffffffffffffffffffffffffffffffffffffffff163373ffffffffffffffffffffffffffffffffffffffff16146108d157600080fd5b600560009054906101000a900473ffffffffffffffffffffffffffffffffffffffff1673ffffffffffffffffffffffffffffffffffffffff16600460009054906101000a900473ffffffffffffffffffffffffffffffffffffffff1673ffffffffffffffffffffffffffffffffffffffff167f8be0079c531659141344cd1fd0a4f28419497f9722a3daafe3b4186f6b6457e060405160405180910390a3600560009054906101000a900473ffffffffffffffffffffffffffffffffffffffff16600460006101000a81548173ffffffffffffffffffffffffffffffffffffffff021916908373ffffffffffffffffffffffffffffffffffffffff1602179055506000600560006101000a81548173ffffffffffffffffffffffffffffffffffffffff021916908373ffffffffffffffffffffffffffffffffffffffff160217905550565b600081600660008573ffffffffffffffffffffffffffffffffffffffff1673ffffffffffffffffffffffffffffffffffffffff168152602001908152602001600020541015610a6457600080fd5b600760008473ffffffffffffffffffffffffffffffffffffffff1673ffffffffffffffffffffffffffffffffffffffff16815260200190815260200160002060003373ffffffffffffffffffffffffffffffffffffffff1673ffffffffffffffffffffffffffffffffffffffff16815260200190815260200160002054821115610aed57600080fd5b81600660008573ffffffffffffffffffffffffffffffffffffffff1673ffffffffffffffffffffffffffffffffffffffff1681526020019081526020016000206000828254610b3c9190611862565b9250508190555081600760008573ffffffffffffffffffffffffffffffffffffffff1673ffffffffffffffffffffffffffffffffffffffff16815260200190815260200160002060003373ffffffffffffffffffffffffffffffffffffffff1673ffffffffffffffffffffffffffffffffffffffff1681526020019081526020016000206000828254610bcf9190611862565b925050819055508160036000828254610be89190611862565b925050819055508273ffffffffffffffffffffffffffffffffffffffff167fcc16f5dbb4873280815c1ee09dbd06736cffcc184412cf7a71a0fdb75d397ca583604051610c359190611748565b60405180910390a26001905092915050565b600460009054906101000a900473ffffffffffffffffffffffffffffffffffffffff1681565b60018054610c7a9061192d565b80601f0160208091040260200160405190810160405280929190818152602001828054610ca69061192d565b8015610cf35780601f10610cc857610100808354040283529160200191610cf3565b820191906000526020600020905b815481529060010190602001808311610cd657829003601f168201915b505050505081565b6000610d08338484610ffe565b6001905092915050565b600080849050610d22858561049e565b508073ffffffffffffffffffffffffffffffffffffffff16638f4ffcb1338630876040518563ffffffff1660e01b8152600401610d6294939291906116bf565b600060405180830381600087803b158015610d7c57600080fd5b505af1158015610d90573d6000803e3d6000fd5b5050505060019150509392505050565b600560009054906101000a900473ffffffffffffffffffffffffffffffffffffffff1681565b6000600460009054906101000a900473ffffffffffffffffffffffffffffffffffffffff1673ffffffffffffffffffffffffffffffffffffffff163373ffffffffffffffffffffffffffffffffffffffff1614610e2257600080fd5b8273ffffffffffffffffffffffffffffffffffffffff1663a9059cbb600460009054906101000a900473ffffffffffffffffffffffffffffffffffffffff16846040518363ffffffff1660e01b8152600401610e7f929190611696565b602060405180830381600087803b158015610e9957600080fd5b505af1158015610ead573d6000803e3d6000fd5b505050506040513d601f19601f82011682018060405250810190610ed1919061157b565b905092915050565b6000600760008473ffffffffffffffffffffffffffffffffffffffff1673ffffffffffffffffffffffffffffffffffffffff16815260200190815260200160002060008373ffffffffffffffffffffffffffffffffffffffff1673ffffffffffffffffffffffffffffffffffffffff16815260200190815260200160002054905092915050565b600460009054906101000a900473ffffffffffffffffffffffffffffffffffffffff1673ffffffffffffffffffffffffffffffffffffffff163373ffffffffffffffffffffffffffffffffffffffff1614610fba57600080fd5b80600560006101000a81548173ffffffffffffffffffffffffffffffffffffffff021916908373ffffffffffffffffffffffffffffffffffffffff16021790555050565b600073ffffffffffffffffffffffffffffffffffffffff168273ffffffffffffffffffffffffffffffffffffffff16141561103857600080fd5b80600660008573ffffffffffffffffffffffffffffffffffffffff1673ffffffffffffffffffffffffffffffffffffffff16815260200190815260200160002054101561108457600080fd5b600660008373ffffffffffffffffffffffffffffffffffffffff1673ffffffffffffffffffffffffffffffffffffffff1681526020019081526020016000205481600660008573ffffffffffffffffffffffffffffffffffffffff1673ffffffffffffffffffffffffffffffffffffffff1681526020019081526020016000205461110f919061180c565b1161111957600080fd5b6000600660008473ffffffffffffffffffffffffffffffffffffffff1673ffffffffffffffffffffffffffffffffffffffff16815260200190815260200160002054600660008673ffffffffffffffffffffffffffffffffffffffff1673ffffffffffffffffffffffffffffffffffffffff168152602001908152602001600020546111a5919061180c565b905081600660008673ffffffffffffffffffffffffffffffffffffffff1673ffffffffffffffffffffffffffffffffffffffff16815260200190815260200160002060008282546111f69190611862565b9250508190555081600660008573ffffffffffffffffffffffffffffffffffffffff1673ffffffffffffffffffffffffffffffffffffffff168152602001908152602001600020600082825461124c919061180c565b925050819055508273ffffffffffffffffffffffffffffffffffffffff168473ffffffffffffffffffffffffffffffffffffffff167fddf252ad1be2c89b69c2b068fc378daa952ba7f163c4a11628f55a4df523b3ef846040516112b09190611748565b60405180910390a380600660008573ffffffffffffffffffffffffffffffffffffffff1673ffffffffffffffffffffffffffffffffffffffff16815260200190815260200160002054600660008773ffffffffffffffffffffffffffffffffffffffff1673ffffffffffffffffffffffffffffffffffffffff16815260200190815260200160002054611343919061180c565b14611377577f4e487b7100000000000000000000000000000000000000000000000000000000600052600160045260246000fd5b50505050565b600061139061138b846117a3565b61177e565b9050828152602081018484840111156113a857600080fd5b6113b38482856118eb565b509392505050565b6000813590506113ca81611a2e565b92915050565b6000815190506113df81611a45565b92915050565b600082601f8301126113f657600080fd5b813561140684826020860161137d565b91505092915050565b60008135905061141e81611a5c565b92915050565b60006020828403121561143657600080fd5b6000611444848285016113bb565b91505092915050565b6000806040838503121561146057600080fd5b600061146e858286016113bb565b925050602061147f858286016113bb565b9150509250929050565b60008060006060848603121561149e57600080fd5b60006114ac868287016113bb565b93505060206114bd868287016113bb565b92505060406114ce8682870161140f565b9150509250925092565b600080604083850312156114eb57600080fd5b60006114f9858286016113bb565b925050602061150a8582860161140f565b9150509250929050565b60008060006060848603121561152957600080fd5b6000611537868287016113bb565b93505060206115488682870161140f565b925050604084013567ffffffffffffffff81111561156557600080fd5b611571868287016113e5565b9150509250925092565b60006020828403121561158d57600080fd5b600061159b848285016113d0565b91505092915050565b6000602082840312156115b657600080fd5b60006115c48482850161140f565b91505092915050565b6115d681611896565b82525050565b6115e5816118a8565b82525050565b60006115f6826117d4565b61160081856117ea565b93506116108185602086016118fa565b61161981611a1d565b840191505092915050565b600061162f826117df565b61163981856117fb565b93506116498185602086016118fa565b61165281611a1d565b840191505092915050565b611666816118d4565b82525050565b611675816118de565b82525050565b600060208201905061169060008301846115cd565b92915050565b60006040820190506116ab60008301856115cd565b6116b8602083018461165d565b9392505050565b60006080820190506116d460008301876115cd565b6116e1602083018661165d565b6116ee60408301856115cd565b818103606083015261170081846115eb565b905095945050505050565b600060208201905061172060008301846115dc565b92915050565b600060208201905081810360008301526117408184611624565b905092915050565b600060208201905061175d600083018461165d565b92915050565b6000602082019050611778600083018461166c565b92915050565b6000611788611799565b9050611794828261195f565b919050565b6000604051905090565b600067ffffffffffffffff8211156117be576117bd6119ee565b5b6117c782611a1d565b9050602081019050919050565b600081519050919050565b600081519050919050565b600082825260208201905092915050565b600082825260208201905092915050565b6000611817826118d4565b9150611822836118d4565b9250827fffffffffffffffffffffffffffffffffffffffffffffffffffffffffffffffff0382111561185757611856611990565b5b828201905092915050565b600061186d826118d4565b9150611878836118d4565b92508282101561188b5761188a611990565b5b828203905092915050565b60006118a1826118b4565b9050919050565b60008115159050919050565b600073ffffffffffffffffffffffffffffffffffffffff82169050919050565b6000819050919050565b600060ff82169050919050565b82818337600083830152505050565b60005b838110156119185780820151818401526020810190506118fd565b83811115611927576000848401525b50505050565b6000600282049050600182168061194557607f821691505b60208210811415611959576119586119bf565b5b50919050565b61196882611a1d565b810181811067ffffffffffffffff82111715611987576119866119ee565b5b80604052505050565b7f4e487b7100000000000000000000000000000000000000000000000000000000600052601160045260246000fd5b7f4e487b7100000000000000000000000000000000000000000000000000000000600052602260045260246000fd5b7f4e487b7100000000000000000000000000000000000000000000000000000000600052604160045260246000fd5b6000601f19601f8301169050919050565b611a3781611896565b8114611a4257600080fd5b50565b611a4e816118a8565b8114611a5957600080fd5b50565b611a65816118d4565b8114611a7057600080fd5b5056fea264697066735822122032a9d8eecd0b2e8854f16745ff211d1413ad7e78dc24458ffa9f02acf223daf364736f6c63430008030033",
  "immutableReferences": {},
  "source": "// SPDX-License-Identifier: MIT\n/**\n *Submitted for verification at Etherscan.io on 2018-03-27\n*/\n\npragma solidity 0.8.3;\n\n/**\nNhancv token contract\n\nSymbol          : NToken2\nName            : NToken2\nTotal supply    : 1000000000\nDecimals        : 8\n\n*/\n\n// ---------------------------------------------------------------------\n// ERC-20 Token Standard Interface\n// https://github.com/ethereum/EIPs/blob/master/EIPS/eip-20.md\n// ---------------------------------------------------------------------\nabstract contract ERC20Interface {\n    /**\n    Returns the name of the token - e.g. \"MyToken\"\n     */\n    string public name;\n    /**\n    Returns the symbol of the token. E.g. \"HIX\".\n     */\n    string public symbol;\n    /**\n    Returns the number of decimals the token uses - e. g. 8\n     */\n    uint8 public decimals;\n    /**\n    Returns the total token supply.\n     */\n    uint256 public totalSupply;\n    /**\n    Returns the account balance of another account with address _owner.\n     */\n    function balanceOf(address _owner) virtual public view returns (uint256 balance);\n    /**\n    Transfers _value amount of tokens to address _to, and MUST fire the Transfer event.\n    The function SHOULD throw if the _from account balance does not have enough tokens to spend.\n     */\n    function transfer(address _to, uint256 _value) virtual public returns (bool success);\n    /**\n    Transfers _value amount of tokens from address _from to address _to, and MUST fire the Transfer event.\n     */\n    function transferFrom(address _from, address _to, uint256 _value) virtual public returns (bool success);\n    /**\n    Allows _spender to withdraw from your account multiple times, up to the _value amount.\n    If this function is called again it overwrites the current allowance with _value.\n     */\n    function approve(address _spender, uint256 _value) virtual public returns (bool success);\n    /**\n    Returns the amount which _spender is still allowed to withdraw from _owner.\n     */\n    function allowance(address _owner, address _spender) virtual public view returns (uint256 remaining);\n    /**\n    MUST trigger when tokens are transferred, including zero value transfers.\n     */\n    event Transfer(address indexed _from, address indexed _to, uint256 _value);\n    /**\n    MUST trigger on any successful call to approve(address _spender, uint256 _value).\n      */\n    event Approval(address indexed _owner, address indexed _spender, uint256 _value);\n}\n\n/**\nOwned contract\n */\ncontract Owned {\n    address public owner;\n    address public newOwner;\n\n    event OwnershipTransferred(address indexed _from, address indexed _to);\n\n    constructor () {\n        owner = msg.sender;\n    }\n\n    modifier onlyOwner {\n        require(msg.sender == owner);\n        _;\n    }\n\n    function transferOwnership(address _newOwner) public onlyOwner {\n        newOwner = _newOwner;\n    }\n\n    function acceptOwnership() public {\n        require(msg.sender == newOwner);\n        emit OwnershipTransferred(owner, newOwner);\n        owner = newOwner;\n        newOwner = address(0);\n    }\n}\n\n/**\nFunction to receive approval and execute function in one call.\n */\nabstract contract TokenRecipient {\n    function receiveApproval(address _from, uint256 _value, address _token, bytes memory _extraData) virtual public;\n}\n\n/**\nERC20Token implement\n */\ncontract ERC20Token is ERC20Interface, Owned {\n\n    constructor(string memory _name, string memory _symbol, uint8 _decimals, uint256 _initialSupply) Owned() {\n        name = _name;\n        symbol = _symbol;\n        decimals = _decimals;\n        totalSupply = _initialSupply * 10 ** uint256(decimals);\n        balances[msg.sender] = totalSupply;\n    }\n\n    mapping(address => uint256) public balances;\n    mapping(address => mapping(address => uint256)) public allowed;\n\n    // This notifies clients about the amount burnt\n    event Burn(address indexed from, uint256 value);\n\n    function balanceOf(address _owner) override public view returns (uint256 balance) {\n        return balances[_owner];\n    }\n\n    function transfer(address _to, uint256 _value) override public returns (bool success) {\n        _transfer(msg.sender, _to, _value);\n        return true;\n    }\n\n    function transferFrom(address _from, address _to, uint256 _value) override public returns (bool success) {\n        require(_value <= allowed[_from][msg.sender]);\n        allowed[_from][msg.sender] -= _value;\n        _transfer(_from, _to, _value);\n        return true;\n    }\n\n    function approve(address _spender, uint256 _value) override public returns (bool success) {\n        allowed[msg.sender][_spender] = _value;\n        emit Approval(msg.sender, _spender, _value);\n        return true;\n    }\n\n    function allowance(address _owner, address _spender) override public view returns (uint256 remaining) {\n        return allowed[_owner][_spender];\n    }\n\n    /**\n    Owner can transfer out any accidentally sent ERC20 tokens\n     */\n    function transferAnyERC20Token(address tokenAddress, uint tokens) public onlyOwner returns (bool success) {\n        return ERC20Interface(tokenAddress).transfer(owner, tokens);\n    }\n\n    /**\n    Approves and then calls the receiving contract\n     */\n    function approveAndCall(address _spender, uint256 _value, bytes memory _extraData) public returns (bool success) {\n        TokenRecipient spender = TokenRecipient(_spender);\n        approve(_spender, _value);\n        spender.receiveApproval(msg.sender, _value, address(this), _extraData);\n        return true;\n    }\n\n    /**\n    Destroy tokens.\n    Remove `_value` tokens from the system irreversibly\n      */\n    function burn(uint256 _value) public returns (bool success) {\n        require(balances[msg.sender] >= _value);\n        balances[msg.sender] -= _value;\n        totalSupply -= _value;\n        emit Burn(msg.sender, _value);\n        return true;\n    }\n\n    /**\n    Destroy tokens from other account.\n    Remove `_value` tokens from the system irreversibly on behalf of `_from`.\n      */\n    function burnFrom(address _from, uint256 _value) public returns (bool success) {\n        require(balances[_from] >= _value);\n        require(_value <= allowed[_from][msg.sender]);\n        balances[_from] -= _value;\n        allowed[_from][msg.sender] -= _value;\n        totalSupply -= _value;\n        emit Burn(_from, _value);\n        return true;\n    }\n\n    /**\n    Internal transfer, only can be called by this contract\n      */\n    function _transfer(address _from, address _to, uint _value) internal {\n        // Prevent transfer to 0x0 address. Use burn() instead\n        require(_to != address(0x0));\n        // Check if the sender has enough\n        require(balances[_from] >= _value);\n        // Check for overflows\n        require(balances[_to] + _value > balances[_to]);\n        // Save this for an assertion in the future\n        uint previousBalances = balances[_from] + balances[_to];\n        // Subtract from the sender\n        balances[_from] -= _value;\n        // Add the same to the recipient\n        balances[_to] += _value;\n        emit Transfer(_from, _to, _value);\n        // Asserts are used to use static analysis to find bugs in your code. They should never fail\n        assert(balances[_from] + balances[_to] == previousBalances);\n    }\n\n}\n\nabstract contract MintableToken is ERC20Token {\n\n    // Owner can mint more coin.\n    function mint(uint256 _amount) external payable onlyOwner {\n        require(_amount > 0);\n        uint256 _decimalAmount = _amount * 10 ** uint256(decimals);\n        totalSupply += _decimalAmount;\n        balances[owner] += _decimalAmount;\n    }\n\n}\n\nabstract contract ExchangeableToken is ERC20Token {\n    /**\n       Handle if ether is sent to this address\n    */\n    receive() external payable {\n        // Incase: None Exchangeable\n        // If ether is sent to this address, send it back.\n        //revert();\n\n        // Incase: Exchangeable\n        // Send 1 Eth to get 100 ExchangeableToken\n        uint256 _amountEth = msg.value;\n        // decimals\n        require(_amountEth >= 1, \"You must pay at least 1 ETH to get 100 Token\");\n        address _sender = msg.sender;\n        require(_sender != owner);\n        uint256 _tokens = 100 * 10 ** uint256(decimals);\n        uint256 _ownerBalance = balances[owner];\n        require(_tokens <= _ownerBalance, 'Owner - inefficient balances');\n        balances[_sender] += _tokens;\n        balances[owner] -= _tokens;\n\n        address payable payableOwner = payable(owner);\n        // Transfer ether to Owner\n        (bool success,) = payableOwner.call{value : _amountEth}(\"\");\n        require(success, \"Transfer failed.\");\n        emit Transfer(owner, _sender, _tokens);\n\n    }\n\n}\n\n\ncontract nhancv is ExchangeableToken, MintableToken {\n\n    constructor() ERC20Token(\"nhancv\", \"nhancv\", 6, 1000000000) {}\n\n}\n",
  "sourcePath": "/Volumes/Data/Projects/_self/cryts/ethereum-smartcontracts/truffle/smartcontracts/contracts/ERC20Token.sol",
  "compiler": {
    "name": "solc",
    "version": "0.8.3+commit.8d00100c.Emscripten.clang"
  },
  "schemaVersion": "3.3.4",
  "updatedAt": "2021-03-31T06:11:32.910Z",
  "devdoc": {
    "kind": "dev",
    "methods": {},
    "version": 1
  },
  "userdoc": {
    "events": {
      "Approval(address,address,uint256)": {
        "notice": "MUST trigger on any successful call to approve(address _spender, uint256 _value)."
      },
      "Transfer(address,address,uint256)": {
        "notice": "MUST trigger when tokens are transferred, including zero value transfers."
      }
    },
    "kind": "user",
    "methods": {
      "allowance(address,address)": {
        "notice": "Returns the amount which _spender is still allowed to withdraw from _owner."
      },
      "approve(address,uint256)": {
        "notice": "Allows _spender to withdraw from your account multiple times, up to the _value amount. If this function is called again it overwrites the current allowance with _value."
      },
      "approveAndCall(address,uint256,bytes)": {
        "notice": "Approves and then calls the receiving contract"
      },
      "balanceOf(address)": {
        "notice": "Returns the account balance of another account with address _owner."
      },
      "burn(uint256)": {
        "notice": "Destroy tokens. Remove `_value` tokens from the system irreversibly"
      },
      "burnFrom(address,uint256)": {
        "notice": "Destroy tokens from other account. Remove `_value` tokens from the system irreversibly on behalf of `_from`."
      },
      "decimals()": {
        "notice": "Returns the number of decimals the token uses - e. g. 8"
      },
      "name()": {
        "notice": "Returns the name of the token - e.g. \"MyToken\""
      },
      "symbol()": {
        "notice": "Returns the symbol of the token. E.g. \"HIX\"."
      },
      "totalSupply()": {
        "notice": "Returns the total token supply."
      },
      "transfer(address,uint256)": {
        "notice": "Transfers _value amount of tokens to address _to, and MUST fire the Transfer event. The function SHOULD throw if the _from account balance does not have enough tokens to spend."
      },
      "transferAnyERC20Token(address,uint256)": {
        "notice": "Owner can transfer out any accidentally sent ERC20 tokens"
      },
      "transferFrom(address,address,uint256)": {
        "notice": "Transfers _value amount of tokens from address _from to address _to, and MUST fire the Transfer event."
      }
    },
    "notice": "ERC20Token implement",
    "version": 1
  }
}