{
  "contractName": "nhancv",
  "abi": [
    {
      "inputs": [],
      "stateMutability": "nonpayable",
      "type": "constructor"
    },
    {
      "anonymous": false,
      "inputs": [
        {
          "indexed": true,
          "internalType": "address",
          "name": "_owner",
          "type": "address"
        },
        {
          "indexed": true,
          "internalType": "address",
          "name": "_spender",
          "type": "address"
        },
        {
          "indexed": false,
          "internalType": "uint256",
          "name": "_value",
          "type": "uint256"
        }
      ],
      "name": "Approval",
      "type": "event"
    },
    {
      "anonymous": false,
      "inputs": [
        {
          "indexed": true,
          "internalType": "address",
          "name": "from",
          "type": "address"
        },
        {
          "indexed": false,
          "internalType": "uint256",
          "name": "value",
          "type": "uint256"
        }
      ],
      "name": "Burn",
      "type": "event"
    },
    {
      "anonymous": false,
      "inputs": [
        {
          "indexed": true,
          "internalType": "address",
          "name": "_from",
          "type": "address"
        },
        {
          "indexed": true,
          "internalType": "address",
          "name": "_to",
          "type": "address"
        }
      ],
      "name": "OwnershipTransferred",
      "type": "event"
    },
    {
      "anonymous": false,
      "inputs": [
        {
          "indexed": true,
          "internalType": "address",
          "name": "_from",
          "type": "address"
        },
        {
          "indexed": true,
          "internalType": "address",
          "name": "_to",
          "type": "address"
        },
        {
          "indexed": false,
          "internalType": "uint256",
          "name": "_value",
          "type": "uint256"
        }
      ],
      "name": "Transfer",
      "type": "event"
    },
    {
      "inputs": [],
      "name": "acceptOwnership",
      "outputs": [],
      "stateMutability": "nonpayable",
      "type": "function"
    },
    {
      "inputs": [
        {
          "internalType": "address",
          "name": "_owner",
          "type": "address"
        },
        {
          "internalType": "address",
          "name": "_spender",
          "type": "address"
        }
      ],
      "name": "allowance",
      "outputs": [
        {
          "internalType": "uint256",
          "name": "remaining",
          "type": "uint256"
        }
      ],
      "stateMutability": "view",
      "type": "function",
      "constant": true
    },
    {
      "inputs": [
        {
          "internalType": "address",
          "name": "",
          "type": "address"
        },
        {
          "internalType": "address",
          "name": "",
          "type": "address"
        }
      ],
      "name": "allowed",
      "outputs": [
        {
          "internalType": "uint256",
          "name": "",
          "type": "uint256"
        }
      ],
      "stateMutability": "view",
      "type": "function",
      "constant": true
    },
    {
      "inputs": [
        {
          "internalType": "address",
          "name": "_spender",
          "type": "address"
        },
        {
          "internalType": "uint256",
          "name": "_value",
          "type": "uint256"
        }
      ],
      "name": "approve",
      "outputs": [
        {
          "internalType": "bool",
          "name": "success",
          "type": "bool"
        }
      ],
      "stateMutability": "nonpayable",
      "type": "function"
    },
    {
      "inputs": [
        {
          "internalType": "address",
          "name": "_spender",
          "type": "address"
        },
        {
          "internalType": "uint256",
          "name": "_value",
          "type": "uint256"
        },
        {
          "internalType": "bytes",
          "name": "_extraData",
          "type": "bytes"
        }
      ],
      "name": "approveAndCall",
      "outputs": [
        {
          "internalType": "bool",
          "name": "success",
          "type": "bool"
        }
      ],
      "stateMutability": "nonpayable",
      "type": "function"
    },
    {
      "inputs": [
        {
          "internalType": "address",
          "name": "_owner",
          "type": "address"
        }
      ],
      "name": "balanceOf",
      "outputs": [
        {
          "internalType": "uint256",
          "name": "balance",
          "type": "uint256"
        }
      ],
      "stateMutability": "view",
      "type": "function",
      "constant": true
    },
    {
      "inputs": [
        {
          "internalType": "address",
          "name": "",
          "type": "address"
        }
      ],
      "name": "balances",
      "outputs": [
        {
          "internalType": "uint256",
          "name": "",
          "type": "uint256"
        }
      ],
      "stateMutability": "view",
      "type": "function",
      "constant": true
    },
    {
      "inputs": [
        {
          "internalType": "uint256",
          "name": "_value",
          "type": "uint256"
        }
      ],
      "name": "burn",
      "outputs": [
        {
          "internalType": "bool",
          "name": "success",
          "type": "bool"
        }
      ],
      "stateMutability": "nonpayable",
      "type": "function"
    },
    {
      "inputs": [
        {
          "internalType": "address",
          "name": "_from",
          "type": "address"
        },
        {
          "internalType": "uint256",
          "name": "_value",
          "type": "uint256"
        }
      ],
      "name": "burnFrom",
      "outputs": [
        {
          "internalType": "bool",
          "name": "success",
          "type": "bool"
        }
      ],
      "stateMutability": "nonpayable",
      "type": "function"
    },
    {
      "inputs": [],
      "name": "decimals",
      "outputs": [
        {
          "internalType": "uint8",
          "name": "",
          "type": "uint8"
        }
      ],
      "stateMutability": "view",
      "type": "function",
      "constant": true
    },
    {
      "inputs": [
        {
          "internalType": "uint256",
          "name": "_amount",
          "type": "uint256"
        }
      ],
      "name": "mint",
      "outputs": [],
      "stateMutability": "payable",
      "type": "function",
      "payable": true
    },
    {
      "inputs": [],
      "name": "name",
      "outputs": [
        {
          "internalType": "string",
          "name": "",
          "type": "string"
        }
      ],
      "stateMutability": "view",
      "type": "function",
      "constant": true
    },
    {
      "inputs": [],
      "name": "newOwner",
      "outputs": [
        {
          "internalType": "address",
          "name": "",
          "type": "address"
        }
      ],
      "stateMutability": "view",
      "type": "function",
      "constant": true
    },
    {
      "inputs": [],
      "name": "owner",
      "outputs": [
        {
          "internalType": "address",
          "name": "",
          "type": "address"
        }
      ],
      "stateMutability": "view",
      "type": "function",
      "constant": true
    },
    {
      "inputs": [],
      "name": "symbol",
      "outputs": [
        {
          "internalType": "string",
          "name": "",
          "type": "string"
        }
      ],
      "stateMutability": "view",
      "type": "function",
      "constant": true
    },
    {
      "inputs": [],
      "name": "totalSupply",
      "outputs": [
        {
          "internalType": "uint256",
          "name": "",
          "type": "uint256"
        }
      ],
      "stateMutability": "view",
      "type": "function",
      "constant": true
    },
    {
      "inputs": [
        {
          "internalType": "address",
          "name": "_to",
          "type": "address"
        },
        {
          "internalType": "uint256",
          "name": "_value",
          "type": "uint256"
        }
      ],
      "name": "transfer",
      "outputs": [
        {
          "internalType": "bool",
          "name": "success",
          "type": "bool"
        }
      ],
      "stateMutability": "nonpayable",
      "type": "function"
    },
    {
      "inputs": [
        {
          "internalType": "address",
          "name": "tokenAddress",
          "type": "address"
        },
        {
          "internalType": "uint256",
          "name": "tokens",
          "type": "uint256"
        }
      ],
      "name": "transferAnyERC20Token",
      "outputs": [
        {
          "internalType": "bool",
          "name": "success",
          "type": "bool"
        }
      ],
      "stateMutability": "nonpayable",
      "type": "function"
    },
    {
      "inputs": [
        {
          "internalType": "address",
          "name": "_from",
          "type": "address"
        },
        {
          "internalType": "address",
          "name": "_to",
          "type": "address"
        },
        {
          "internalType": "uint256",
          "name": "_value",
          "type": "uint256"
        }
      ],
      "name": "transferFrom",
      "outputs": [
        {
          "internalType": "bool",
          "name": "success",
          "type": "bool"
        }
      ],
      "stateMutability": "nonpayable",
      "type": "function"
    },
    {
      "inputs": [
        {
          "internalType": "address",
          "name": "_newOwner",
          "type": "address"
        }
      ],
      "name": "transferOwnership",
      "outputs": [],
      "stateMutability": "nonpayable",
      "type": "function"
    },
    {
      "stateMutability": "payable",
      "type": "receive",
      "payable": true
    }
  ],
  "bytecode": "0x60806040523480156200001157600080fd5b506040518060400160405280600681526020017f6e68616e637600000000000000000000000000000000000000000000000000008152506040518060400160405280600681526020017f6e68616e637600000000000000000000000000000000000000000000000000008152506006633b9aca0033600460006101000a81548173ffffffffffffffffffffffffffffffffffffffff021916908373ffffffffffffffffffffffffffffffffffffffff1602179055508360009080519060200190620000de92919062000197565b508260019080519060200190620000f792919062000197565b5081600260006101000a81548160ff021916908360ff160217905550600260009054906101000a900460ff1660ff16600a620001349190620002a2565b81620001419190620003df565b600381905550600354600660003373ffffffffffffffffffffffffffffffffffffffff1673ffffffffffffffffffffffffffffffffffffffff1681526020019081526020016000208190555050505050620004eb565b828054620001a5906200044a565b90600052602060002090601f016020900481019282620001c9576000855562000215565b82601f10620001e457805160ff191683800117855562000215565b8280016001018555821562000215579182015b8281111562000214578251825591602001919060010190620001f7565b5b50905062000224919062000228565b5090565b5b808211156200024357600081600090555060010162000229565b5090565b6000808291508390505b6001851115620002995780860481111562000271576200027062000480565b5b6001851615620002815780820291505b80810290506200029185620004de565b945062000251565b94509492505050565b6000620002af8262000440565b9150620002bc8362000440565b9250620002eb7fffffffffffffffffffffffffffffffffffffffffffffffffffffffffffffffff8484620002f3565b905092915050565b600082620003055760019050620003d8565b81620003155760009050620003d8565b81600181146200032e576002811462000339576200036f565b6001915050620003d8565b60ff8411156200034e576200034d62000480565b5b8360020a91508482111562000368576200036762000480565b5b50620003d8565b5060208310610133831016604e8410600b8410161715620003a95782820a905083811115620003a357620003a262000480565b5b620003d8565b620003b8848484600162000247565b92509050818404811115620003d257620003d162000480565b5b81810290505b9392505050565b6000620003ec8262000440565b9150620003f98362000440565b9250817fffffffffffffffffffffffffffffffffffffffffffffffffffffffffffffffff048311821515161562000435576200043462000480565b5b828202905092915050565b6000819050919050565b600060028204905060018216806200046357607f821691505b602082108114156200047a5762000479620004af565b5b50919050565b7f4e487b7100000000000000000000000000000000000000000000000000000000600052601160045260246000fd5b7f4e487b7100000000000000000000000000000000000000000000000000000000600052602260045260246000fd5b60008160011c9050919050565b61242680620004fb6000396000f3fe6080604052600436106101235760003560e01c806379cc6790116100a0578063cae9ca5111610064578063cae9ca51146107d0578063d4ee1d901461080d578063dc39d06d14610838578063dd62ed3e14610875578063f2fde38b146108b2576104d9565b806379cc6790146106e45780638da5cb5b1461072157806395d89b411461074c578063a0712d6814610777578063a9059cbb14610793576104d9565b8063313ce567116100e7578063313ce567146105eb57806342966c68146106165780635c6581651461065357806370a082311461069057806379ba5097146106cd576104d9565b806306fdde03146104de578063095ea7b31461050957806318160ddd1461054657806323b872dd1461057157806327e235e3146105ae576104d9565b366104d95760003490506001811015610171576040517f08c379a000000000000000000000000000000000000000000000000000000000815260040161016890611dfe565b60405180910390fd5b6000339050600460009054906101000a900473ffffffffffffffffffffffffffffffffffffffff1673ffffffffffffffffffffffffffffffffffffffff168173ffffffffffffffffffffffffffffffffffffffff1614156101d157600080fd5b6000600260009054906101000a900460ff1660ff16600a6101f29190611fb6565b60646101fe91906120d4565b9050600060066000600460009054906101000a900473ffffffffffffffffffffffffffffffffffffffff1673ffffffffffffffffffffffffffffffffffffffff1673ffffffffffffffffffffffffffffffffffffffff168152602001908152602001600020549050808211156102a9576040517f08c379a00000000000000000000000000000000000000000000000000000000081526004016102a090611dde565b60405180910390fd5b81600660008573ffffffffffffffffffffffffffffffffffffffff1673ffffffffffffffffffffffffffffffffffffffff16815260200190815260200160002060008282546102f89190611f0d565b925050819055508160066000600460009054906101000a900473ffffffffffffffffffffffffffffffffffffffff1673ffffffffffffffffffffffffffffffffffffffff1673ffffffffffffffffffffffffffffffffffffffff1681526020019081526020016000206000828254610370919061212e565b925050819055506000600460009054906101000a900473ffffffffffffffffffffffffffffffffffffffff16905060008173ffffffffffffffffffffffffffffffffffffffff16866040516103c490611cfc565b60006040518083038185875af1925050503d8060008114610401576040519150601f19603f3d011682016040523d82523d6000602084013e610406565b606091505b505090508061044a576040517f08c379a000000000000000000000000000000000000000000000000000000000815260040161044190611e1e565b60405180910390fd5b8473ffffffffffffffffffffffffffffffffffffffff16600460009054906101000a900473ffffffffffffffffffffffffffffffffffffffff1673ffffffffffffffffffffffffffffffffffffffff167fddf252ad1be2c89b69c2b068fc378daa952ba7f163c4a11628f55a4df523b3ef866040516104c99190611e3e565b60405180910390a3505050505050005b600080fd5b3480156104ea57600080fd5b506104f36108db565b6040516105009190611dbc565b60405180910390f35b34801561051557600080fd5b50610530600480360381019061052b9190611acd565b610969565b60405161053d9190611da1565b60405180910390f35b34801561055257600080fd5b5061055b610a5b565b6040516105689190611e3e565b60405180910390f35b34801561057d57600080fd5b5061059860048036038101906105939190611a7e565b610a61565b6040516105a59190611da1565b60405180910390f35b3480156105ba57600080fd5b506105d560048036038101906105d09190611a19565b610b95565b6040516105e29190611e3e565b60405180910390f35b3480156105f757600080fd5b50610600610bad565b60405161060d9190611e59565b60405180910390f35b34801561062257600080fd5b5061063d60048036038101906106389190611b99565b610bc0565b60405161064a9190611da1565b60405180910390f35b34801561065f57600080fd5b5061067a60048036038101906106759190611a42565b610cd4565b6040516106879190611e3e565b60405180910390f35b34801561069c57600080fd5b506106b760048036038101906106b29190611a19565b610cf9565b6040516106c49190611e3e565b60405180910390f35b3480156106d957600080fd5b506106e2610d42565b005b3480156106f057600080fd5b5061070b60048036038101906107069190611acd565b610ee1565b6040516107189190611da1565b60405180910390f35b34801561072d57600080fd5b50610736611112565b6040516107439190611d11565b60405180910390f35b34801561075857600080fd5b50610761611138565b60405161076e9190611dbc565b60405180910390f35b610791600480360381019061078c9190611b99565b6111c6565b005b34801561079f57600080fd5b506107ba60048036038101906107b59190611acd565b6112f0565b6040516107c79190611da1565b60405180910390f35b3480156107dc57600080fd5b506107f760048036038101906107f29190611b09565b611307565b6040516108049190611da1565b60405180910390f35b34801561081957600080fd5b50610822611395565b60405161082f9190611d11565b60405180910390f35b34801561084457600080fd5b5061085f600480360381019061085a9190611acd565b6113bb565b60405161086c9190611da1565b60405180910390f35b34801561088157600080fd5b5061089c60048036038101906108979190611a42565b6114ce565b6040516108a99190611e3e565b60405180910390f35b3480156108be57600080fd5b506108d960048036038101906108d49190611a19565b611555565b005b600080546108e8906121f9565b80601f0160208091040260200160405190810160405280929190818152602001828054610914906121f9565b80156109615780601f1061093657610100808354040283529160200191610961565b820191906000526020600020905b81548152906001019060200180831161094457829003601f168201915b505050505081565b600081600760003373ffffffffffffffffffffffffffffffffffffffff1673ffffffffffffffffffffffffffffffffffffffff16815260200190815260200160002060008573ffffffffffffffffffffffffffffffffffffffff1673ffffffffffffffffffffffffffffffffffffffff168152602001908152602001600020819055508273ffffffffffffffffffffffffffffffffffffffff163373ffffffffffffffffffffffffffffffffffffffff167f8c5be1e5ebec7d5bd14f71427d1e84f3dd0314c0f7b2291e5b200ac8c7c3b92584604051610a499190611e3e565b60405180910390a36001905092915050565b60035481565b6000600760008573ffffffffffffffffffffffffffffffffffffffff1673ffffffffffffffffffffffffffffffffffffffff16815260200190815260200160002060003373ffffffffffffffffffffffffffffffffffffffff1673ffffffffffffffffffffffffffffffffffffffff16815260200190815260200160002054821115610aec57600080fd5b81600760008673ffffffffffffffffffffffffffffffffffffffff1673ffffffffffffffffffffffffffffffffffffffff16815260200190815260200160002060003373ffffffffffffffffffffffffffffffffffffffff1673ffffffffffffffffffffffffffffffffffffffff1681526020019081526020016000206000828254610b78919061212e565b92505081905550610b8a8484846115f3565b600190509392505050565b60066020528060005260406000206000915090505481565b600260009054906101000a900460ff1681565b600081600660003373ffffffffffffffffffffffffffffffffffffffff1673ffffffffffffffffffffffffffffffffffffffff168152602001908152602001600020541015610c0e57600080fd5b81600660003373ffffffffffffffffffffffffffffffffffffffff1673ffffffffffffffffffffffffffffffffffffffff1681526020019081526020016000206000828254610c5d919061212e565b925050819055508160036000828254610c76919061212e565b925050819055503373ffffffffffffffffffffffffffffffffffffffff167fcc16f5dbb4873280815c1ee09dbd06736cffcc184412cf7a71a0fdb75d397ca583604051610cc39190611e3e565b60405180910390a260019050919050565b6007602052816000526040600020602052806000526040600020600091509150505481565b6000600660008373ffffffffffffffffffffffffffffffffffffffff1673ffffffffffffffffffffffffffffffffffffffff168152602001908152602001600020549050919050565b600560009054906101000a900473ffffffffffffffffffffffffffffffffffffffff1673ffffffffffffffffffffffffffffffffffffffff163373ffffffffffffffffffffffffffffffffffffffff1614610d9c57600080fd5b600560009054906101000a900473ffffffffffffffffffffffffffffffffffffffff1673ffffffffffffffffffffffffffffffffffffffff16600460009054906101000a900473ffffffffffffffffffffffffffffffffffffffff1673ffffffffffffffffffffffffffffffffffffffff167f8be0079c531659141344cd1fd0a4f28419497f9722a3daafe3b4186f6b6457e060405160405180910390a3600560009054906101000a900473ffffffffffffffffffffffffffffffffffffffff16600460006101000a81548173ffffffffffffffffffffffffffffffffffffffff021916908373ffffffffffffffffffffffffffffffffffffffff1602179055506000600560006101000a81548173ffffffffffffffffffffffffffffffffffffffff021916908373ffffffffffffffffffffffffffffffffffffffff160217905550565b600081600660008573ffffffffffffffffffffffffffffffffffffffff1673ffffffffffffffffffffffffffffffffffffffff168152602001908152602001600020541015610f2f57600080fd5b600760008473ffffffffffffffffffffffffffffffffffffffff1673ffffffffffffffffffffffffffffffffffffffff16815260200190815260200160002060003373ffffffffffffffffffffffffffffffffffffffff1673ffffffffffffffffffffffffffffffffffffffff16815260200190815260200160002054821115610fb857600080fd5b81600660008573ffffffffffffffffffffffffffffffffffffffff1673ffffffffffffffffffffffffffffffffffffffff1681526020019081526020016000206000828254611007919061212e565b9250508190555081600760008573ffffffffffffffffffffffffffffffffffffffff1673ffffffffffffffffffffffffffffffffffffffff16815260200190815260200160002060003373ffffffffffffffffffffffffffffffffffffffff1673ffffffffffffffffffffffffffffffffffffffff168152602001908152602001600020600082825461109a919061212e565b9250508190555081600360008282546110b3919061212e565b925050819055508273ffffffffffffffffffffffffffffffffffffffff167fcc16f5dbb4873280815c1ee09dbd06736cffcc184412cf7a71a0fdb75d397ca5836040516111009190611e3e565b60405180910390a26001905092915050565b600460009054906101000a900473ffffffffffffffffffffffffffffffffffffffff1681565b60018054611145906121f9565b80601f0160208091040260200160405190810160405280929190818152602001828054611171906121f9565b80156111be5780601f10611193576101008083540402835291602001916111be565b820191906000526020600020905b8154815290600101906020018083116111a157829003601f168201915b505050505081565b600460009054906101000a900473ffffffffffffffffffffffffffffffffffffffff1673ffffffffffffffffffffffffffffffffffffffff163373ffffffffffffffffffffffffffffffffffffffff161461122057600080fd5b6000811161122d57600080fd5b6000600260009054906101000a900460ff1660ff16600a61124e9190611fb6565b8261125991906120d4565b9050806003600082825461126d9190611f0d565b925050819055508060066000600460009054906101000a900473ffffffffffffffffffffffffffffffffffffffff1673ffffffffffffffffffffffffffffffffffffffff1673ffffffffffffffffffffffffffffffffffffffff16815260200190815260200160002060008282546112e59190611f0d565b925050819055505050565b60006112fd3384846115f3565b6001905092915050565b6000808490506113178585610969565b508073ffffffffffffffffffffffffffffffffffffffff16638f4ffcb1338630876040518563ffffffff1660e01b81526004016113579493929190611d55565b600060405180830381600087803b15801561137157600080fd5b505af1158015611385573d6000803e3d6000fd5b5050505060019150509392505050565b600560009054906101000a900473ffffffffffffffffffffffffffffffffffffffff1681565b6000600460009054906101000a900473ffffffffffffffffffffffffffffffffffffffff1673ffffffffffffffffffffffffffffffffffffffff163373ffffffffffffffffffffffffffffffffffffffff161461141757600080fd5b8273ffffffffffffffffffffffffffffffffffffffff1663a9059cbb600460009054906101000a900473ffffffffffffffffffffffffffffffffffffffff16846040518363ffffffff1660e01b8152600401611474929190611d2c565b602060405180830381600087803b15801561148e57600080fd5b505af11580156114a2573d6000803e3d6000fd5b505050506040513d601f19601f820116820180604052508101906114c69190611b70565b905092915050565b6000600760008473ffffffffffffffffffffffffffffffffffffffff1673ffffffffffffffffffffffffffffffffffffffff16815260200190815260200160002060008373ffffffffffffffffffffffffffffffffffffffff1673ffffffffffffffffffffffffffffffffffffffff16815260200190815260200160002054905092915050565b600460009054906101000a900473ffffffffffffffffffffffffffffffffffffffff1673ffffffffffffffffffffffffffffffffffffffff163373ffffffffffffffffffffffffffffffffffffffff16146115af57600080fd5b80600560006101000a81548173ffffffffffffffffffffffffffffffffffffffff021916908373ffffffffffffffffffffffffffffffffffffffff16021790555050565b600073ffffffffffffffffffffffffffffffffffffffff168273ffffffffffffffffffffffffffffffffffffffff16141561162d57600080fd5b80600660008573ffffffffffffffffffffffffffffffffffffffff1673ffffffffffffffffffffffffffffffffffffffff16815260200190815260200160002054101561167957600080fd5b600660008373ffffffffffffffffffffffffffffffffffffffff1673ffffffffffffffffffffffffffffffffffffffff1681526020019081526020016000205481600660008573ffffffffffffffffffffffffffffffffffffffff1673ffffffffffffffffffffffffffffffffffffffff168152602001908152602001600020546117049190611f0d565b1161170e57600080fd5b6000600660008473ffffffffffffffffffffffffffffffffffffffff1673ffffffffffffffffffffffffffffffffffffffff16815260200190815260200160002054600660008673ffffffffffffffffffffffffffffffffffffffff1673ffffffffffffffffffffffffffffffffffffffff1681526020019081526020016000205461179a9190611f0d565b905081600660008673ffffffffffffffffffffffffffffffffffffffff1673ffffffffffffffffffffffffffffffffffffffff16815260200190815260200160002060008282546117eb919061212e565b9250508190555081600660008573ffffffffffffffffffffffffffffffffffffffff1673ffffffffffffffffffffffffffffffffffffffff16815260200190815260200160002060008282546118419190611f0d565b925050819055508273ffffffffffffffffffffffffffffffffffffffff168473ffffffffffffffffffffffffffffffffffffffff167fddf252ad1be2c89b69c2b068fc378daa952ba7f163c4a11628f55a4df523b3ef846040516118a59190611e3e565b60405180910390a380600660008573ffffffffffffffffffffffffffffffffffffffff1673ffffffffffffffffffffffffffffffffffffffff16815260200190815260200160002054600660008773ffffffffffffffffffffffffffffffffffffffff1673ffffffffffffffffffffffffffffffffffffffff168152602001908152602001600020546119389190611f0d565b1461196c577f4e487b7100000000000000000000000000000000000000000000000000000000600052600160045260246000fd5b50505050565b600061198561198084611e99565b611e74565b90508281526020810184848401111561199d57600080fd5b6119a88482856121b7565b509392505050565b6000813590506119bf816123ab565b92915050565b6000815190506119d4816123c2565b92915050565b600082601f8301126119eb57600080fd5b81356119fb848260208601611972565b91505092915050565b600081359050611a13816123d9565b92915050565b600060208284031215611a2b57600080fd5b6000611a39848285016119b0565b91505092915050565b60008060408385031215611a5557600080fd5b6000611a63858286016119b0565b9250506020611a74858286016119b0565b9150509250929050565b600080600060608486031215611a9357600080fd5b6000611aa1868287016119b0565b9350506020611ab2868287016119b0565b9250506040611ac386828701611a04565b9150509250925092565b60008060408385031215611ae057600080fd5b6000611aee858286016119b0565b9250506020611aff85828601611a04565b9150509250929050565b600080600060608486031215611b1e57600080fd5b6000611b2c868287016119b0565b9350506020611b3d86828701611a04565b925050604084013567ffffffffffffffff811115611b5a57600080fd5b611b66868287016119da565b9150509250925092565b600060208284031215611b8257600080fd5b6000611b90848285016119c5565b91505092915050565b600060208284031215611bab57600080fd5b6000611bb984828501611a04565b91505092915050565b611bcb81612162565b82525050565b611bda81612174565b82525050565b6000611beb82611eca565b611bf58185611ee0565b9350611c058185602086016121c6565b611c0e816122e9565b840191505092915050565b6000611c2482611ed5565b611c2e8185611efc565b9350611c3e8185602086016121c6565b611c47816122e9565b840191505092915050565b6000611c5f601c83611efc565b9150611c6a82612307565b602082019050919050565b6000611c82602c83611efc565b9150611c8d82612330565b604082019050919050565b6000611ca5600083611ef1565b9150611cb08261237f565b600082019050919050565b6000611cc8601083611efc565b9150611cd382612382565b602082019050919050565b611ce7816121a0565b82525050565b611cf6816121aa565b82525050565b6000611d0782611c98565b9150819050919050565b6000602082019050611d266000830184611bc2565b92915050565b6000604082019050611d416000830185611bc2565b611d4e6020830184611cde565b9392505050565b6000608082019050611d6a6000830187611bc2565b611d776020830186611cde565b611d846040830185611bc2565b8181036060830152611d968184611be0565b905095945050505050565b6000602082019050611db66000830184611bd1565b92915050565b60006020820190508181036000830152611dd68184611c19565b905092915050565b60006020820190508181036000830152611df781611c52565b9050919050565b60006020820190508181036000830152611e1781611c75565b9050919050565b60006020820190508181036000830152611e3781611cbb565b9050919050565b6000602082019050611e536000830184611cde565b92915050565b6000602082019050611e6e6000830184611ced565b92915050565b6000611e7e611e8f565b9050611e8a828261222b565b919050565b6000604051905090565b600067ffffffffffffffff821115611eb457611eb36122ba565b5b611ebd826122e9565b9050602081019050919050565b600081519050919050565b600081519050919050565b600082825260208201905092915050565b600081905092915050565b600082825260208201905092915050565b6000611f18826121a0565b9150611f23836121a0565b9250827fffffffffffffffffffffffffffffffffffffffffffffffffffffffffffffffff03821115611f5857611f5761225c565b5b828201905092915050565b6000808291508390505b6001851115611fad57808604811115611f8957611f8861225c565b5b6001851615611f985780820291505b8081029050611fa6856122fa565b9450611f6d565b94509492505050565b6000611fc1826121a0565b9150611fcc836121a0565b9250611ff97fffffffffffffffffffffffffffffffffffffffffffffffffffffffffffffffff8484612001565b905092915050565b60008261201157600190506120cd565b8161201f57600090506120cd565b8160018114612035576002811461203f5761206e565b60019150506120cd565b60ff8411156120515761205061225c565b5b8360020a9150848211156120685761206761225c565b5b506120cd565b5060208310610133831016604e8410600b84101617156120a35782820a90508381111561209e5761209d61225c565b5b6120cd565b6120b08484846001611f63565b925090508184048111156120c7576120c661225c565b5b81810290505b9392505050565b60006120df826121a0565b91506120ea836121a0565b9250817fffffffffffffffffffffffffffffffffffffffffffffffffffffffffffffffff04831182151516156121235761212261225c565b5b828202905092915050565b6000612139826121a0565b9150612144836121a0565b9250828210156121575761215661225c565b5b828203905092915050565b600061216d82612180565b9050919050565b60008115159050919050565b600073ffffffffffffffffffffffffffffffffffffffff82169050919050565b6000819050919050565b600060ff82169050919050565b82818337600083830152505050565b60005b838110156121e45780820151818401526020810190506121c9565b838111156121f3576000848401525b50505050565b6000600282049050600182168061221157607f821691505b602082108114156122255761222461228b565b5b50919050565b612234826122e9565b810181811067ffffffffffffffff82111715612253576122526122ba565b5b80604052505050565b7f4e487b7100000000000000000000000000000000000000000000000000000000600052601160045260246000fd5b7f4e487b7100000000000000000000000000000000000000000000000000000000600052602260045260246000fd5b7f4e487b7100000000000000000000000000000000000000000000000000000000600052604160045260246000fd5b6000601f19601f8301169050919050565b60008160011c9050919050565b7f4f776e6572202d20696e656666696369656e742062616c616e63657300000000600082015250565b7f596f75206d75737420706179206174206c6561737420312045544820746f206760008201527f65742031303020546f6b656e0000000000000000000000000000000000000000602082015250565b50565b7f5472616e73666572206661696c65642e00000000000000000000000000000000600082015250565b6123b481612162565b81146123bf57600080fd5b50565b6123cb81612174565b81146123d657600080fd5b50565b6123e2816121a0565b81146123ed57600080fd5b5056fea2646970667358221220dab336e0692be214336f2b8aa4826679d7e5c15d7b2be7bf4b7a2cb4e7b0b2a364736f6c63430008030033",
  "immutableReferences": {},
  "source": "// SPDX-License-Identifier: MIT\n/**\n *Submitted for verification at Etherscan.io on 2018-03-27\n*/\n\npragma solidity 0.8.3;\n\n/**\nNhancv token contract\n\nSymbol          : NToken2\nName            : NToken2\nTotal supply    : 1000000000\nDecimals        : 8\n\n*/\n\n// ---------------------------------------------------------------------\n// ERC-20 Token Standard Interface\n// https://github.com/ethereum/EIPs/blob/master/EIPS/eip-20.md\n// ---------------------------------------------------------------------\nabstract contract ERC20Interface {\n    /**\n    Returns the name of the token - e.g. \"MyToken\"\n     */\n    string public name;\n    /**\n    Returns the symbol of the token. E.g. \"HIX\".\n     */\n    string public symbol;\n    /**\n    Returns the number of decimals the token uses - e. g. 8\n     */\n    uint8 public decimals;\n    /**\n    Returns the total token supply.\n     */\n    uint256 public totalSupply;\n    /**\n    Returns the account balance of another account with address _owner.\n     */\n    function balanceOf(address _owner) virtual public view returns (uint256 balance);\n    /**\n    Transfers _value amount of tokens to address _to, and MUST fire the Transfer event.\n    The function SHOULD throw if the _from account balance does not have enough tokens to spend.\n     */\n    function transfer(address _to, uint256 _value) virtual public returns (bool success);\n    /**\n    Transfers _value amount of tokens from address _from to address _to, and MUST fire the Transfer event.\n     */\n    function transferFrom(address _from, address _to, uint256 _value) virtual public returns (bool success);\n    /**\n    Allows _spender to withdraw from your account multiple times, up to the _value amount.\n    If this function is called again it overwrites the current allowance with _value.\n     */\n    function approve(address _spender, uint256 _value) virtual public returns (bool success);\n    /**\n    Returns the amount which _spender is still allowed to withdraw from _owner.\n     */\n    function allowance(address _owner, address _spender) virtual public view returns (uint256 remaining);\n    /**\n    MUST trigger when tokens are transferred, including zero value transfers.\n     */\n    event Transfer(address indexed _from, address indexed _to, uint256 _value);\n    /**\n    MUST trigger on any successful call to approve(address _spender, uint256 _value).\n      */\n    event Approval(address indexed _owner, address indexed _spender, uint256 _value);\n}\n\n/**\nOwned contract\n */\ncontract Owned {\n    address public owner;\n    address public newOwner;\n\n    event OwnershipTransferred(address indexed _from, address indexed _to);\n\n    constructor () {\n        owner = msg.sender;\n    }\n\n    modifier onlyOwner {\n        require(msg.sender == owner);\n        _;\n    }\n\n    function transferOwnership(address _newOwner) public onlyOwner {\n        newOwner = _newOwner;\n    }\n\n    function acceptOwnership() public {\n        require(msg.sender == newOwner);\n        emit OwnershipTransferred(owner, newOwner);\n        owner = newOwner;\n        newOwner = address(0);\n    }\n}\n\n/**\nFunction to receive approval and execute function in one call.\n */\nabstract contract TokenRecipient {\n    function receiveApproval(address _from, uint256 _value, address _token, bytes memory _extraData) virtual public;\n}\n\n/**\nERC20Token implement\n */\ncontract ERC20Token is ERC20Interface, Owned {\n\n    constructor(string memory _name, string memory _symbol, uint8 _decimals, uint256 _initialSupply) Owned() {\n        name = _name;\n        symbol = _symbol;\n        decimals = _decimals;\n        totalSupply = _initialSupply * 10 ** uint256(decimals);\n        balances[msg.sender] = totalSupply;\n    }\n\n    mapping(address => uint256) public balances;\n    mapping(address => mapping(address => uint256)) public allowed;\n\n    // This notifies clients about the amount burnt\n    event Burn(address indexed from, uint256 value);\n\n    function balanceOf(address _owner) override public view returns (uint256 balance) {\n        return balances[_owner];\n    }\n\n    function transfer(address _to, uint256 _value) override public returns (bool success) {\n        _transfer(msg.sender, _to, _value);\n        return true;\n    }\n\n    function transferFrom(address _from, address _to, uint256 _value) override public returns (bool success) {\n        require(_value <= allowed[_from][msg.sender]);\n        allowed[_from][msg.sender] -= _value;\n        _transfer(_from, _to, _value);\n        return true;\n    }\n\n    function approve(address _spender, uint256 _value) override public returns (bool success) {\n        allowed[msg.sender][_spender] = _value;\n        emit Approval(msg.sender, _spender, _value);\n        return true;\n    }\n\n    function allowance(address _owner, address _spender) override public view returns (uint256 remaining) {\n        return allowed[_owner][_spender];\n    }\n\n    /**\n    Owner can transfer out any accidentally sent ERC20 tokens\n     */\n    function transferAnyERC20Token(address tokenAddress, uint tokens) public onlyOwner returns (bool success) {\n        return ERC20Interface(tokenAddress).transfer(owner, tokens);\n    }\n\n    /**\n    Approves and then calls the receiving contract\n     */\n    function approveAndCall(address _spender, uint256 _value, bytes memory _extraData) public returns (bool success) {\n        TokenRecipient spender = TokenRecipient(_spender);\n        approve(_spender, _value);\n        spender.receiveApproval(msg.sender, _value, address(this), _extraData);\n        return true;\n    }\n\n    /**\n    Destroy tokens.\n    Remove `_value` tokens from the system irreversibly\n      */\n    function burn(uint256 _value) public returns (bool success) {\n        require(balances[msg.sender] >= _value);\n        balances[msg.sender] -= _value;\n        totalSupply -= _value;\n        emit Burn(msg.sender, _value);\n        return true;\n    }\n\n    /**\n    Destroy tokens from other account.\n    Remove `_value` tokens from the system irreversibly on behalf of `_from`.\n      */\n    function burnFrom(address _from, uint256 _value) public returns (bool success) {\n        require(balances[_from] >= _value);\n        require(_value <= allowed[_from][msg.sender]);\n        balances[_from] -= _value;\n        allowed[_from][msg.sender] -= _value;\n        totalSupply -= _value;\n        emit Burn(_from, _value);\n        return true;\n    }\n\n    /**\n    Internal transfer, only can be called by this contract\n      */\n    function _transfer(address _from, address _to, uint _value) internal {\n        // Prevent transfer to 0x0 address. Use burn() instead\n        require(_to != address(0x0));\n        // Check if the sender has enough\n        require(balances[_from] >= _value);\n        // Check for overflows\n        require(balances[_to] + _value > balances[_to]);\n        // Save this for an assertion in the future\n        uint previousBalances = balances[_from] + balances[_to];\n        // Subtract from the sender\n        balances[_from] -= _value;\n        // Add the same to the recipient\n        balances[_to] += _value;\n        emit Transfer(_from, _to, _value);\n        // Asserts are used to use static analysis to find bugs in your code. They should never fail\n        assert(balances[_from] + balances[_to] == previousBalances);\n    }\n\n}\n\nabstract contract MintableToken is ERC20Token {\n\n    // Owner can mint more coin.\n    function mint(uint256 _amount) external payable onlyOwner {\n        require(_amount > 0);\n        uint256 _decimalAmount = _amount * 10 ** uint256(decimals);\n        totalSupply += _decimalAmount;\n        balances[owner] += _decimalAmount;\n    }\n\n}\n\nabstract contract ExchangeableToken is ERC20Token {\n    /**\n       Handle if ether is sent to this address\n    */\n    receive() external payable {\n        // Incase: None Exchangeable\n        // If ether is sent to this address, send it back.\n        //revert();\n\n        // Incase: Exchangeable\n        // Send 1 Eth to get 100 ExchangeableToken\n        uint256 _amountEth = msg.value;\n        // decimals\n        require(_amountEth >= 1, \"You must pay at least 1 ETH to get 100 Token\");\n        address _sender = msg.sender;\n        require(_sender != owner);\n        uint256 _tokens = 100 * 10 ** uint256(decimals);\n        uint256 _ownerBalance = balances[owner];\n        require(_tokens <= _ownerBalance, 'Owner - inefficient balances');\n        balances[_sender] += _tokens;\n        balances[owner] -= _tokens;\n\n        address payable payableOwner = payable(owner);\n        // Transfer ether to Owner\n        (bool success,) = payableOwner.call{value : _amountEth}(\"\");\n        require(success, \"Transfer failed.\");\n        emit Transfer(owner, _sender, _tokens);\n\n    }\n\n}\n\n\ncontract nhancv is ExchangeableToken, MintableToken {\n\n    constructor() ERC20Token(\"nhancv\", \"nhancv\", 6, 1000000000) {}\n\n}\n",
  "sourcePath": "/Volumes/Data/Projects/_self/cryts/ethereum-smartcontracts/truffle/smartcontracts/contracts/ERC20Token.sol",
  "compiler": {
    "name": "solc",
    "version": "0.8.3+commit.8d00100c.Emscripten.clang"
  },
  "schemaVersion": "3.3.4",
  "updatedAt": "2021-03-31T06:11:34.505Z",
  "networkType": "ethereum",
  "devdoc": {
    "kind": "dev",
    "methods": {},
    "version": 1
  },
  "userdoc": {
    "events": {
      "Approval(address,address,uint256)": {
        "notice": "MUST trigger on any successful call to approve(address _spender, uint256 _value)."
      },
      "Transfer(address,address,uint256)": {
        "notice": "MUST trigger when tokens are transferred, including zero value transfers."
      }
    },
    "kind": "user",
    "methods": {
      "allowance(address,address)": {
        "notice": "Returns the amount which _spender is still allowed to withdraw from _owner."
      },
      "approve(address,uint256)": {
        "notice": "Allows _spender to withdraw from your account multiple times, up to the _value amount. If this function is called again it overwrites the current allowance with _value."
      },
      "approveAndCall(address,uint256,bytes)": {
        "notice": "Approves and then calls the receiving contract"
      },
      "balanceOf(address)": {
        "notice": "Returns the account balance of another account with address _owner."
      },
      "burn(uint256)": {
        "notice": "Destroy tokens. Remove `_value` tokens from the system irreversibly"
      },
      "burnFrom(address,uint256)": {
        "notice": "Destroy tokens from other account. Remove `_value` tokens from the system irreversibly on behalf of `_from`."
      },
      "decimals()": {
        "notice": "Returns the number of decimals the token uses - e. g. 8"
      },
      "name()": {
        "notice": "Returns the name of the token - e.g. \"MyToken\""
      },
      "symbol()": {
        "notice": "Returns the symbol of the token. E.g. \"HIX\"."
      },
      "totalSupply()": {
        "notice": "Returns the total token supply."
      },
      "transfer(address,uint256)": {
        "notice": "Transfers _value amount of tokens to address _to, and MUST fire the Transfer event. The function SHOULD throw if the _from account balance does not have enough tokens to spend."
      },
      "transferAnyERC20Token(address,uint256)": {
        "notice": "Owner can transfer out any accidentally sent ERC20 tokens"
      },
      "transferFrom(address,address,uint256)": {
        "notice": "Transfers _value amount of tokens from address _from to address _to, and MUST fire the Transfer event."
      }
    },
    "version": 1
  }
}