{
  "contractName": "BoxV2",
  "abi": [
    {
      "anonymous": false,
      "inputs": [
        {
          "indexed": false,
          "internalType": "uint256",
          "name": "newValue",
          "type": "uint256"
        }
      ],
      "name": "ValueChanged",
      "type": "event"
    },
    {
      "inputs": [
        {
          "internalType": "uint256",
          "name": "_x",
          "type": "uint256"
        }
      ],
      "name": "initialize",
      "outputs": [],
      "stateMutability": "nonpayable",
      "type": "function"
    },
    {
      "inputs": [
        {
          "internalType": "uint256",
          "name": "newValue",
          "type": "uint256"
        }
      ],
      "name": "store",
      "outputs": [],
      "stateMutability": "nonpayable",
      "type": "function"
    },
    {
      "inputs": [],
      "name": "retrieve",
      "outputs": [
        {
          "internalType": "uint256",
          "name": "",
          "type": "uint256"
        }
      ],
      "stateMutability": "view",
      "type": "function",
      "constant": true
    },
    {
      "inputs": [],
      "name": "increment",
      "outputs": [],
      "stateMutability": "nonpayable",
      "type": "function"
    }
  ],
  "bytecode": "0x608060405234801561001057600080fd5b50610413806100206000396000f3fe608060405234801561001057600080fd5b506004361061004c5760003560e01c80632e64cec1146100515780636057361d1461006f578063d09de08a1461008b578063fe4b84df14610095575b600080fd5b6100596100b1565b60405161006691906102bc565b60405180910390f35b61008960048036038101906100849190610241565b6100bb565b005b6100936100fc565b005b6100af60048036038101906100aa9190610241565b61014b565b005b6000600154905090565b806001819055507f93fe6d397c74fdf1402a8b72e47b68512f0510d7b98a4bc4cbdf6ac7108b3c59816040516100f191906102bc565b60405180910390a150565b6001805461010a91906102e8565b6001819055507f93fe6d397c74fdf1402a8b72e47b68512f0510d7b98a4bc4cbdf6ac7108b3c5960015460405161014191906102bc565b60405180910390a1565b600060019054906101000a900460ff1680610171575060008054906101000a900460ff16155b6101b0576040517f08c379a00000000000000000000000000000000000000000000000000000000081526004016101a79061029c565b60405180910390fd5b60008060019054906101000a900460ff161590508015610200576001600060016101000a81548160ff02191690831515021790555060016000806101000a81548160ff0219169083151502179055505b8160018190555080156102285760008060016101000a81548160ff0219169083151502179055505b5050565b60008135905061023b816103c6565b92915050565b60006020828403121561025357600080fd5b60006102618482850161022c565b91505092915050565b6000610277602e836102d7565b915061028282610377565b604082019050919050565b6102968161033e565b82525050565b600060208201905081810360008301526102b58161026a565b9050919050565b60006020820190506102d1600083018461028d565b92915050565b600082825260208201905092915050565b60006102f38261033e565b91506102fe8361033e565b9250827fffffffffffffffffffffffffffffffffffffffffffffffffffffffffffffffff0382111561033357610332610348565b5b828201905092915050565b6000819050919050565b7f4e487b7100000000000000000000000000000000000000000000000000000000600052601160045260246000fd5b7f496e697469616c697a61626c653a20636f6e747261637420697320616c72656160008201527f647920696e697469616c697a6564000000000000000000000000000000000000602082015250565b6103cf8161033e565b81146103da57600080fd5b5056fea26469706673582212208c6d2561eea38ae19a9d4b647201d0e73dbb472a93ea6785af083c4a0bca16cf64736f6c63430008030033",
  "immutableReferences": {},
  "source": "// SPDX-License-Identifier: MIT\npragma solidity 0.8.3;\n\nimport \"@openzeppelin/contracts-upgradeable/proxy/utils/Initializable.sol\";\n\ncontract BoxV2 is Initializable {\n    // ... code from Box.sol\n    uint256 private value;\n\n    // upgradeable\n    function initialize(uint256 _x) public initializer {\n        value = _x;\n    }\n\n    // Emitted when the stored value changes\n    event ValueChanged(uint256 newValue);\n\n    // Stores a new value in the contract\n    function store(uint256 newValue) public {\n        value = newValue;\n        emit ValueChanged(newValue);\n    }\n\n    // Reads the last stored value\n    function retrieve() public view returns (uint256) {\n        return value;\n    }\n\n    // Upgrading limitation\n    // Due to technical limitations, when you upgrade a contract to a new version you cannot change the storage layout of that contract.\n    // This means that, if you have already declared a state variable in your contract, you cannot remove it,\n    // change its type, or declare another variable before it.\n    // In our Box example, it means that we can only add new state variables after value.\n    //----\n    // NEW\n    // Increments the stored value by 1\n    function increment() public {\n        value = value + 1;\n        emit ValueChanged(value);\n    }\n}",
  "sourcePath": "/Volumes/Data/Projects/_self/cryts/ethereum-smartcontracts/truffle/smartcontracts/contracts/BoxV2.sol",
  "compiler": {
    "name": "solc",
    "version": "0.8.3+commit.8d00100c.Emscripten.clang"
  },
  "schemaVersion": "3.3.4",
  "updatedAt": "2021-03-31T06:11:36.604Z",
  "networkType": "ethereum",
  "devdoc": {
    "kind": "dev",
    "methods": {},
    "version": 1
  },
  "userdoc": {
    "kind": "user",
    "methods": {},
    "version": 1
  }
}