{
  "contractName": "CryptoLott",
  "abi": [
    {
      "inputs": [],
      "payable": false,
      "stateMutability": "nonpayable",
      "type": "constructor"
    },
    {
      "anonymous": false,
      "inputs": [
        {
          "indexed": false,
          "internalType": "uint256",
          "name": "_minPrice",
          "type": "uint256"
        },
        {
          "indexed": false,
          "internalType": "uint64",
          "name": "_playerInSession",
          "type": "uint64"
        },
        {
          "indexed": false,
          "internalType": "uint8",
          "name": "_charityRate",
          "type": "uint8"
        },
        {
          "indexed": false,
          "internalType": "uint8",
          "name": "_winnerRate",
          "type": "uint8"
        },
        {
          "indexed": false,
          "internalType": "uint64",
          "name": "_luckyNumberRange",
          "type": "uint64"
        }
      ],
      "name": "GameSessionBeginEvent",
      "type": "event"
    },
    {
      "anonymous": false,
      "inputs": [
        {
          "indexed": true,
          "internalType": "address[]",
          "name": "_winnerAddressList",
          "type": "address[]"
        },
        {
          "indexed": false,
          "internalType": "uint64",
          "name": "_luckyNumber",
          "type": "uint64"
        },
        {
          "indexed": false,
          "internalType": "uint256",
          "name": "_totalReward",
          "type": "uint256"
        }
      ],
      "name": "GameSessionEndEvent",
      "type": "event"
    },
    {
      "anonymous": false,
      "inputs": [
        {
          "indexed": true,
          "internalType": "address",
          "name": "_from",
          "type": "address"
        },
        {
          "indexed": true,
          "internalType": "address",
          "name": "_to",
          "type": "address"
        }
      ],
      "name": "OwnershipTransferred",
      "type": "event"
    },
    {
      "anonymous": false,
      "inputs": [
        {
          "indexed": true,
          "internalType": "address",
          "name": "_playerAddress",
          "type": "address"
        }
      ],
      "name": "PlayerRegisterEvent",
      "type": "event"
    },
    {
      "constant": false,
      "inputs": [],
      "name": "acceptOwnership",
      "outputs": [],
      "payable": false,
      "stateMutability": "nonpayable",
      "type": "function"
    },
    {
      "constant": true,
      "inputs": [],
      "name": "endRound",
      "outputs": [
        {
          "internalType": "uint256",
          "name": "",
          "type": "uint256"
        }
      ],
      "payable": false,
      "stateMutability": "view",
      "type": "function"
    },
    {
      "constant": true,
      "inputs": [],
      "name": "newOwner",
      "outputs": [
        {
          "internalType": "address payable",
          "name": "",
          "type": "address"
        }
      ],
      "payable": false,
      "stateMutability": "view",
      "type": "function"
    },
    {
      "constant": true,
      "inputs": [],
      "name": "owner",
      "outputs": [
        {
          "internalType": "address payable",
          "name": "",
          "type": "address"
        }
      ],
      "payable": false,
      "stateMutability": "view",
      "type": "function"
    },
    {
      "constant": true,
      "inputs": [],
      "name": "startRound",
      "outputs": [
        {
          "internalType": "uint256",
          "name": "",
          "type": "uint256"
        }
      ],
      "payable": false,
      "stateMutability": "view",
      "type": "function"
    },
    {
      "constant": false,
      "inputs": [
        {
          "internalType": "address payable",
          "name": "_newOwner",
          "type": "address"
        }
      ],
      "name": "transferOwnership",
      "outputs": [],
      "payable": false,
      "stateMutability": "nonpayable",
      "type": "function"
    },
    {
      "constant": false,
      "inputs": [
        {
          "internalType": "bool",
          "name": "status",
          "type": "bool"
        }
      ],
      "name": "enableContract",
      "outputs": [],
      "payable": false,
      "stateMutability": "nonpayable",
      "type": "function"
    },
    {
      "constant": false,
      "inputs": [
        {
          "internalType": "address payable",
          "name": "_charityAddress",
          "type": "address"
        }
      ],
      "name": "upCharityAddress",
      "outputs": [],
      "payable": false,
      "stateMutability": "nonpayable",
      "type": "function"
    },
    {
      "constant": false,
      "inputs": [
        {
          "internalType": "uint256",
          "name": "_minPrice",
          "type": "uint256"
        },
        {
          "internalType": "uint64",
          "name": "_maxPlayerRandom",
          "type": "uint64"
        },
        {
          "internalType": "uint64",
          "name": "_maxLuckyNumberRandom",
          "type": "uint64"
        },
        {
          "internalType": "uint8",
          "name": "_charityRate",
          "type": "uint8"
        },
        {
          "internalType": "uint8",
          "name": "_winnerRate",
          "type": "uint8"
        }
      ],
      "name": "config",
      "outputs": [],
      "payable": false,
      "stateMutability": "nonpayable",
      "type": "function"
    },
    {
      "constant": false,
      "inputs": [
        {
          "internalType": "string",
          "name": "name",
          "type": "string"
        },
        {
          "internalType": "uint64[]",
          "name": "numbers",
          "type": "uint64[]"
        }
      ],
      "name": "playerRegister",
      "outputs": [],
      "payable": true,
      "stateMutability": "payable",
      "type": "function"
    },
    {
      "constant": true,
      "inputs": [],
      "name": "getMinPrice",
      "outputs": [
        {
          "internalType": "uint256",
          "name": "",
          "type": "uint256"
        }
      ],
      "payable": false,
      "stateMutability": "view",
      "type": "function"
    },
    {
      "constant": true,
      "inputs": [],
      "name": "getCountPlayer",
      "outputs": [
        {
          "internalType": "uint64",
          "name": "",
          "type": "uint64"
        }
      ],
      "payable": false,
      "stateMutability": "view",
      "type": "function"
    },
    {
      "constant": true,
      "inputs": [],
      "name": "getMaxPlayer",
      "outputs": [
        {
          "internalType": "uint64",
          "name": "",
          "type": "uint64"
        }
      ],
      "payable": false,
      "stateMutability": "view",
      "type": "function"
    },
    {
      "constant": true,
      "inputs": [],
      "name": "getMaxLuckyRandomNumber",
      "outputs": [
        {
          "internalType": "uint64",
          "name": "",
          "type": "uint64"
        }
      ],
      "payable": false,
      "stateMutability": "view",
      "type": "function"
    },
    {
      "constant": true,
      "inputs": [],
      "name": "getLastTotalFund",
      "outputs": [
        {
          "internalType": "uint256",
          "name": "",
          "type": "uint256"
        }
      ],
      "payable": false,
      "stateMutability": "view",
      "type": "function"
    },
    {
      "constant": true,
      "inputs": [],
      "name": "getLastLuckyNumber",
      "outputs": [
        {
          "internalType": "uint64",
          "name": "",
          "type": "uint64"
        }
      ],
      "payable": false,
      "stateMutability": "view",
      "type": "function"
    },
    {
      "constant": true,
      "inputs": [],
      "name": "getCurrentFund",
      "outputs": [
        {
          "internalType": "uint256",
          "name": "",
          "type": "uint256"
        }
      ],
      "payable": false,
      "stateMutability": "view",
      "type": "function"
    },
    {
      "constant": true,
      "inputs": [],
      "name": "getCharityAddress",
      "outputs": [
        {
          "internalType": "address",
          "name": "",
          "type": "address"
        }
      ],
      "payable": false,
      "stateMutability": "view",
      "type": "function"
    },
    {
      "constant": true,
      "inputs": [],
      "name": "getOwnerAddress",
      "outputs": [
        {
          "internalType": "address",
          "name": "",
          "type": "address"
        }
      ],
      "payable": false,
      "stateMutability": "view",
      "type": "function"
    },
    {
      "constant": true,
      "inputs": [
        {
          "internalType": "address",
          "name": "playerAddress",
          "type": "address"
        }
      ],
      "name": "getPlayerInfo",
      "outputs": [
        {
          "internalType": "string",
          "name": "playerName",
          "type": "string"
        },
        {
          "internalType": "uint64[]",
          "name": "playerNumbers",
          "type": "uint64[]"
        }
      ],
      "payable": false,
      "stateMutability": "view",
      "type": "function"
    }
  ],
  "bytecode": "0x60806040523480156200001157600080fd5b50336000806101000a81548173ffffffffffffffffffffffffffffffffffffffff021916908373ffffffffffffffffffffffffffffffffffffffff1602179055506001600a60036101000a81548160ff0219169083151502179055506001600a60026101000a81548160ff0219169083151502179055506000809054906101000a900473ffffffffffffffffffffffffffffffffffffffff16600760006101000a81548173ffffffffffffffffffffffffffffffffffffffff021916908373ffffffffffffffffffffffffffffffffffffffff160217905550662386f26fc100006008819055506002600960006101000a81548167ffffffffffffffff021916908367ffffffffffffffff1602179055506005600960086101000a81548167ffffffffffffffff021916908367ffffffffffffffff16021790555060ff600960106101000a81548167ffffffffffffffff021916908367ffffffffffffffff1602179055506000600960186101000a81548167ffffffffffffffff021916908367ffffffffffffffff160217905550600f600a60006101000a81548160ff021916908360ff160217905550603c600a60016101000a81548160ff021916908360ff160217905550620001e8620001ee60201b60201c565b620006d1565b60011515600a60029054906101000a900460ff1615151462000278576040517f08c379a00000000000000000000000000000000000000000000000000000000081526004018080602001828103825260158152602001807f436f6e7472616374207761732064697361626c6564000000000000000000000081525060200191505060405180910390fd5b600a60039054906101000a900460ff1615620002b25760006005819055506000600a60036101000a81548160ff0219169083151502179055505b42600b819055506000600281620002ca919062000591565b50620002db6200040160201b60201c565b600460006101000a81548167ffffffffffffffff021916908367ffffffffffffffff1602179055506000600160146101000a81548160ff021916908360018111156200032357fe5b02179055507ffdf2bc4b463433ab95187f69622b0d3e4305cbcf27c35e8dfb9175adaef97a6d600854600460009054906101000a900467ffffffffffffffff16600a60009054906101000a900460ff16600a60019054906101000a900460ff16600960109054906101000a900467ffffffffffffffff16604051808681526020018567ffffffffffffffff1667ffffffffffffffff1681526020018460ff1660ff1681526020018360ff1660ff1681526020018267ffffffffffffffff1667ffffffffffffffff1681526020019550505050505060405180910390a1565b6000600960089054906101000a900467ffffffffffffffff166001600960009054906101000a900467ffffffffffffffff160167ffffffffffffffff166200044e6200046760201b60201c565b67ffffffffffffffff16816200046057fe5b0601905090565b6000806200047d4442016200054c60201b60201c565b8051906020012060001c905060008090505b600280549050811015620005445760008090505b60028281548110620004b157fe5b906000526020600020906003020160020180549050811015620005355760028281548110620004dc57fe5b90600052602060002090600302016002018181548110620004f957fe5b90600052602060002090600491828204019190066008029054906101000a900467ffffffffffffffff16831892508080600101915050620004a3565b5080806001019150506200048f565b508091505090565b606060206040519080825280601f01601f191660200182016040528015620005835781602001600182028038833980820191505090505b509050816020820152919050565b815481835581811115620005c157600302816003028360005260206000209182019101620005c09190620005c6565b5b505050565b6200063091905b808211156200062c57600080820160006101000a81549073ffffffffffffffffffffffffffffffffffffffff021916905560018201600062000610919062000633565b6002820160006200062291906200067f565b50600301620005cd565b5090565b90565b50805460018160011615610100020316600290046000825580601f106200065b57506200067c565b601f0160209004906000526020600020908101906200067b9190620006a9565b5b50565b508054600082556003016004900490600052602060002090810190620006a69190620006a9565b50565b620006ce91905b80821115620006ca576000816000905550600101620006b0565b5090565b90565b6126be80620006e16000396000f3fe60806040526004361061011f5760003560e01c806379ba5097116100a0578063d4ee1d9011610064578063d4ee1d90146105da578063e31a811614610631578063e89de8be1461065c578063f2d67334146107ab578063f2fde38b146107d65761011f565b806379ba5097146104b15780638da5cb5b146104c8578063a7a5538f1461051f578063b5c77ec91461055e578063cb2face91461059b5761011f565b806355e3f086116100e757806355e3f0861461027b57806359328401146102a657806367119e06146103b8578063749aa2d91461040957806375292dc8146104345761011f565b80630c4f65bd14610124578063196f65d31461017b5780631ad06393146101ba57806327de87941461021157806345e0084a1461023c575b600080fd5b34801561013057600080fd5b50610139610827565b604051808273ffffffffffffffffffffffffffffffffffffffff1673ffffffffffffffffffffffffffffffffffffffff16815260200191505060405180910390f35b34801561018757600080fd5b50610190610850565b604051808267ffffffffffffffff1667ffffffffffffffff16815260200191505060405180910390f35b3480156101c657600080fd5b506101cf61086e565b604051808273ffffffffffffffffffffffffffffffffffffffff1673ffffffffffffffffffffffffffffffffffffffff16815260200191505060405180910390f35b34801561021d57600080fd5b50610226610898565b6040518082815260200191505060405180910390f35b34801561024857600080fd5b506102516108a2565b604051808267ffffffffffffffff1667ffffffffffffffff16815260200191505060405180910390f35b34801561028757600080fd5b506102906108c0565b6040518082815260200191505060405180910390f35b3480156102b257600080fd5b506102f5600480360360208110156102c957600080fd5b81019080803573ffffffffffffffffffffffffffffffffffffffff1690602001909291905050506108c6565b604051808060200180602001838103835285818151815260200191508051906020019080838360005b8381101561033957808201518184015260208101905061031e565b50505050905090810190601f1680156103665780820380516001836020036101000a031916815260200191505b50838103825284818151815260200191508051906020019060200280838360005b838110156103a2578082015181840152602081019050610387565b5050505090500194505050505060405180910390f35b3480156103c457600080fd5b50610407600480360360208110156103db57600080fd5b81019080803573ffffffffffffffffffffffffffffffffffffffff169060200190929190505050610b2f565b005b34801561041557600080fd5b5061041e610bcc565b6040518082815260200191505060405180910390f35b34801561044057600080fd5b506104af600480360360a081101561045757600080fd5b8101908080359060200190929190803567ffffffffffffffff169060200190929190803567ffffffffffffffff169060200190929190803560ff169060200190929190803560ff169060200190929190505050610bd2565b005b3480156104bd57600080fd5b506104c6610efe565b005b3480156104d457600080fd5b506104dd61109b565b604051808273ffffffffffffffffffffffffffffffffffffffff1673ffffffffffffffffffffffffffffffffffffffff16815260200191505060405180910390f35b34801561052b57600080fd5b506105346110c0565b604051808267ffffffffffffffff1667ffffffffffffffff16815260200191505060405180910390f35b34801561056a57600080fd5b506105996004803603602081101561058157600080fd5b810190808035151590602001909291905050506110cd565b005b3480156105a757600080fd5b506105b06111c4565b604051808267ffffffffffffffff1667ffffffffffffffff16815260200191505060405180910390f35b3480156105e657600080fd5b506105ef6111e2565b604051808273ffffffffffffffffffffffffffffffffffffffff1673ffffffffffffffffffffffffffffffffffffffff16815260200191505060405180910390f35b34801561063d57600080fd5b50610646611208565b6040518082815260200191505060405180910390f35b6107a96004803603604081101561067257600080fd5b810190808035906020019064010000000081111561068f57600080fd5b8201836020820111156106a157600080fd5b803590602001918460018302840111640100000000831117156106c357600080fd5b91908080601f016020809104026020016040519081016040528093929190818152602001838380828437600081840152601f19601f8201169050808301925050505050505091929192908035906020019064010000000081111561072657600080fd5b82018360208201111561073857600080fd5b8035906020019184602083028401116401000000008311171561075a57600080fd5b919080806020026020016040519081016040528093929190818152602001838360200280828437600081840152601f19601f820116905080830192505050505050509192919290505050611212565b005b3480156107b757600080fd5b506107c0611722565b6040518082815260200191505060405180910390f35b3480156107e257600080fd5b50610825600480360360208110156107f957600080fd5b81019080803573ffffffffffffffffffffffffffffffffffffffff16906020019092919050505061172c565b005b60008060009054906101000a900473ffffffffffffffffffffffffffffffffffffffff16905090565b6000600460009054906101000a900467ffffffffffffffff16905090565b6000600760009054906101000a900473ffffffffffffffffffffffffffffffffffffffff16905090565b6000600654905090565b6000600960109054906101000a900467ffffffffffffffff16905090565b600b5481565b6060806108d1612364565b60008090505b600280549050811015610b14578473ffffffffffffffffffffffffffffffffffffffff166002828154811061090857fe5b906000526020600020906003020160000160009054906101000a900473ffffffffffffffffffffffffffffffffffffffff1673ffffffffffffffffffffffffffffffffffffffff161415610b07576002818154811061096357fe5b90600052602060002090600302016040518060600160405290816000820160009054906101000a900473ffffffffffffffffffffffffffffffffffffffff1673ffffffffffffffffffffffffffffffffffffffff1673ffffffffffffffffffffffffffffffffffffffff168152602001600182018054600181600116156101000203166002900480601f016020809104026020016040519081016040528092919081815260200182805460018160011615610100020316600290048015610a6b5780601f10610a4057610100808354040283529160200191610a6b565b820191906000526020600020905b815481529060010190602001808311610a4e57829003601f168201915b5050505050815260200160028201805480602002602001604051908101604052809291908181526020018280548015610af757602002820191906000526020600020906000905b82829054906101000a900467ffffffffffffffff1667ffffffffffffffff1681526020019060080190602082600701049283019260010382029150808411610ab25790505b5050505050815250509150610b14565b80806001019150506108d7565b50806020015181604001518191508090509250925050915091565b6000809054906101000a900473ffffffffffffffffffffffffffffffffffffffff1673ffffffffffffffffffffffffffffffffffffffff163373ffffffffffffffffffffffffffffffffffffffff1614610b8857600080fd5b80600760006101000a81548173ffffffffffffffffffffffffffffffffffffffff021916908373ffffffffffffffffffffffffffffffffffffffff16021790555050565b600c5481565b6000809054906101000a900473ffffffffffffffffffffffffffffffffffffffff1673ffffffffffffffffffffffffffffffffffffffff163373ffffffffffffffffffffffffffffffffffffffff1614610c2b57600080fd5b60001515600a60029054906101000a900460ff16151514610c97576040517f08c379a00000000000000000000000000000000000000000000000000000000081526004018080602001828103825260228152602001806126686022913960400191505060405180910390fd5b6611c37937e08000851015610d14576040517f08c379a00000000000000000000000000000000000000000000000000000000081526004018080602001828103825260108152602001807f6d696e5072696365203e20302e3030350000000000000000000000000000000081525060200191505060405180910390fd5b60018467ffffffffffffffff1611610d94576040517f08c379a00000000000000000000000000000000000000000000000000000000081526004018080602001828103825260148152602001807f6d6178506c6179657252616e646f6d203e3d203200000000000000000000000081525060200191505060405180910390fd5b60098367ffffffffffffffff1611610e14576040517f08c379a000000000000000000000000000000000000000000000000000000000815260040180806020018281038252601a8152602001807f6d61784c75636b794e756d62657252616e646f6d203e3d20313000000000000081525060200191505060405180910390fd5b8460088190555083600960006101000a81548167ffffffffffffffff021916908367ffffffffffffffff1602179055506005600960086101000a81548167ffffffffffffffff021916908367ffffffffffffffff16021790555082600960106101000a81548167ffffffffffffffff021916908367ffffffffffffffff1602179055506000600960186101000a81548167ffffffffffffffff021916908367ffffffffffffffff16021790555081600a60006101000a81548160ff021916908360ff16021790555080600a60016101000a81548160ff021916908360ff1602179055505050505050565b600160009054906101000a900473ffffffffffffffffffffffffffffffffffffffff1673ffffffffffffffffffffffffffffffffffffffff163373ffffffffffffffffffffffffffffffffffffffff1614610f5857600080fd5b600160009054906101000a900473ffffffffffffffffffffffffffffffffffffffff1673ffffffffffffffffffffffffffffffffffffffff166000809054906101000a900473ffffffffffffffffffffffffffffffffffffffff1673ffffffffffffffffffffffffffffffffffffffff167f8be0079c531659141344cd1fd0a4f28419497f9722a3daafe3b4186f6b6457e060405160405180910390a3600160009054906101000a900473ffffffffffffffffffffffffffffffffffffffff166000806101000a81548173ffffffffffffffffffffffffffffffffffffffff021916908373ffffffffffffffffffffffffffffffffffffffff1602179055506000600160006101000a81548173ffffffffffffffffffffffffffffffffffffffff021916908373ffffffffffffffffffffffffffffffffffffffff160217905550565b6000809054906101000a900473ffffffffffffffffffffffffffffffffffffffff1681565b6000600280549050905090565b6000809054906101000a900473ffffffffffffffffffffffffffffffffffffffff1673ffffffffffffffffffffffffffffffffffffffff163373ffffffffffffffffffffffffffffffffffffffff161461112657600080fd5b80600a60026101000a81548160ff0219169083151502179055506000151581151514801561117957506000600181111561115c57fe5b600160149054906101000a900460ff16600181111561117757fe5b145b801561118757506000600554115b801561119857506000600280549050115b156111aa576111a56117c9565b6111c1565b6001151581151514156111c0576111bf611f8a565b5b5b50565b6000600460089054906101000a900467ffffffffffffffff16905090565b600160009054906101000a900473ffffffffffffffffffffffffffffffffffffffff1681565b6000600854905090565b60011515600a60029054906101000a900460ff1615151461129b576040517f08c379a00000000000000000000000000000000000000000000000000000000081526004018080602001828103825260158152602001807f436f6e7472616374207761732064697361626c6564000000000000000000000081525060200191505060405180910390fd5b600060018111156112a857fe5b600160149054906101000a900460ff1660018111156112c357fe5b14611336576040517f08c379a00000000000000000000000000000000000000000000000000000000081526004018080602001828103825260178152602001807f47616d65207374617465206973206e6f742076616c696400000000000000000081525060200191505060405180910390fd5b60008151116113ad576040517f08c379a00000000000000000000000000000000000000000000000000000000081526004018080602001828103825260118152602001807f4174206c656173742031206e756d62657200000000000000000000000000000081525060200191505060405180910390fd5b805160085402341015611428576040517f08c379a00000000000000000000000000000000000000000000000000000000081526004018080602001828103825260128152602001807f56616c7565206973206e6f742076616c6964000000000000000000000000000081525060200191505060405180910390fd5b60008090505b600280549050811015611585573373ffffffffffffffffffffffffffffffffffffffff166002828154811061145f57fe5b906000526020600020906003020160000160009054906101000a900473ffffffffffffffffffffffffffffffffffffffff1673ffffffffffffffffffffffffffffffffffffffff1614156114b257600080fd5b60008090505b600282815481106114c557fe5b90600052602060002090600302016002018054905081101561157757600960109054906101000a900467ffffffffffffffff1667ffffffffffffffff166002838154811061150f57fe5b9060005260206000209060030201600201828154811061152b57fe5b90600052602060002090600491828204019190066008029054906101000a900467ffffffffffffffff1667ffffffffffffffff16111561156a57600080fd5b80806001019150506114b8565b50808060010191505061142e565b503460056000828254019250508190555061159e612364565b60405180606001604052803373ffffffffffffffffffffffffffffffffffffffff1681526020018481526020018381525090506002819080600181540180825580915050906001820390600052602060002090600302016000909192909190915060008201518160000160006101000a81548173ffffffffffffffffffffffffffffffffffffffff021916908373ffffffffffffffffffffffffffffffffffffffff160217905550602082015181600101908051906020019061166292919061239b565b50604082015181600201908051906020019061167f92919061241b565b50505050806000015173ffffffffffffffffffffffffffffffffffffffff167f14ef9390b146c40dce0e3b8c9e5c9286fe8a07b054f852e06fe9e2efc28f7e3d60405160405180910390a2600460009054906101000a900467ffffffffffffffff1667ffffffffffffffff166002805490501061171d576116fe6117c9565b600a60029054906101000a900460ff161561171c5761171b611f8a565b5b5b505050565b6000600554905090565b6000809054906101000a900473ffffffffffffffffffffffffffffffffffffffff1673ffffffffffffffffffffffffffffffffffffffff163373ffffffffffffffffffffffffffffffffffffffff161461178557600080fd5b80600160006101000a81548173ffffffffffffffffffffffffffffffffffffffff021916908373ffffffffffffffffffffffffffffffffffffffff16021790555050565b60018060146101000a81548160ff021916908360018111156117e757fe5b02179055506005546006819055506117fd612190565b600460086101000a81548167ffffffffffffffff021916908367ffffffffffffffff160217905550600060038161183491906124d7565b5060008090505b6002805490508110156119bb5760008090505b6002828154811061185b57fe5b9060005260206000209060030201600201805490508110156119ad57600460089054906101000a900467ffffffffffffffff1667ffffffffffffffff16600283815481106118a557fe5b906000526020600020906003020160020182815481106118c157fe5b90600052602060002090600491828204019190066008029054906101000a900467ffffffffffffffff1667ffffffffffffffff1614156119a05760036002838154811061190a57fe5b906000526020600020906003020160000160009054906101000a900473ffffffffffffffffffffffffffffffffffffffff1690806001815401808255809150509060018203906000526020600020016000909192909190916101000a81548173ffffffffffffffffffffffffffffffffffffffff021916908373ffffffffffffffffffffffffffffffffffffffff160217905550505b808060010191505061184e565b50808060010191505061183b565b5060008090506000809050606060006003805490501115611b025760006003805490506064600a60019054906101000a900460ff1660ff1660055402816119fe57fe5b0481611a0657fe5b04905060008090505b600380549050811015611ae05760038181548110611a2957fe5b9060005260206000200160009054906101000a900473ffffffffffffffffffffffffffffffffffffffff1673ffffffffffffffffffffffffffffffffffffffff1682614f5d90604051806000019050600060405180830381858888f193505050503d8060008114611ab6576040519150601f19603f3d011682016040523d82523d6000602084013e611abb565b606091505b50809450819550505083611ace57600080fd5b81850194508080600101915050611a0f565b506001600a60036101000a81548160ff02191690831515021790555050611b15565b606460326005540281611b1157fe5b0492505b60006064600a60009054906101000a900460ff1660ff166005540281611b3757fe5b049050600a60039054906101000a900460ff16611b62576064600580540281611b5c57fe5b04810190505b600760009054906101000a900473ffffffffffffffffffffffffffffffffffffffff1673ffffffffffffffffffffffffffffffffffffffff1681614f5d90604051806000019050600060405180830381858888f193505050503d8060008114611be7576040519150601f19603f3d011682016040523d82523d6000602084013e611bec565b606091505b50809350819450505082611bff57600080fd5b6000809054906101000a900473ffffffffffffffffffffffffffffffffffffffff1673ffffffffffffffffffffffffffffffffffffffff1681856005540303614f5d90604051806000019050600060405180830381858888f193505050503d8060008114611c89576040519150601f19603f3d011682016040523d82523d6000602084013e611c8e565b606091505b50809350819450505082611ca157600080fd5b8360058190555042600c819055506202a300600b54600c54031015611e2f5760001967ffffffffffffffff16600960089054906101000a900467ffffffffffffffff1667ffffffffffffffff161015611d3c576009600881819054906101000a900467ffffffffffffffff168092919060010191906101000a81548167ffffffffffffffff021916908367ffffffffffffffff160217905550505b60001967ffffffffffffffff16600960189054906101000a900467ffffffffffffffff1667ffffffffffffffff161015611db8576009601881819054906101000a900467ffffffffffffffff168092919060010191906101000a81548167ffffffffffffffff021916908367ffffffffffffffff160217905550505b6103e8600960009054906101000a900467ffffffffffffffff1667ffffffffffffffff161015611e2a576009600081819054906101000a900467ffffffffffffffff168092919060010191906101000a81548167ffffffffffffffff021916908367ffffffffffffffff160217905550505b611ea2565b6005600960089054906101000a900467ffffffffffffffff1667ffffffffffffffff161115611ea1576009600881819054906101000a900467ffffffffffffffff16809291906001900391906101000a81548167ffffffffffffffff021916908367ffffffffffffffff160217905550505b5b6003604051808280548015611f0c57602002820191906000526020600020905b8160009054906101000a900473ffffffffffffffffffffffffffffffffffffffff1673ffffffffffffffffffffffffffffffffffffffff1681526020019060010190808311611ec2575b505091505060405180910390207fa06a0572fcae48117f79772b56e393d8a07cb47bffa09a171c665a2145537524600460089054906101000a900467ffffffffffffffff16600654604051808367ffffffffffffffff1667ffffffffffffffff1681526020018281526020019250505060405180910390a250505050565b60011515600a60029054906101000a900460ff16151514612013576040517f08c379a00000000000000000000000000000000000000000000000000000000081526004018080602001828103825260158152602001807f436f6e7472616374207761732064697361626c6564000000000000000000000081525060200191505060405180910390fd5b600a60039054906101000a900460ff161561204c5760006005819055506000600a60036101000a81548160ff0219169083151502179055505b42600b8190555060006002816120629190612503565b5061206b6121ed565b600460006101000a81548167ffffffffffffffff021916908367ffffffffffffffff1602179055506000600160146101000a81548160ff021916908360018111156120b257fe5b02179055507ffdf2bc4b463433ab95187f69622b0d3e4305cbcf27c35e8dfb9175adaef97a6d600854600460009054906101000a900467ffffffffffffffff16600a60009054906101000a900460ff16600a60019054906101000a900460ff16600960109054906101000a900467ffffffffffffffff16604051808681526020018567ffffffffffffffff1667ffffffffffffffff1681526020018460ff1660ff1681526020018360ff1660ff1681526020018267ffffffffffffffff1667ffffffffffffffff1681526020019550505050505060405180910390a1565b6000600960189054906101000a900467ffffffffffffffff166001600960109054906101000a900467ffffffffffffffff16010167ffffffffffffffff166121d661224a565b67ffffffffffffffff16816121e757fe5b06905090565b6000600960089054906101000a900467ffffffffffffffff166001600960009054906101000a900467ffffffffffffffff160167ffffffffffffffff1661223261224a565b67ffffffffffffffff168161224357fe5b0601905090565b600080612258444201612320565b8051906020012060001c905060008090505b6002805490508110156123185760008090505b6002828154811061228a57fe5b90600052602060002090600302016002018054905081101561230a57600282815481106122b357fe5b906000526020600020906003020160020181815481106122cf57fe5b90600052602060002090600491828204019190066008029054906101000a900467ffffffffffffffff1683189250808060010191505061227d565b50808060010191505061226a565b508091505090565b606060206040519080825280601f01601f1916602001820160405280156123565781602001600182028038833980820191505090505b509050816020820152919050565b6040518060600160405280600073ffffffffffffffffffffffffffffffffffffffff16815260200160608152602001606081525090565b828054600181600116156101000203166002900490600052602060002090601f016020900481019282601f106123dc57805160ff191683800117855561240a565b8280016001018555821561240a579182015b828111156124095782518255916020019190600101906123ee565b5b5090506124179190612535565b5090565b828054828255906000526020600020906003016004900481019282156124c65791602002820160005b8382111561249057835183826101000a81548167ffffffffffffffff021916908367ffffffffffffffff1602179055509260200192600801602081600701049283019260010302612444565b80156124c45782816101000a81549067ffffffffffffffff0219169055600801602081600701049283019260010302612490565b505b5090506124d3919061255a565b5090565b8154818355818111156124fe578183600052602060002091820191016124fd9190612535565b5b505050565b8154818355818111156125305760030281600302836000526020600020918201910161252f9190612591565b5b505050565b61255791905b8082111561255357600081600090555060010161253b565b5090565b90565b61258e91905b8082111561258a57600081816101000a81549067ffffffffffffffff021916905550600101612560565b5090565b90565b6125f491905b808211156125f057600080820160006101000a81549073ffffffffffffffffffffffffffffffffffffffff02191690556001820160006125d791906125f7565b6002820160006125e7919061263f565b50600301612597565b5090565b90565b50805460018160011615610100020316600290046000825580601f1061261d575061263c565b601f01602090049060005260206000209081019061263b9190612535565b5b50565b5080546000825560030160049004906000526020600020908101906126649190612535565b5056fe4e65656420746f2064697361626c652074686520636f6e7472616374206669727374a265627a7a72315820e27e21cbc902dcbc68b9e58972f88c61541429bc56e1b239d60d635b4026af3d64736f6c63430005100032",
  "source": "pragma solidity >=0.5.0 <0.7.0;\n\n/**\nOwned contract\n */\ncontract Owned {\n  address payable public owner;\n  address payable public newOwner;\n\n  event OwnershipTransferred(address indexed _from, address indexed _to);\n\n  constructor () public {\n    owner = msg.sender;\n  }\n\n  modifier onlyOwner {\n    require(msg.sender == owner);\n    _;\n  }\n\n  function transferOwnership(address payable _newOwner) public onlyOwner {\n    newOwner = _newOwner;\n  }\n\n  function acceptOwnership() public {\n    require(msg.sender == newOwner);\n    emit OwnershipTransferred(owner, newOwner);\n    owner = newOwner;\n    newOwner = address(0);\n  }\n}\n\ncontract CryptoLott is Owned {\n\n  struct Player {\n    address payable playerAddress;\n    string playerName;\n    uint64[] playerNumbers;\n  }\n\n  enum State {\n    Accepting,\n    Finished\n  }\n\n  uint64 private constant UINT64_MAX = ~uint64(0);\n\n  State private state;\n  Player[] private playerList;\n  address[] private winnerAddressList;\n  uint64 private playerInSession;\n  uint64 private lastLuckyNumber;\n  uint256 private totalFund;\n  uint256 private lastTotalFund;\n\n  address payable private charityAddress;\n  uint256 private minPrice;\n  uint64 private maxPlayerRandom;\n  uint64 private playerRandomPadding;\n  uint64 private maxLuckyNumberRandom;\n  uint64 private luckyNumberRandomPadding;\n  uint8 private charityRate;\n  uint8 private winnerRate;\n  bool private contractActive;\n  bool private hasWinner;\n\n  uint public startRound;\n  uint public endRound;\n\n  // @anomous: Event\n  event PlayerRegisterEvent(address indexed _playerAddress);\n  event GameSessionBeginEvent(uint256 _minPrice, uint64 _playerInSession, uint8 _charityRate, uint8 _winnerRate, uint64 _luckyNumberRange);\n  event GameSessionEndEvent(address[] indexed _winnerAddressList, uint64 _luckyNumber, uint256 _totalReward);\n\n  constructor () public {\n    hasWinner = true;\n    contractActive = true;\n    charityAddress = owner;\n    minPrice = 0.01 ether;\n    maxPlayerRandom = 2;\n    playerRandomPadding = 5;\n    maxLuckyNumberRandom = 255;\n    luckyNumberRandomPadding = 0;\n    charityRate = 15;\n    winnerRate = 60;\n    //-------------\n    gameInit();\n  }\n\n  function enableContract(bool status) public onlyOwner {\n    contractActive = status;\n    if (status == false && state == State.Accepting && totalFund > 0 && playerList.length > 0) {\n      finishGame();\n    } else if (status == true) {\n      gameInit();\n    }\n  }\n\n  function upCharityAddress(address payable _charityAddress) public onlyOwner {\n    charityAddress = _charityAddress;\n  }\n\n  function config(uint256 _minPrice, uint64 _maxPlayerRandom,\n    uint64 _maxLuckyNumberRandom, uint8 _charityRate, uint8 _winnerRate) public onlyOwner {\n    require(contractActive == false, \"Need to disable the contract first\");\n    require(_minPrice >= 0.005 ether, \"minPrice > 0.005\");\n    require(_maxPlayerRandom > 1, \"maxPlayerRandom >= 2\");\n    require(_maxLuckyNumberRandom > 9, \"maxLuckyNumberRandom >= 10\");\n    minPrice = _minPrice;\n    maxPlayerRandom = _maxPlayerRandom;\n    playerRandomPadding = 5;\n    maxLuckyNumberRandom = _maxLuckyNumberRandom;\n    luckyNumberRandomPadding = 0;\n    charityRate = _charityRate;\n    winnerRate = _winnerRate;\n  }\n\n  function gameInit() private {\n    require(contractActive == true, \"Contract was disabled\");\n    if (hasWinner) {\n      totalFund = 0;\n      hasWinner = false;\n    }\n    startRound = now;\n    playerList.length = 0;\n    playerInSession = randomMaxPlayer();\n    state = State.Accepting;\n    emit GameSessionBeginEvent(minPrice, playerInSession, charityRate, winnerRate, maxLuckyNumberRandom);\n  }\n\n  // Register player\n  function playerRegister(string memory name, uint64[] memory numbers) payable public {\n    require(contractActive == true, \"Contract was disabled\");\n    require(state == State.Accepting, \"Game state is not valid\");\n    require(numbers.length > 0, \"At least 1 number\");\n    require(msg.value >= minPrice * numbers.length, \"Value is not valid\");\n\n    for (uint i = 0; i < playerList.length; i++) {\n      require(playerList[i].playerAddress != msg.sender);\n      for (uint j = 0; j < playerList[i].playerNumbers.length; j++) {\n        require(playerList[i].playerNumbers[j] <= maxLuckyNumberRandom);\n      }\n    }\n\n    totalFund += msg.value;\n    Player memory player = Player(msg.sender, name, numbers);\n    playerList.push(player);\n    emit PlayerRegisterEvent(player.playerAddress);\n\n    if (playerList.length >= playerInSession) {\n      finishGame();\n\n      if (contractActive) {\n        // Init new game session\n        gameInit();\n      }\n    }\n  }\n\n  function getMinPrice() public view returns (uint256) {\n    return uint256(minPrice);\n  }\n\n  function getCountPlayer() public view returns (uint64) {\n    return uint64(playerList.length);\n  }\n\n  function getMaxPlayer() public view returns (uint64) {\n    return uint64(playerInSession);\n  }\n\n  function getMaxLuckyRandomNumber() public view returns (uint64) {\n    return uint64(maxLuckyNumberRandom);\n  }\n\n  function getLastTotalFund() public view returns (uint256) {\n    return uint256(lastTotalFund);\n  }\n\n  function getLastLuckyNumber() public view returns (uint64) {\n    return uint64(lastLuckyNumber);\n  }\n\n  function getCurrentFund() public view returns (uint256) {\n    return uint256(totalFund);\n  }\n\n  function getCharityAddress() public view returns (address) {\n    return address(charityAddress);\n  }\n\n  function getOwnerAddress() public view returns (address) {\n    return address(owner);\n  }\n\n  function getPlayerInfo(address playerAddress) public view returns (string memory playerName, uint64[] memory playerNumbers) {\n    Player memory player;\n    for (uint i = 0; i < playerList.length; i++) {\n      if (playerList[i].playerAddress == playerAddress) {\n        player = playerList[i];\n        break;\n      }\n    }\n    return (player.playerName, player.playerNumbers);\n  }\n\n  function finishGame() private {\n    state = State.Finished;\n    // Finish session && find winner\n    lastTotalFund = totalFund;\n    lastLuckyNumber = randomLuckyNumber();\n\n    winnerAddressList.length = 0;\n    // Determine winner\n    for (uint i = 0; i < playerList.length; i++) {\n      for (uint j = 0; j < playerList[i].playerNumbers.length; j++) {\n        if (playerList[i].playerNumbers[j] == lastLuckyNumber) {\n          winnerAddressList.push(playerList[i].playerAddress);\n        }\n      }\n    }\n\n    // Distribute Funds\n    uint256 winnerFunds = 0;\n    bool success = false;\n    bytes memory _;\n    if (winnerAddressList.length > 0) {\n      uint256 winnerFund = totalFund * winnerRate / 100 / winnerAddressList.length;\n      for (uint i = 0; i < winnerAddressList.length; i++) {\n        (success, _) = winnerAddressList[i].call.value(winnerFund).gas(20317)(\"\");\n        if (!success) {\n          revert();\n        }\n        winnerFunds += winnerFund;\n      }\n      hasWinner = true;\n    } else {\n      winnerFunds = totalFund * 50 / 100;\n    }\n\n    uint256 charityFund = totalFund * charityRate / 100;\n    if (!hasWinner) {\n      charityFund += totalFund * 5 / 100;\n    }\n\n    (success, _) = charityAddress.call.value(charityFund).gas(20317)(\"\");\n    if (!success) {\n      revert();\n    }\n    (success, _) = owner.call.value(totalFund - winnerFunds - charityFund).gas(20317)(\"\");\n    if (!success) {\n      revert();\n    }\n    totalFund = winnerFunds;\n\n    endRound = now;\n    if (endRound - startRound < 2 days) {\n      if (playerRandomPadding < UINT64_MAX) playerRandomPadding ++;\n      if (luckyNumberRandomPadding < UINT64_MAX) luckyNumberRandomPadding ++;\n      if (maxPlayerRandom < 1000) maxPlayerRandom ++;\n    } else if (playerRandomPadding > 5) {\n      playerRandomPadding --;\n    }\n\n    emit GameSessionEndEvent(winnerAddressList, lastLuckyNumber, lastTotalFund);\n  }\n\n  function toBytes(uint256 x) internal pure returns (bytes memory b) {\n    b = new bytes(32);\n    assembly {mstore(add(b, 32), x)}\n  }\n\n  function random() private view returns (uint64) {\n    uint64 randomNumber = uint64(uint256(keccak256(toBytes(block.timestamp + block.difficulty))));\n    for (uint i = 0; i < playerList.length; i++) {\n      for (uint j = 0; j < playerList[i].playerNumbers.length; j++) {\n        randomNumber ^= playerList[i].playerNumbers[j];\n      }\n    }\n    return randomNumber;\n  }\n\n  function randomLuckyNumber() private view returns (uint64) {\n    return random() % (maxLuckyNumberRandom + 1 + luckyNumberRandomPadding);\n  }\n\n  function randomMaxPlayer() private view returns (uint64) {\n    return (random() % (maxPlayerRandom + 1)) + playerRandomPadding;\n  }\n}\n",
  "sourcePath": "/Volumes/Data/Projects/_self/cryts/ethereum-smartcontracts/truffle/smartcontracts/contracts/CryptoLott.sol",
  "compiler": {
    "name": "solc",
    "version": "0.5.16+commit.9c3226ce.Emscripten.clang"
  },
  "schemaVersion": "3.3.4",
  "updatedAt": "2021-03-26T16:54:22.333Z",
  "networkType": "ethereum",
  "devdoc": {
    "methods": {}
  },
  "userdoc": {
    "methods": {}
  }
}