{
  "contractName": "UniqueAsset",
  "abi": [
    {
      "inputs": [],
      "stateMutability": "nonpayable",
      "type": "constructor"
    },
    {
      "anonymous": false,
      "inputs": [
        {
          "indexed": true,
          "internalType": "address",
          "name": "owner",
          "type": "address"
        },
        {
          "indexed": true,
          "internalType": "address",
          "name": "approved",
          "type": "address"
        },
        {
          "indexed": true,
          "internalType": "uint256",
          "name": "tokenId",
          "type": "uint256"
        }
      ],
      "name": "Approval",
      "type": "event"
    },
    {
      "anonymous": false,
      "inputs": [
        {
          "indexed": true,
          "internalType": "address",
          "name": "owner",
          "type": "address"
        },
        {
          "indexed": true,
          "internalType": "address",
          "name": "operator",
          "type": "address"
        },
        {
          "indexed": false,
          "internalType": "bool",
          "name": "approved",
          "type": "bool"
        }
      ],
      "name": "ApprovalForAll",
      "type": "event"
    },
    {
      "anonymous": false,
      "inputs": [
        {
          "indexed": true,
          "internalType": "address",
          "name": "from",
          "type": "address"
        },
        {
          "indexed": true,
          "internalType": "address",
          "name": "to",
          "type": "address"
        },
        {
          "indexed": true,
          "internalType": "uint256",
          "name": "tokenId",
          "type": "uint256"
        }
      ],
      "name": "Transfer",
      "type": "event"
    },
    {
      "inputs": [
        {
          "internalType": "address",
          "name": "to",
          "type": "address"
        },
        {
          "internalType": "uint256",
          "name": "tokenId",
          "type": "uint256"
        }
      ],
      "name": "approve",
      "outputs": [],
      "stateMutability": "nonpayable",
      "type": "function"
    },
    {
      "inputs": [
        {
          "internalType": "address",
          "name": "owner",
          "type": "address"
        }
      ],
      "name": "balanceOf",
      "outputs": [
        {
          "internalType": "uint256",
          "name": "",
          "type": "uint256"
        }
      ],
      "stateMutability": "view",
      "type": "function",
      "constant": true
    },
    {
      "inputs": [
        {
          "internalType": "uint256",
          "name": "tokenId",
          "type": "uint256"
        }
      ],
      "name": "getApproved",
      "outputs": [
        {
          "internalType": "address",
          "name": "",
          "type": "address"
        }
      ],
      "stateMutability": "view",
      "type": "function",
      "constant": true
    },
    {
      "inputs": [
        {
          "internalType": "address",
          "name": "owner",
          "type": "address"
        },
        {
          "internalType": "address",
          "name": "operator",
          "type": "address"
        }
      ],
      "name": "isApprovedForAll",
      "outputs": [
        {
          "internalType": "bool",
          "name": "",
          "type": "bool"
        }
      ],
      "stateMutability": "view",
      "type": "function",
      "constant": true
    },
    {
      "inputs": [],
      "name": "name",
      "outputs": [
        {
          "internalType": "string",
          "name": "",
          "type": "string"
        }
      ],
      "stateMutability": "view",
      "type": "function",
      "constant": true
    },
    {
      "inputs": [
        {
          "internalType": "uint256",
          "name": "tokenId",
          "type": "uint256"
        }
      ],
      "name": "ownerOf",
      "outputs": [
        {
          "internalType": "address",
          "name": "",
          "type": "address"
        }
      ],
      "stateMutability": "view",
      "type": "function",
      "constant": true
    },
    {
      "inputs": [
        {
          "internalType": "address",
          "name": "from",
          "type": "address"
        },
        {
          "internalType": "address",
          "name": "to",
          "type": "address"
        },
        {
          "internalType": "uint256",
          "name": "tokenId",
          "type": "uint256"
        }
      ],
      "name": "safeTransferFrom",
      "outputs": [],
      "stateMutability": "nonpayable",
      "type": "function"
    },
    {
      "inputs": [
        {
          "internalType": "address",
          "name": "from",
          "type": "address"
        },
        {
          "internalType": "address",
          "name": "to",
          "type": "address"
        },
        {
          "internalType": "uint256",
          "name": "tokenId",
          "type": "uint256"
        },
        {
          "internalType": "bytes",
          "name": "_data",
          "type": "bytes"
        }
      ],
      "name": "safeTransferFrom",
      "outputs": [],
      "stateMutability": "nonpayable",
      "type": "function"
    },
    {
      "inputs": [
        {
          "internalType": "address",
          "name": "operator",
          "type": "address"
        },
        {
          "internalType": "bool",
          "name": "approved",
          "type": "bool"
        }
      ],
      "name": "setApprovalForAll",
      "outputs": [],
      "stateMutability": "nonpayable",
      "type": "function"
    },
    {
      "inputs": [
        {
          "internalType": "bytes4",
          "name": "interfaceId",
          "type": "bytes4"
        }
      ],
      "name": "supportsInterface",
      "outputs": [
        {
          "internalType": "bool",
          "name": "",
          "type": "bool"
        }
      ],
      "stateMutability": "view",
      "type": "function",
      "constant": true
    },
    {
      "inputs": [],
      "name": "symbol",
      "outputs": [
        {
          "internalType": "string",
          "name": "",
          "type": "string"
        }
      ],
      "stateMutability": "view",
      "type": "function",
      "constant": true
    },
    {
      "inputs": [
        {
          "internalType": "uint256",
          "name": "tokenId",
          "type": "uint256"
        }
      ],
      "name": "tokenURI",
      "outputs": [
        {
          "internalType": "string",
          "name": "",
          "type": "string"
        }
      ],
      "stateMutability": "view",
      "type": "function",
      "constant": true
    },
    {
      "inputs": [
        {
          "internalType": "address",
          "name": "from",
          "type": "address"
        },
        {
          "internalType": "address",
          "name": "to",
          "type": "address"
        },
        {
          "internalType": "uint256",
          "name": "tokenId",
          "type": "uint256"
        }
      ],
      "name": "transferFrom",
      "outputs": [],
      "stateMutability": "nonpayable",
      "type": "function"
    },
    {
      "inputs": [
        {
          "internalType": "address",
          "name": "recipient",
          "type": "address"
        },
        {
          "internalType": "string",
          "name": "hash",
          "type": "string"
        },
        {
          "internalType": "string",
          "name": "metadata",
          "type": "string"
        }
      ],
      "name": "awardItem",
      "outputs": [
        {
          "internalType": "uint256",
          "name": "",
          "type": "uint256"
        }
      ],
      "stateMutability": "nonpayable",
      "type": "function"
    }
  ],
  "bytecode": "0x60806040523480156200001157600080fd5b506040518060400160405280600b81526020017f556e6971756541737365740000000000000000000000000000000000000000008152506040518060400160405280600381526020017f554e410000000000000000000000000000000000000000000000000000000000815250816000908051906020019062000096929190620000b8565b508060019080519060200190620000af929190620000b8565b505050620001cd565b828054620000c69062000168565b90600052602060002090601f016020900481019282620000ea576000855562000136565b82601f106200010557805160ff191683800117855562000136565b8280016001018555821562000136579182015b828111156200013557825182559160200191906001019062000118565b5b50905062000145919062000149565b5090565b5b80821115620001645760008160009055506001016200014a565b5090565b600060028204905060018216806200018157607f821691505b602082108114156200019857620001976200019e565b5b50919050565b7f4e487b7100000000000000000000000000000000000000000000000000000000600052602260045260246000fd5b612c2380620001dd6000396000f3fe608060405234801561001057600080fd5b50600436106100ea5760003560e01c806370a082311161008c578063a22cb46511610066578063a22cb4651461026f578063b88d4fde1461028b578063c87b56dd146102a7578063e985e9c5146102d7576100ea565b806370a08231146101f15780638bfaf1011461022157806395d89b4114610251576100ea565b8063095ea7b3116100c8578063095ea7b31461016d57806323b872dd1461018957806342842e0e146101a55780636352211e146101c1576100ea565b806301ffc9a7146100ef57806306fdde031461011f578063081812fc1461013d575b600080fd5b61010960048036038101906101049190611cb9565b610307565b60405161011691906120d6565b60405180910390f35b6101276103e9565b60405161013491906120f1565b60405180910390f35b61015760048036038101906101529190611d0b565b61047b565b604051610164919061206f565b60405180910390f35b61018760048036038101906101829190611c7d565b610500565b005b6101a3600480360381019061019e9190611af8565b610618565b005b6101bf60048036038101906101ba9190611af8565b610678565b005b6101db60048036038101906101d69190611d0b565b610698565b6040516101e8919061206f565b60405180910390f35b61020b60048036038101906102069190611a93565b61074a565b6040516102189190612313565b60405180910390f35b61023b60048036038101906102369190611bfe565b610802565b6040516102489190612313565b60405180910390f35b6102596108af565b60405161026691906120f1565b60405180910390f35b61028960048036038101906102849190611bc2565b610941565b005b6102a560048036038101906102a09190611b47565b610ac2565b005b6102c160048036038101906102bc9190611d0b565b610b24565b6040516102ce91906120f1565b60405180910390f35b6102f160048036038101906102ec9190611abc565b610c76565b6040516102fe91906120d6565b60405180910390f35b60007f80ac58cd000000000000000000000000000000000000000000000000000000007bffffffffffffffffffffffffffffffffffffffffffffffffffffffff1916827bffffffffffffffffffffffffffffffffffffffffffffffffffffffff191614806103d257507f5b5e139f000000000000000000000000000000000000000000000000000000007bffffffffffffffffffffffffffffffffffffffffffffffffffffffff1916827bffffffffffffffffffffffffffffffffffffffffffffffffffffffff1916145b806103e257506103e182610d0a565b5b9050919050565b6060600080546103f890612569565b80601f016020809104026020016040519081016040528092919081815260200182805461042490612569565b80156104715780601f1061044657610100808354040283529160200191610471565b820191906000526020600020905b81548152906001019060200180831161045457829003601f168201915b5050505050905090565b600061048682610d74565b6104c5576040517f08c379a00000000000000000000000000000000000000000000000000000000081526004016104bc90612273565b60405180910390fd5b6004600083815260200190815260200160002060009054906101000a900473ffffffffffffffffffffffffffffffffffffffff169050919050565b600061050b82610698565b90508073ffffffffffffffffffffffffffffffffffffffff168373ffffffffffffffffffffffffffffffffffffffff16141561057c576040517f08c379a0000000000000000000000000000000000000000000000000000000008152600401610573906122d3565b60405180910390fd5b8073ffffffffffffffffffffffffffffffffffffffff1661059b610de0565b73ffffffffffffffffffffffffffffffffffffffff1614806105ca57506105c9816105c4610de0565b610c76565b5b610609576040517f08c379a0000000000000000000000000000000000000000000000000000000008152600401610600906121b3565b60405180910390fd5b6106138383610de8565b505050565b610629610623610de0565b82610ea1565b610668576040517f08c379a000000000000000000000000000000000000000000000000000000000815260040161065f906122f3565b60405180910390fd5b610673838383610f7f565b505050565b61069383838360405180602001604052806000815250610ac2565b505050565b6000806002600084815260200190815260200160002060009054906101000a900473ffffffffffffffffffffffffffffffffffffffff169050600073ffffffffffffffffffffffffffffffffffffffff168173ffffffffffffffffffffffffffffffffffffffff161415610741576040517f08c379a0000000000000000000000000000000000000000000000000000000008152600401610738906121f3565b60405180910390fd5b80915050919050565b60008073ffffffffffffffffffffffffffffffffffffffff168273ffffffffffffffffffffffffffffffffffffffff1614156107bb576040517f08c379a00000000000000000000000000000000000000000000000000000000081526004016107b2906121d3565b60405180910390fd5b600360008373ffffffffffffffffffffffffffffffffffffffff1673ffffffffffffffffffffffffffffffffffffffff168152602001908152602001600020549050919050565b600060016008846040516108169190612034565b908152602001604051809103902060009054906101000a900460ff1660ff16141561084057600080fd5b60016008846040516108529190612034565b908152602001604051809103902060006101000a81548160ff021916908360ff16021790555061088260076111db565b600061088e60076111f1565b905061089a85826111ff565b6108a481846113cd565b809150509392505050565b6060600180546108be90612569565b80601f01602080910402602001604051908101604052809291908181526020018280546108ea90612569565b80156109375780601f1061090c57610100808354040283529160200191610937565b820191906000526020600020905b81548152906001019060200180831161091a57829003601f168201915b5050505050905090565b610949610de0565b73ffffffffffffffffffffffffffffffffffffffff168273ffffffffffffffffffffffffffffffffffffffff1614156109b7576040517f08c379a00000000000000000000000000000000000000000000000000000000081526004016109ae90612173565b60405180910390fd5b80600560006109c4610de0565b73ffffffffffffffffffffffffffffffffffffffff1673ffffffffffffffffffffffffffffffffffffffff16815260200190815260200160002060008473ffffffffffffffffffffffffffffffffffffffff1673ffffffffffffffffffffffffffffffffffffffff16815260200190815260200160002060006101000a81548160ff0219169083151502179055508173ffffffffffffffffffffffffffffffffffffffff16610a71610de0565b73ffffffffffffffffffffffffffffffffffffffff167f17307eab39ab6107e8899845ad3d59bd9653f200f220920489ca2b5937696c3183604051610ab691906120d6565b60405180910390a35050565b610ad3610acd610de0565b83610ea1565b610b12576040517f08c379a0000000000000000000000000000000000000000000000000000000008152600401610b09906122f3565b60405180910390fd5b610b1e84848484611441565b50505050565b6060610b2f82610d74565b610b6e576040517f08c379a0000000000000000000000000000000000000000000000000000000008152600401610b6590612253565b60405180910390fd5b6000600660008481526020019081526020016000208054610b8e90612569565b80601f0160208091040260200160405190810160405280929190818152602001828054610bba90612569565b8015610c075780601f10610bdc57610100808354040283529160200191610c07565b820191906000526020600020905b815481529060010190602001808311610bea57829003601f168201915b505050505090506000610c1861149d565b9050600081511415610c2e578192505050610c71565b600082511115610c63578082604051602001610c4b92919061204b565b60405160208183030381529060405292505050610c71565b610c6c846114b4565b925050505b919050565b6000600560008473ffffffffffffffffffffffffffffffffffffffff1673ffffffffffffffffffffffffffffffffffffffff16815260200190815260200160002060008373ffffffffffffffffffffffffffffffffffffffff1673ffffffffffffffffffffffffffffffffffffffff16815260200190815260200160002060009054906101000a900460ff16905092915050565b60007f01ffc9a7000000000000000000000000000000000000000000000000000000007bffffffffffffffffffffffffffffffffffffffffffffffffffffffff1916827bffffffffffffffffffffffffffffffffffffffffffffffffffffffff1916149050919050565b60008073ffffffffffffffffffffffffffffffffffffffff166002600084815260200190815260200160002060009054906101000a900473ffffffffffffffffffffffffffffffffffffffff1673ffffffffffffffffffffffffffffffffffffffff1614159050919050565b600033905090565b816004600083815260200190815260200160002060006101000a81548173ffffffffffffffffffffffffffffffffffffffff021916908373ffffffffffffffffffffffffffffffffffffffff160217905550808273ffffffffffffffffffffffffffffffffffffffff16610e5b83610698565b73ffffffffffffffffffffffffffffffffffffffff167f8c5be1e5ebec7d5bd14f71427d1e84f3dd0314c0f7b2291e5b200ac8c7c3b92560405160405180910390a45050565b6000610eac82610d74565b610eeb576040517f08c379a0000000000000000000000000000000000000000000000000000000008152600401610ee290612193565b60405180910390fd5b6000610ef683610698565b90508073ffffffffffffffffffffffffffffffffffffffff168473ffffffffffffffffffffffffffffffffffffffff161480610f6557508373ffffffffffffffffffffffffffffffffffffffff16610f4d8461047b565b73ffffffffffffffffffffffffffffffffffffffff16145b80610f765750610f758185610c76565b5b91505092915050565b8273ffffffffffffffffffffffffffffffffffffffff16610f9f82610698565b73ffffffffffffffffffffffffffffffffffffffff1614610ff5576040517f08c379a0000000000000000000000000000000000000000000000000000000008152600401610fec90612293565b60405180910390fd5b600073ffffffffffffffffffffffffffffffffffffffff168273ffffffffffffffffffffffffffffffffffffffff161415611065576040517f08c379a000000000000000000000000000000000000000000000000000000000815260040161105c90612153565b60405180910390fd5b61107083838361155b565b61107b600082610de8565b6001600360008573ffffffffffffffffffffffffffffffffffffffff1673ffffffffffffffffffffffffffffffffffffffff16815260200190815260200160002060008282546110cb919061247f565b925050819055506001600360008473ffffffffffffffffffffffffffffffffffffffff1673ffffffffffffffffffffffffffffffffffffffff168152602001908152602001600020600082825461112291906123f8565b92505081905550816002600083815260200190815260200160002060006101000a81548173ffffffffffffffffffffffffffffffffffffffff021916908373ffffffffffffffffffffffffffffffffffffffff160217905550808273ffffffffffffffffffffffffffffffffffffffff168473ffffffffffffffffffffffffffffffffffffffff167fddf252ad1be2c89b69c2b068fc378daa952ba7f163c4a11628f55a4df523b3ef60405160405180910390a4505050565b6001816000016000828254019250508190555050565b600081600001549050919050565b600073ffffffffffffffffffffffffffffffffffffffff168273ffffffffffffffffffffffffffffffffffffffff16141561126f576040517f08c379a000000000000000000000000000000000000000000000000000000000815260040161126690612233565b60405180910390fd5b61127881610d74565b156112b8576040517f08c379a00000000000000000000000000000000000000000000000000000000081526004016112af90612133565b60405180910390fd5b6112c46000838361155b565b6001600360008473ffffffffffffffffffffffffffffffffffffffff1673ffffffffffffffffffffffffffffffffffffffff168152602001908152602001600020600082825461131491906123f8565b92505081905550816002600083815260200190815260200160002060006101000a81548173ffffffffffffffffffffffffffffffffffffffff021916908373ffffffffffffffffffffffffffffffffffffffff160217905550808273ffffffffffffffffffffffffffffffffffffffff16600073ffffffffffffffffffffffffffffffffffffffff167fddf252ad1be2c89b69c2b068fc378daa952ba7f163c4a11628f55a4df523b3ef60405160405180910390a45050565b6113d682610d74565b611415576040517f08c379a000000000000000000000000000000000000000000000000000000000815260040161140c90612213565b60405180910390fd5b8060066000848152602001908152602001600020908051906020019061143c9291906118b7565b505050565b61144c848484610f7f565b61145884848484611560565b611497576040517f08c379a000000000000000000000000000000000000000000000000000000000815260040161148e90612113565b60405180910390fd5b50505050565b606060405180602001604052806000815250905090565b60606114bf82610d74565b6114fe576040517f08c379a00000000000000000000000000000000000000000000000000000000081526004016114f5906122b3565b60405180910390fd5b600061150861149d565b905060008151116115285760405180602001604052806000815250611553565b80611532846116f7565b60405160200161154392919061204b565b6040516020818303038152906040525b915050919050565b505050565b60006115818473ffffffffffffffffffffffffffffffffffffffff166118a4565b156116ea578373ffffffffffffffffffffffffffffffffffffffff1663150b7a026115aa610de0565b8786866040518563ffffffff1660e01b81526004016115cc949392919061208a565b602060405180830381600087803b1580156115e657600080fd5b505af192505050801561161757506040513d601f19601f820116820180604052508101906116149190611ce2565b60015b61169a573d8060008114611647576040519150601f19603f3d011682016040523d82523d6000602084013e61164c565b606091505b50600081511415611692576040517f08c379a000000000000000000000000000000000000000000000000000000000815260040161168990612113565b60405180910390fd5b805181602001fd5b63150b7a0260e01b7bffffffffffffffffffffffffffffffffffffffffffffffffffffffff1916817bffffffffffffffffffffffffffffffffffffffffffffffffffffffff1916149150506116ef565b600190505b949350505050565b6060600082141561173f576040518060400160405280600181526020017f3000000000000000000000000000000000000000000000000000000000000000815250905061189f565b600082905060005b6000821461177157808061175a906125cc565b915050600a8261176a919061244e565b9150611747565b60008167ffffffffffffffff8111156117b3577f4e487b7100000000000000000000000000000000000000000000000000000000600052604160045260246000fd5b6040519080825280601f01601f1916602001820160405280156117e55781602001600182028036833780820191505090505b5090505b60008514611898576001826117fe919061247f565b9150600a8561180d9190612615565b603061181991906123f8565b60f81b818381518110611855577f4e487b7100000000000000000000000000000000000000000000000000000000600052603260045260246000fd5b60200101907effffffffffffffffffffffffffffffffffffffffffffffffffffffffffffff1916908160001a905350600a85611891919061244e565b94506117e9565b8093505050505b919050565b600080823b905060008111915050919050565b8280546118c390612569565b90600052602060002090601f0160209004810192826118e5576000855561192c565b82601f106118fe57805160ff191683800117855561192c565b8280016001018555821561192c579182015b8281111561192b578251825591602001919060010190611910565b5b509050611939919061193d565b5090565b5b8082111561195657600081600090555060010161193e565b5090565b600061196d61196884612353565b61232e565b90508281526020810184848401111561198557600080fd5b611990848285612527565b509392505050565b60006119ab6119a684612384565b61232e565b9050828152602081018484840111156119c357600080fd5b6119ce848285612527565b509392505050565b6000813590506119e581612b91565b92915050565b6000813590506119fa81612ba8565b92915050565b600081359050611a0f81612bbf565b92915050565b600081519050611a2481612bbf565b92915050565b600082601f830112611a3b57600080fd5b8135611a4b84826020860161195a565b91505092915050565b600082601f830112611a6557600080fd5b8135611a75848260208601611998565b91505092915050565b600081359050611a8d81612bd6565b92915050565b600060208284031215611aa557600080fd5b6000611ab3848285016119d6565b91505092915050565b60008060408385031215611acf57600080fd5b6000611add858286016119d6565b9250506020611aee858286016119d6565b9150509250929050565b600080600060608486031215611b0d57600080fd5b6000611b1b868287016119d6565b9350506020611b2c868287016119d6565b9250506040611b3d86828701611a7e565b9150509250925092565b60008060008060808587031215611b5d57600080fd5b6000611b6b878288016119d6565b9450506020611b7c878288016119d6565b9350506040611b8d87828801611a7e565b925050606085013567ffffffffffffffff811115611baa57600080fd5b611bb687828801611a2a565b91505092959194509250565b60008060408385031215611bd557600080fd5b6000611be3858286016119d6565b9250506020611bf4858286016119eb565b9150509250929050565b600080600060608486031215611c1357600080fd5b6000611c21868287016119d6565b935050602084013567ffffffffffffffff811115611c3e57600080fd5b611c4a86828701611a54565b925050604084013567ffffffffffffffff811115611c6757600080fd5b611c7386828701611a54565b9150509250925092565b60008060408385031215611c9057600080fd5b6000611c9e858286016119d6565b9250506020611caf85828601611a7e565b9150509250929050565b600060208284031215611ccb57600080fd5b6000611cd984828501611a00565b91505092915050565b600060208284031215611cf457600080fd5b6000611d0284828501611a15565b91505092915050565b600060208284031215611d1d57600080fd5b6000611d2b84828501611a7e565b91505092915050565b611d3d816124b3565b82525050565b611d4c816124c5565b82525050565b6000611d5d826123b5565b611d6781856123cb565b9350611d77818560208601612536565b611d8081612702565b840191505092915050565b6000611d96826123c0565b611da081856123dc565b9350611db0818560208601612536565b611db981612702565b840191505092915050565b6000611dcf826123c0565b611dd981856123ed565b9350611de9818560208601612536565b80840191505092915050565b6000611e026032836123dc565b9150611e0d82612713565b604082019050919050565b6000611e25601c836123dc565b9150611e3082612762565b602082019050919050565b6000611e486024836123dc565b9150611e538261278b565b604082019050919050565b6000611e6b6019836123dc565b9150611e76826127da565b602082019050919050565b6000611e8e602c836123dc565b9150611e9982612803565b604082019050919050565b6000611eb16038836123dc565b9150611ebc82612852565b604082019050919050565b6000611ed4602a836123dc565b9150611edf826128a1565b604082019050919050565b6000611ef76029836123dc565b9150611f02826128f0565b604082019050919050565b6000611f1a602e836123dc565b9150611f258261293f565b604082019050919050565b6000611f3d6020836123dc565b9150611f488261298e565b602082019050919050565b6000611f606031836123dc565b9150611f6b826129b7565b604082019050919050565b6000611f83602c836123dc565b9150611f8e82612a06565b604082019050919050565b6000611fa66029836123dc565b9150611fb182612a55565b604082019050919050565b6000611fc9602f836123dc565b9150611fd482612aa4565b604082019050919050565b6000611fec6021836123dc565b9150611ff782612af3565b604082019050919050565b600061200f6031836123dc565b915061201a82612b42565b604082019050919050565b61202e8161251d565b82525050565b60006120408284611dc4565b915081905092915050565b60006120578285611dc4565b91506120638284611dc4565b91508190509392505050565b60006020820190506120846000830184611d34565b92915050565b600060808201905061209f6000830187611d34565b6120ac6020830186611d34565b6120b96040830185612025565b81810360608301526120cb8184611d52565b905095945050505050565b60006020820190506120eb6000830184611d43565b92915050565b6000602082019050818103600083015261210b8184611d8b565b905092915050565b6000602082019050818103600083015261212c81611df5565b9050919050565b6000602082019050818103600083015261214c81611e18565b9050919050565b6000602082019050818103600083015261216c81611e3b565b9050919050565b6000602082019050818103600083015261218c81611e5e565b9050919050565b600060208201905081810360008301526121ac81611e81565b9050919050565b600060208201905081810360008301526121cc81611ea4565b9050919050565b600060208201905081810360008301526121ec81611ec7565b9050919050565b6000602082019050818103600083015261220c81611eea565b9050919050565b6000602082019050818103600083015261222c81611f0d565b9050919050565b6000602082019050818103600083015261224c81611f30565b9050919050565b6000602082019050818103600083015261226c81611f53565b9050919050565b6000602082019050818103600083015261228c81611f76565b9050919050565b600060208201905081810360008301526122ac81611f99565b9050919050565b600060208201905081810360008301526122cc81611fbc565b9050919050565b600060208201905081810360008301526122ec81611fdf565b9050919050565b6000602082019050818103600083015261230c81612002565b9050919050565b60006020820190506123286000830184612025565b92915050565b6000612338612349565b9050612344828261259b565b919050565b6000604051905090565b600067ffffffffffffffff82111561236e5761236d6126d3565b5b61237782612702565b9050602081019050919050565b600067ffffffffffffffff82111561239f5761239e6126d3565b5b6123a882612702565b9050602081019050919050565b600081519050919050565b600081519050919050565b600082825260208201905092915050565b600082825260208201905092915050565b600081905092915050565b60006124038261251d565b915061240e8361251d565b9250827fffffffffffffffffffffffffffffffffffffffffffffffffffffffffffffffff0382111561244357612442612646565b5b828201905092915050565b60006124598261251d565b91506124648361251d565b92508261247457612473612675565b5b828204905092915050565b600061248a8261251d565b91506124958361251d565b9250828210156124a8576124a7612646565b5b828203905092915050565b60006124be826124fd565b9050919050565b60008115159050919050565b60007fffffffff0000000000000000000000000000000000000000000000000000000082169050919050565b600073ffffffffffffffffffffffffffffffffffffffff82169050919050565b6000819050919050565b82818337600083830152505050565b60005b83811015612554578082015181840152602081019050612539565b83811115612563576000848401525b50505050565b6000600282049050600182168061258157607f821691505b60208210811415612595576125946126a4565b5b50919050565b6125a482612702565b810181811067ffffffffffffffff821117156125c3576125c26126d3565b5b80604052505050565b60006125d78261251d565b91507fffffffffffffffffffffffffffffffffffffffffffffffffffffffffffffffff82141561260a57612609612646565b5b600182019050919050565b60006126208261251d565b915061262b8361251d565b92508261263b5761263a612675565b5b828206905092915050565b7f4e487b7100000000000000000000000000000000000000000000000000000000600052601160045260246000fd5b7f4e487b7100000000000000000000000000000000000000000000000000000000600052601260045260246000fd5b7f4e487b7100000000000000000000000000000000000000000000000000000000600052602260045260246000fd5b7f4e487b7100000000000000000000000000000000000000000000000000000000600052604160045260246000fd5b6000601f19601f8301169050919050565b7f4552433732313a207472616e7366657220746f206e6f6e20455243373231526560008201527f63656976657220696d706c656d656e7465720000000000000000000000000000602082015250565b7f4552433732313a20746f6b656e20616c7265616479206d696e74656400000000600082015250565b7f4552433732313a207472616e7366657220746f20746865207a65726f2061646460008201527f7265737300000000000000000000000000000000000000000000000000000000602082015250565b7f4552433732313a20617070726f766520746f2063616c6c657200000000000000600082015250565b7f4552433732313a206f70657261746f7220717565727920666f72206e6f6e657860008201527f697374656e7420746f6b656e0000000000000000000000000000000000000000602082015250565b7f4552433732313a20617070726f76652063616c6c6572206973206e6f74206f7760008201527f6e6572206e6f7220617070726f76656420666f7220616c6c0000000000000000602082015250565b7f4552433732313a2062616c616e636520717565727920666f7220746865207a6560008201527f726f206164647265737300000000000000000000000000000000000000000000602082015250565b7f4552433732313a206f776e657220717565727920666f72206e6f6e657869737460008201527f656e7420746f6b656e0000000000000000000000000000000000000000000000602082015250565b7f45524337323155524953746f726167653a2055524920736574206f66206e6f6e60008201527f6578697374656e7420746f6b656e000000000000000000000000000000000000602082015250565b7f4552433732313a206d696e7420746f20746865207a65726f2061646472657373600082015250565b7f45524337323155524953746f726167653a2055524920717565727920666f722060008201527f6e6f6e6578697374656e7420746f6b656e000000000000000000000000000000602082015250565b7f4552433732313a20617070726f76656420717565727920666f72206e6f6e657860008201527f697374656e7420746f6b656e0000000000000000000000000000000000000000602082015250565b7f4552433732313a207472616e73666572206f6620746f6b656e2074686174206960008201527f73206e6f74206f776e0000000000000000000000000000000000000000000000602082015250565b7f4552433732314d657461646174613a2055524920717565727920666f72206e6f60008201527f6e6578697374656e7420746f6b656e0000000000000000000000000000000000602082015250565b7f4552433732313a20617070726f76616c20746f2063757272656e74206f776e6560008201527f7200000000000000000000000000000000000000000000000000000000000000602082015250565b7f4552433732313a207472616e736665722063616c6c6572206973206e6f74206f60008201527f776e6572206e6f7220617070726f766564000000000000000000000000000000602082015250565b612b9a816124b3565b8114612ba557600080fd5b50565b612bb1816124c5565b8114612bbc57600080fd5b50565b612bc8816124d1565b8114612bd357600080fd5b50565b612bdf8161251d565b8114612bea57600080fd5b5056fea264697066735822122044242fe777d224d5cbdb2a2f8dcad3bec6377856549a9882d73cf50853a6a4b564736f6c63430008030033",
  "immutableReferences": {},
  "source": "// SPDX-License-Identifier: MIT\n// https://github.com/OpenZeppelin/openzeppelin-contracts\n// https://github.com/OpenZeppelin/openzeppelin-contracts/tree/master/contracts/token/ERC721/extensions\npragma solidity ^0.8.0;\n\nimport \"@openzeppelin/contracts/token/ERC721/extensions/ERC721URIStorage.sol\";\nimport \"@openzeppelin/contracts/utils/Counters.sol\";\n\ncontract UniqueAsset is ERC721URIStorage {\n    using Counters for Counters.Counter;\n    Counters.Counter private _tokenIds;\n    mapping(string => uint8) hashes;\n\n    constructor() ERC721(\"UniqueAsset\", \"UNA\") {}\n\n    function awardItem(address recipient, string memory hash, string memory metadata)\n    public\n    returns (uint256)\n    {\n        require(hashes[hash] != 1);\n        hashes[hash] = 1;\n\n        _tokenIds.increment();\n\n        uint256 newItemId = _tokenIds.current();\n        _mint(recipient, newItemId);\n        _setTokenURI(newItemId, metadata);\n\n        return newItemId;\n    }\n}",
  "sourcePath": "/Volumes/Data/Projects/_self/cryts/ethereum-smartcontracts/truffle/smartcontracts/contracts/UniqueAsset.sol",
  "compiler": {
    "name": "solc",
    "version": "0.8.3+commit.8d00100c.Emscripten.clang"
  },
  "schemaVersion": "3.3.4",
  "updatedAt": "2021-03-27T09:09:36.561Z",
  "networkType": "ethereum",
  "devdoc": {
    "kind": "dev",
    "methods": {
      "approve(address,uint256)": {
        "details": "See {IERC721-approve}."
      },
      "balanceOf(address)": {
        "details": "See {IERC721-balanceOf}."
      },
      "getApproved(uint256)": {
        "details": "See {IERC721-getApproved}."
      },
      "isApprovedForAll(address,address)": {
        "details": "See {IERC721-isApprovedForAll}."
      },
      "name()": {
        "details": "See {IERC721Metadata-name}."
      },
      "ownerOf(uint256)": {
        "details": "See {IERC721-ownerOf}."
      },
      "safeTransferFrom(address,address,uint256)": {
        "details": "See {IERC721-safeTransferFrom}."
      },
      "safeTransferFrom(address,address,uint256,bytes)": {
        "details": "See {IERC721-safeTransferFrom}."
      },
      "setApprovalForAll(address,bool)": {
        "details": "See {IERC721-setApprovalForAll}."
      },
      "supportsInterface(bytes4)": {
        "details": "See {IERC165-supportsInterface}."
      },
      "symbol()": {
        "details": "See {IERC721Metadata-symbol}."
      },
      "tokenURI(uint256)": {
        "details": "See {IERC721Metadata-tokenURI}."
      },
      "transferFrom(address,address,uint256)": {
        "details": "See {IERC721-transferFrom}."
      }
    },
    "version": 1
  },
  "userdoc": {
    "kind": "user",
    "methods": {},
    "version": 1
  }
}